:020000040800F2
:10000000280D0020C10100088B1500088315000889
:1000100087150008510300081B2600080000000097
:100020000000000000000000000000001B1C000891
:10003000991100080000000069180008211E00083E
:10004000DB010008DB010008DB010008DB01000820
:10005000DB010008DB010008DB010008DB01000810
:10006000DB010008DB010008DB010008DB01000800
:10007000DB010008DB010008DB010008DB010008F0
:10008000DB010008DB010008DB0100089103000828
:1000900055030008DB010008DB010008DB01000854
:1000A000DB010008DB010008DB010008DB010008C0
:1000B000DB010008DB010008DB010008DB010008B0
:1000C000DB010008DB010008DB010008DB010008A0
:1000D000DB01000805220008DB010008DB01000845
:1000E000DB010008DB010008DB010008DB01000880
:1000F000DB010008DB010008DB010008DB01000870
:10010000DB010008DB010008DB010008DB0100085F
:10011000DB010008DB010008F51E0008DB01000818
:10012000DB010008DB010008DB010008DB0100083F
:10013000DB010008DB010008DB010008DB0100082F
:10014000DB010008DB010008DB010008DB0100081F
:10015000DB010008DB010008DB010008E9220008E0
:10016000DB010008DB010008DB010008DB010008FF
:10017000DB010008DB010008DB010008DB010008EF
:10018000DB010008DB010008DB010008DB010008DF
:10019000DB010008DB010008DB010008DB010008CF
:1001A0000000000000000000DB010008DFF80CD0B8
:1001B00000F08EF800480047E92F0008280D0020C5
:1001C0000648804706480047FEE7FEE7FEE7FEE7F1
:1001D000FEE7FEE7FEE7FEE7FEE7FEE7251E000876
:1001E000AD0100089FED1A1AF5EE000A40EE010A73
:1001F000BDEEE00AF5EEC00A10EE100AF1EE10FABC
:1002000038BF401E00EE100A1349F7EE001AB8EE90
:10021000C00A30EEC00ADFED0F0A20EE200AFCEE25
:10022000C00A10EE900AC0F3080000EE900A01EB3D
:100230008000F8EE600A90ED011A70EE600A90ED11
:10024000000A71EEE01A21EE800A00EE810A704782
:1002500083F9223E00000044C4310008DFED190A92
:10026000B5EEC00A60EE200ABDEEE01A11EE100AEB
:10027000F1EE10FA38BF401E00EE100A1349F7EEF7
:10028000001AB8EEC00A30EEC00ADFED0F0A60EEC9
:10029000200ABCEEE00A10EE100AC0F3080000EEDF
:1002A000100A01EB8000B8EE400A90ED011A70EEE2
:1002B000C00A90ED000A71EEE01A21EE800A00EE0D
:1002C000810A704783F9223E00000044C4310008CF
:1002D000064C074D06E0E06840F0010394E8070093
:1002E00098471034AC42F6D3FFF764FFC8390008D2
:1002F000E839000810B5B42002F052FC4FF4E130A8
:1003000002F0DEFE4FF4407001F07CF902F044FE92
:1003100000F0BCF800F042FF01F0B8FD02F0C6FEAC
:1003200002F06CFA00F08EFC01F058FF02F07AFE49
:1003300002F0E0FC002408E0204602F0A7FE40F2B4
:10034000C52002F04BFC601CC4B2042CF4DB10BDD1
:1003500000BFFEE700B585B002210B4800F0ECF9C4
:1003600078B10421084800F03DF80849064800F03B
:100370001DF86A460021044800F001FB684600F0C1
:1003800019FC05B000BD0000006400400800003208
:1003900010B50121044800F0CFF918B1012102483D
:1003A00000F020F810BD00000064004000220C4B5B
:1003B000994202D10023836111E0C1F3130201F0DD
:1003C00000730BB1C2600AE001F080630BB10261FF
:1003D00005E001F000630BB1826000E0426070470D
:1003E0007000F030B1F5007F3AD00FDC202928D022
:1003F00006DC01291CD004291DD0082940D11DE0AC
:10040000402921D0B1F5807F3AD126E0B1F5004FE7
:1004100031D006DCB1F5806F25D0B1F5006F2FD15A
:1004200024E0B1F5803F12D0B1F5003F28D111E0B2
:10043000154A826025E00822C26022E01022C260D4
:100440001FE0082202611CE01022026119E008226C
:10045000426016E01022426013E00422426010E085
:10046000042242600DE0042242600AE00022826120
:100470000422426005E0002282610422426000E022
:1004800000BF00BF704700000101010000B587B048
:100490000121082001F0EAF90121480601F0F6F9EE
:1004A00009220021404801F045F8092201213E4877
:1004B00001F040F80320029002208DF80C0002A900
:1004C000394800F0EFFF14208DF8040002208DF869
:1004D000050001208DF806008DF8070001A801F045
:1004E00055F813208DF8040001208DF805008DF8D3
:1004F00006008DF8070001A801F048F82B4800F02D
:1005000057F804A800F0B3FA00208DF816008DF813
:1005100017008DF818008DF819008DF81A000120C9
:100520008DF81B0000208DF812008DF813000220BA
:100530008DF8140004208DF815000520ADF810008A
:1005400004A91A4800F091F901220221174800F08D
:1005500083F901221146154800F07EF940F201218D
:10056000002000F041F840F20221012000F03CF8A8
:1005700040F20321022000F037F84FF4017103200C
:1005800000F032F840F20521042000F02DF840F28E
:100590000621052000F028F840F20721062000F08F
:1005A00023F807B000BD0000000C024000640040CA
:1005B00010B504460B48844209D10121480601F0D8
:1005C00075F900214FF0007001F070F908E0012189
:1005D000880601F06BF900214FF0806001F066F9A8
:1005E00010BD0000006400407FB504460D468DF844
:1005F0000A4000208DF80B0001208DF80C004FF60A
:10060000FF7000EA4510ADF800000020ADF80200D0
:100610004FF6F070ADF804000020ADF80600ADF81C
:10062000080001208DF80D00684600F001F87FBD3C
:1006300010B50021837A012202FA03F13D4A1268C3
:1006400042F001023B4B1A603A4A1C3212688A435C
:10065000384B1C331A60027BCAB9364A0C32126816
:100660008A43344B0C331A604288C38842EA0343FE
:10067000304A4032847A42F834300288838842EA31
:1006800003432C4A4032847A02EBC4025360027B5B
:10069000012A19D1274A0C3212680A43254B0C3320
:1006A0001A604288038842EA0343224A4032847A2D
:1006B00042F83430C288838842EA03431D4A4032FC
:1006C000847A02EBC4025360C27A3AB9194A121D05
:1006D00012688A43174B1B1D1A6006E0154A121D4B
:1006E00012680A43134B1B1D1A60028932B9114A62
:1006F000143212688A430F4B14331A600289012A9C
:1007000006D10C4A143212680A430A4B14331A6099
:10071000427B012A06D1074A1C3212680A43054B64
:100720001C331A60034A126822F00102014B1A605E
:1007300010BD00000066004070B504460D4600265E
:1007400060692840002871D0B5F5807F5CD010DC4E
:10075000082D35D006DC012D20D0022D24D0042D0B
:1007600072D127E0102D31D0202D35D0402D6BD106
:1007700038E0B5F5004F60D009DCB5F5007F49D011
:10078000B5F5806F4CD0B5F5006F5DD14FE0B5F594
:10079000803F2DD0B5F5003F56D12FE0A0682D4900
:1007A00000F046FA064651E0E068032100F040FA06
:1007B00006464BE0E068082100F03AFA064645E0BC
:1007C000E068102100F034FA06463FE0206903217A
:1007D00000F02EFA064639E02069082100F028FAD8
:1007E000064633E02069102100F022FA06462DE08B
:1007F0006068082100F01CFA064627E060681021B6
:1008000000F016FA064621E0A069012100F010FA76
:1008100006461BE0A069022100F00AFA064615E030
:10082000A069042100F004FA06460FE00FE0A06979
:10083000702100F0FDF9064608E06068042100F030
:10084000F7F9064602E0FFE7002600BF00E00026B9
:10085000304670BD010101001AB143690B43436189
:1008600002E043698B434361704730B50246002084
:100870000023146824F002041460146844F0010496
:10088000146000E05B1C546804F001041CB94FF6CE
:10089000FF74A342F6D1546804F001040CB900209F
:1008A0006CE08C79012C04D1146844F0800414604D
:1008B00003E0146824F080041460CC79012C04D186
:1008C000146844F04004146003E0146824F0400409
:1008D00014600C7A012C04D1146844F020041460D4
:1008E00003E0146824F0200414604C7A012C04D135
:1008F000146844F01004146003E0146824F0100439
:1009000014608C7A012C04D1146844F0080414603B
:1009100003E0146824F008041460CC7A012C04D19C
:10092000146844F00404146003E0146824F0040420
:1009300014608C78A407CD7844EA05640D7944EA04
:1009400005444D7944EA05540D886D1E2C43D4614D
:10095000146824F001041460002300E05B1C546858
:1009600004F001041CB14FF6FF74A342F6D15468A1
:1009700004F001040CB1002000E0012030BD10B5EE
:1009800000F5D87303EB01131B6803F00403137223
:10099000137A53B900F5D87303EB01131B6840F2C7
:1009A000FF7404EA5353136009E000F5D87303EBB6
:1009B00001131B686FF0604404EAD303536000F531
:1009C000D87303EB01131B6803F00203537200F5A5
:1009D000D87303EB01135B6803F00F03937200F508
:1009E000D87303EB01135B681B0AD37400F5D8734B
:1009F00003EB01139B68D37200F5D87303EB01136B
:100A00009B681C0A147300F5D87303EB01139B68F1
:100A10001C0C547300F5D87303EB01139B681B0E79
:100A2000937300F5D87303EB0113DB68D37300F500
:100A3000D87303EB0113DB681C0A147400F5D87338
:100A400003EB0113DB681C0C547400F5D87303EB43
:100A50000113DB681B0E937421B9C36843F02003B4
:100A6000C36003E0036943F02003036110BD00216C
:100A70008171C171017241728172C1728170C170E4
:100A8000032101710221417101210180704710B5DC
:100A900002460020936803F08063B3F1806F00D1B9
:100AA00010E0936803F00063B3F1006F01D10120FF
:100AB00008E0936803F08053B3F1805F01D1022016
:100AC00000E00420042874D002F5C07303EB001387
:100AD0001B6803F0010402F5C07303EB00131C60F4
:100AE0000B7A7BB94B7A0C8843EA445302F5C07405
:100AF00004EB00142468234302F5C07404EB0014D3
:100B0000236010E00B7A4C6843EAC4034C7A234319
:100B100002F5C07404EB00142468234302F5C0748A
:100B200004EB001423608B7A03F00F038B7202F541
:100B3000C07303EB00135B6823F00F0402F5C0736E
:100B400003EB00135C6002F5C07303EB00135B68FA
:100B50008C7A234302F5C07404EB001463608B7B32
:100B60001C064B7B44EA03440B7B44EA0323CC7A08
:100B7000234302F5C07404EB0014A3608B7C1C06B5
:100B80004B7C44EA03440B7C44EA0323CC7B2343A1
:100B900002F5C07404EB0014E36002F5C07303EBCC
:100BA00000131B6843F0010402F5C07303EB00134C
:100BB0001C6010BD10B504462068A0F20120072873
:100BC0002BD2DFE800F004090F15201B2500214679
:100BD000134802F03FF920E021461148483002F066
:100BE00039F91AE021460E48903002F033F914E04A
:100BF00021460B48D83002F02DF90EE02146094875
:100C000002F028F909E02146074802F023F904E040
:100C10002146064802F01EF900BF00BF10BD0000CB
:100C20009C01002004030020BC0200204C03002093
:100C30000246002002EA01030BB1012000E000207F
:100C40007047000010B502F07BF924490860244881
:100C5000C8602448C1F89401DFED230A9FED230A00
:100C6000234A00211D48C03000F0CEFDDFED210AEF
:100C7000B2EE0E0A204A00211848703000F0C4FD80
:100C80009FED1E0A154880ED590A9FED1D0A80ED63
:100C90005A0A4FF48051A0F86211DFED130A9FED5C
:100CA000130A184A002100F5127000F0ADFDDFEDC7
:100CB000110AB2EE040A144A0021144800F0A4FDFF
:100CC0009FED130A054880EDBB0A9FED120A80EDE7
:100CD000BC0A4FF48051A0F8EA1210BDAC0300200A
:100CE000BC0200200403002000409C450060EA464E
:100CF00080310008000000008C3100080000B44280
:100D00000000B4C298310008A4310008A4050020F6
:100D100000003442000020C210B5164800F046FA28
:100D200014480068B0F9080000F5257040034FF43E
:100D3000A56190FBF1F000EE100AB8EEC00A0D4874
:100D400080ED240A0068B0F9020000F52570400328
:100D500090FBF1F000EE100AB8EEC00A054880EDF5
:100D6000860A05490C3002F0F3F80449044802F001
:100D7000EFF810BDAC030020BC02002004030020EB
:100D8000400500200A4890ED3A0ABDEEC00A10EE78
:100D9000100A00B207490880054890ED9C0ABDEE94
:100DA000C00A10EE100A00B24880084670470000E2
:100DB000AC0300202000002010B50446207D00F088
:100DC0004000D8B1594890ED040ADFED590AB4EE5D
:100DD000E00AF1EE10FA07DD90ED040AF2EE040AE3
:100DE00030EE600A80ED040A504890ED040ABDEE32
:100DF000C00A10EE100A00B2208004E09FED4D0AF8
:100E00004A4880ED040A207D00F08000D8B14748B0
:100E100090ED050ADFED480AB4EEE00AF1EE10FAB3
:100E200007D290ED050AF2EE040A30EE200A80EDBA
:100E3000050A3E4890ED050ABDEEC00A10EE100A04
:100E400000B2208004E09FED3B0A384880ED050A9F
:100E5000E07A01284ED1394890ED000ADFED380ADA
:100E6000B4EEE00AF1EE10FA12D290ED000AF0EEC4
:100E7000000A30EE200A80ED000A014691ED000ADA
:100E8000BCEEC00A10EE101A88B201F01FFF43E05A
:100E90002C4890ED000ADFED2A0AB4EEE00AF1EEEC
:100EA00010FA12D290ED000AF0EE000A30EE200A9D
:100EB00080ED000A014691ED000ABCEEC00A10EE7A
:100EC000101A88B201F00CFF26E01C4991ED000ACF
:100ED000BCEEC00A10EE101A88B201F0F7FE1949F4
:100EE00091ED000ABCEEC00A10EE101A88B201F0B3
:100EF000F7FE11E04FF4FA7001F0E8FE4FF4FA70DB
:100F000001F0EEFE9FED100A0C4880ED000A9FED07
:100F10000E0A0C4880ED000A01F090FBFFF7FCFE82
:100F2000204601F01DF901F041F910BD94030020A5
:100F3000000025C400000000000025441800002027
:100F4000008089441C00002000007A440246094BBE
:100F50009A4201D2084801E00648103801F00053D7
:100F60001BB1064B0B40C36002E0044B0B40836097
:100F70007047000010640240006002407D0F7D0F4A
:100F800021B1026842F00102026003E0026822F02F
:100F90000102026070470000016821F00101016058
:100FA0000021016041608160C160016121214161D6
:100FB0004A49884204D13D21484A103A91608CE068
:100FC00046491831884205D14FF47461434A103ABA
:100FD000916082E041493031884205D14FF474116B
:100FE0003E4A103A916078E03C494831884205D148
:100FF0004FF07461394A103A91606EE037496031C0
:10100000884204D13649354A103AD16065E0334907
:101010007831884204D13349304A103AD1605CE0DB
:101020002E499031884204D12F492C4A103AD16080
:1010300053E02A49A831884205D14FF03D51274A53
:10104000103AD16049E02949884204D13D21274A1C
:10105000083A116041E025491831884205D14FF422
:101060007461224A083A116037E0204930318842E1
:1010700005D14FF474111D4A083A11602DE01B4947
:101080004831884205D14FF07461184A083A11601E
:1010900023E016496031884204D11149134A121FD6
:1010A00011601AE011497831884204D10D490F4A84
:1010B000121F116011E00D499031884204D10A4994
:1010C0000A4A121F116008E00849A831884204D179
:1010D0004FF03D51054A121F1160704710600240E9
:1010E0003D000020400F002000003D201064024021
:1010F00021B1026842F48022026003E0026822F417
:1011000080220260704722B1036843F40023036029
:1011100003E0036823F40023036001617047014684
:10112000486880B27047014600200A6802F4002235
:101130000AB1012000E000207047000010B5002235
:101140000268134B1A40CC680B6823434C69234355
:101150008C692343CC6923430C6A23434C6A2343A1
:101160008C6A23434C6B23438C6B23431A430260EA
:10117000426922F00702D1E90B3423431A4342614A
:101180000B6943604B6883608B68C36010BD0000CF
:101190003F801CF0416070477047000047F6FF70C9
:1011A00001490860704700002408004010B504465B
:1011B00004B910BDD4F89401006881B24FF4805096
:1011C00001F016FF84EDBD0AD4F89401B0F9440093
:1011D00000EE100AB8EEC00ADFED0E0A20EE200A7B
:1011E00084EDC10AE068006881B24FF4805001F0DC
:1011F000FFFE84ED5B0AE068B0F9440000EE100ADF
:10120000B8EEC00ADFED030A20EE200A84ED5F0A83
:1012100000BFCEE75077D63DB0EE401AF0EE601A30
:1012200010B99FED9D0A704790ED120A80ED130AE8
:1012300090ED110A80ED120AC0ED081A80ED091A2E
:1012400031EEC10A80ED110AD0ED110AF5EEC00AA7
:10125000F1EE10FA0FDD9FED910A30EE600AB4EE68
:10126000E00AF1EE10FA06D29FED8C0A30EEC00AC9
:1012700080ED110A18E0F5EEC00AF1EE10FA11D275
:101280009FED860A30EE800AB1EE602AB4EEC20A03
:10129000F1EE10FA06D29FED810A30EE800A80ED61
:1012A000110A01E0C0ED110A90ED110A9FED7C2AB0
:1012B00020EE020A80ED110A017800297FD190ED1D
:1012C000010A90ED112A20EE020A80ED0B0A90ED42
:1012D0000C0A90ED022AD0ED112A02EE220A80EDCE
:1012E0000C0A90ED0F0A80ED100A90ED0E0A80EDC9
:1012F0000F0A90ED110A90ED122A30EE420A80EDAD
:101300000E0A90ED030A90ED0E2A20EE020A80EDFF
:101310000D0A90ED0C0A90ED052AB4EEC20AF1EE2A
:1013200010FA02D290ED0C0A01E090ED050A80ED72
:101330000C0A90ED0C0A90ED052AB1EE422AB4EEAB
:10134000C20AF1EE10FA02DD90ED0C0A03E090ED16
:10135000050AB1EE400A80ED0C0A90ED0B0A90ED03
:101360000C2A30EE020A90ED0D2A30EE020A80EDD2
:101370000A0A90ED0A0A90ED042AB4EEC20AF1EED0
:1013800010FA02D290ED0A0A01E090ED040A80ED15
:101390000A0A90ED0A0A90ED042AB1EE422AB4EE50
:1013A000C20AF1EE10FA03DD90ED0A0A04E006E04D
:1013B00090ED040AB1EE400A80ED0A0A68E0017877
:1013C000012965D190ED110A90ED122A30EE420A02
:1013D00090ED012A20EE020A80ED0B0A90ED020A40
:1013E00090ED112A20EE020A80ED0C0A90ED0F0A12
:1013F00080ED100A90ED0E0A80ED0F0A90ED110AB3
:1014000090ED122AF0EE002A02EEC20A90ED132AA5
:1014100030EE020A80ED0E0A90ED030A90ED0E2ADE
:1014200020EE020A80ED0D0A90ED0B0A90ED0C2AD9
:1014300030EE020A90ED0D2A30EE020A90ED0A2AF3
:1014400030EE020A80ED0A0A90ED0A0A90ED042AB5
:10145000B4EEC20AF1EE10FA02D290ED0A0A01E0EF
:1014600090ED040A80ED0A0A90ED0A0A90ED042A34
:10147000B1EE422AB4EEC20AF1EE10FA02DD90EDAE
:101480000A0A03E090ED040AB1EE400A80ED0A0A70
:1014900090ED0A0AC7E600000000000000F8FF45D2
:1014A000DB0F493AF0B50A4600210023002400BFB3
:1014B0003DE0012505FA01F3156805EA03049C42A5
:1014C00034D105684F000326BE40B5430560157949
:1014D0004E00B5400668354305601579012D02D0F0
:1014E0001579022D16D185684F000326BE40B543FD
:1014F000856055794E00B5408668354385604568FE
:1015000001268E40B5434560456896798E40B6B257
:1015100035434560C5684F000326BE40B543C560EE
:10152000D5794E00B540C6683543C560491C1029C1
:10153000BFD3F0BDF0B5002300244D07ED0E02FA35
:1015400005F3CE1000F1200555F826504E07F70E92
:101550000F26BE40B543CF1000F1200646F82750B5
:10156000CE1000F1200555F8265045EA0304CE10B0
:1015700000F1200545F82640F0BD41837047018306
:10158000704700BFFEE700BFFEE7704770B500215F
:1015900000230F22C4781CB3174C246804F4E064C1
:1015A000C4F5E064C4F30721C1F10404E3B20A41C5
:1015B00044789C40E1B28478144021430C07210E0A
:1015C0000E4C05786155047804F01F050124AC40E9
:1015D00005786D11AD0005F1E025C5F8004109E081
:1015E000047804F01F050124AC40054D06787611FF
:1015F00045F8264070BD00000CED00E000E400E07E
:1016000080E100E002490143024A11607047000096
:101610000000FA050CED00E0B0EE401A10B99FEDA5
:10162000790A704790ED120A80ED130A90ED110AC5
:1016300080ED120AC0ED080A80ED091A30EEC10AE9
:1016400080ED110A0178002975D190ED010AD0EDE5
:10165000111A20EE210A80ED0B0A90ED0C0AD0ED54
:10166000021A90ED112A01EE820A80ED0C0A90ED2B
:101670000F0A80ED100A90ED0E0A80ED0F0A90ED32
:10168000110AD0ED121A30EE610A80ED0E0A90EDCB
:10169000030AD0ED0E1A20EE210A80ED0D0A90ED1E
:1016A0000C0AD0ED051AB4EEE10AF1EE10FA04DDF1
:1016B00090ED050A80ED0C0A10E090ED0C0AD0EDDB
:1016C000051AF1EE611AB4EEE10AF1EE10FA05D254
:1016D00090ED050AB1EE400A80ED0C0A90ED0B0A80
:1016E000D0ED0C1A30EE210AD0ED0D1A30EE210AA1
:1016F00080ED0A0A90ED0A0AD0ED041AB4EEE10A70
:10170000F1EE10FA04DD90ED040A80ED0A0A76E0AD
:1017100090ED0A0AD0ED041AF1EE611AB4EEE10A76
:10172000F1EE10FA6BD290ED040AB1EE400A80EDB2
:101730000A0A64E0FFE70178012960D190ED110AFF
:10174000D0ED121A30EE610AD0ED011A20EE210A16
:1017500080ED0B0A90ED020AD0ED111A20EE210A5D
:1017600080ED0C0A90ED0F0A80ED100A90ED0E0A44
:1017700080ED0F0A90ED110AD0ED121AB0EE002A9A
:1017800002EE610AD0ED131A30EE210A80ED0E0A46
:1017900090ED030AD0ED0E1A20EE210A80ED0D0A1D
:1017A00090ED0B0AD0ED0C1A30EE210AD0ED0D1A97
:1017B00030EE210AD0ED0A1A30EE210A80ED0A0A35
:1017C00090ED0A0AD0ED041AB4EEE10AF1EE10FA37
:1017D00004DD90ED040A80ED0A0A10E090ED0A0A9B
:1017E000D0ED041AF1EE611AB4EEE10AF1EE10FA4E
:1017F00005D290ED040AB1EE400A80ED0A0A90EDA0
:101800000A0A0EE70000000000B102B9704701703B
:1018100092ED001A80ED011A92ED011A80ED021A84
:1018200092ED021A80ED031A80ED040AC0ED050A5C
:101830009FED0C1A80ED101A80ED0F1A80ED0E1A34
:101840009FED081A80ED0A1A80ED0D1A80ED0C1A32
:1018500080ED0B1A80ED131A80ED121A80ED111A2B
:1018600000BFD3E7000000007047000029B1064A1E
:1018700012680243044B1A6004E0034A1268824370
:10188000014B1A60704700003038024029B1064A07
:1018900012680243044B1A6004E0034A1268824350
:1018A000014B1A60704700004038024029B1064AD7
:1018B00012680243044B1A6004E0034A1268824330
:1018C000014B1A60704700002038024029B1064AD7
:1018D00012680243044B1A6004E0034A1268824310
:1018E000014B1A60704700004438024029B1064A93
:1018F00012680243044B1A6004E0034A12688243F0
:10190000014B1A607047000024380240F0B50021F6
:1019100000220024022500260223324F3F6807F0F0
:101920000C0121B1042905D0082937D105E02E4F3B
:10193000076036E02D4F076033E02A4F3F1F3F68B6
:10194000C7F38056274F3F1F3F6807F03F036EB134
:10195000264FB7FBF3F7DFF88CC0ACF1040CDCF8D2
:1019600000C0CCF3881C07FB0CF40CE01E4FB7FB47
:10197000F3F7DFF870C0ACF1040CDCF800C0CCF376
:10198000881C07FB0CF4174F3F1F3F68C7F3014744
:101990007F1C7D00B4FBF5F7076002E0124F076083
:1019A00000BF00BF0F4F3F6807F0F0010909104F5B
:1019B0007A5C0768D74047600A4F3F6807F4E051F8
:1019C000890A0B4F7A5C4768D7408760054F3F68AC
:1019D00007F46041490B064F7A5C4768D740C760FF
:1019E000F0BD0000083802400024F400001BB700DE
:1019F0000000002070B590B004460E461546012147
:101A00004A48FFF733FF01211020FFF75FFF012154
:101A10001020FFF76BFF00211020FFF767FF072260
:101A200011464348FFF786FD80200E9002208DF876
:101A30003C0000208DF83E0003208DF83D00002082
:101A40008DF83F000EA93A48FFF72CFD394800F009
:101A5000ADFC39480A900020ADF82C00ADF82E00FE
:101A60004FF48060ADF830000420ADF83200002063
:101A7000ADF834000AA92F4800F060FD0122402192
:101A80002C4800F08AFC10212A4800F071FC012249
:101A900040F22441274800F02BFD0121254800F0A9
:101AA00070FC25208DF83C0004208DF83D000020BE
:101AB0008DF83E0001208DF83F000FA8FFF766FD6E
:101AC0001E48FFF769FA4FF0006001901948001DA9
:101AD0000290039400200490059506904FF48060D6
:101AE00007900020089009904FF480700A904FF4FE
:101AF00040300B9000200C900D900E900F9001A99B
:101B00000E48FFF71BFB002231460C48FFF7FBFA9B
:101B100001210A48FFF7ECFA00210848FFF730FAE4
:101B200001210648FFF72CFA10B070BD02004000FA
:101B30000004024000100140A08601004064024001
:101B400000B101B970470278437842EA0322C2F338
:101B50000A020A804278D210837842EA4312C2F322
:101B60000A024A8082789211C37842EA830203799A
:101B700042EA8322C2F30A028A8002795210437930
:101B800042EAC312C2F30A02CA804279C2F30112C6
:101B90008A72427912119308CB728279C37942EA30
:101BA000032212B28A81027A437A42EA032213B2F2
:101BB00001F10C02CB81827AC37A42EA032213B28A
:101BC00001F10C020B82037B8B74437BCB74827B11
:101BD000C37B42EA03228A82027C437C42EA0322DC
:101BE00012B20A810A88A2F5806212B20A804A887B
:101BF000A2F5806212B24A808A88A2F5806212B28F
:101C00008A80CA88A2F5806212B2CA800A89A2F5C7
:101C1000806212B20A8100BF94E770470CB50020C1
:101C2000019000904148006840F480303F490860CE
:101C300000BF3E48006800F4003000900198401C4E
:101C40000190009818B90198B0F5A04FF1D137482C
:101C5000006800F4003010B10120009001E0002085
:101C600000900098012860D130484030006840F072
:101C700080502E49403108602D48006840F44040B3
:101C80002B49086029480830006828490831086055
:101C90000846006840F4004008600846006840F4C8
:101CA000A05008602348091F0860081F006840F022
:101CB0008070091F086000BF1C48006800F00070B9
:101CC0000028F9D01A48006840F4803018490860AC
:101CD00000BF1748406800F480300028F9D014484D
:101CE000006840F400301249086000BF10484068A6
:101CF00000F400300028F9D040F205700E49086069
:101D00000A480830006820F00300084908310860DC
:101D10000846006840F00200086000BF0348083031
:101D2000006800F00C000828F8D10CBD0038024013
:101D3000007000400C5A4007003C0240F0B585B0EE
:101D400004460D4616461F464FF4007000900020D2
:101D50008DF808008DF8090008208DF80A00200A87
:101D60008DF80B00E1B28DF80C10290A8DF80D10DA
:101D7000E9B28DF80E10310A8DF80F10F1B28DF81E
:101D80001010390A8DF81110F9B28DF81210694649
:101D90000248FEF77CFE05B0F0BD00000064004084
:101DA00070B586B004460D46164640F2FF1001900D
:101DB00000208DF80C008DF80D0008208DF80E0025
:101DC000200A8DF80F008DF81040290A8DF81110A7
:101DD0008DF81250310A8DF813108DF8146000211F
:101DE0008DF815108DF8161001A90248FEF74FFE68
:101DF00006B070BD00640040042808D14FF0E02117
:101E0000096941F004014FF0E022116107E04FF051
:101E1000E021096921F004014FF0E02211617047CF
:101E20007047000010B51548006840F47000134971
:101E300008601348006840F0010011490860002064
:101E40000F49083108600E4800680E4908400C49E7
:101E500008600D48091D0860081F006820F48020F4
:101E6000091F0860002006490C310860FFF7D6FE04
:101E70004FF0006001498039086010BD88ED00E036
:101E800000380240FFFFF6FE103000241FB501218C
:101E90001020FFF7FBFC36208DF8000001208DF8A4
:101EA000010000208DF8020001208DF80300684633
:101EB000FFF76CFB5920ADF804000020ADF80600D8
:101EC000ADF80C0041F28830029001A9084800F0FA
:101ED00005F90121064800F035F8012211460448B1
:101EE00000F05CF80121024800F026F81FBD000058
:101EF0000010004010B50121084800F03EF860B124
:101F00000121064800F01BF80121044800F014F8F4
:101F100001F016F80446FEF74FFF10BD0010004018
:101F200021B1028842F08002028004E002884FF66C
:101F30007F731A4002807047CA4302827047CA43C7
:101F40000282704721B1028842F00102028004E05F
:101F500002884FF6FE731A400280704731B1B0F824
:101F6000442042F40042A0F8442005E0B0F84420A8
:101F7000C2F30E02A0F84420704730B5024600209C
:101F800000230024158A05EA0103958905EA010466
:101F900013B10CB1012000E0002030BD1AB18389DB
:101FA0000B43838102E083898B4383817047000068
:101FB00070B5002400220023058C4FF6FE763540D4
:101FC0000584028C8388048B4FF68F752C40B51ED8
:101FD0002C400D882C43751E2A408D892A434D883C
:101FE0002A43104DA84202D00F4DA84213D14FF6FC
:101FF000F7752A40CD892A434FF6FB752A408D8814
:102000002A434FF6FF652B404FF6FF552B400D8AB4
:102010002B434D8A2B43838004838D684563028460
:1020200070BD000000000140000401400A4600218C
:10203000018B4FF6F773194011430183704700007D
:1020400070B5002200230024058C4EF6FF76354043
:102050000584038C8488828B48F6FF752A404FF6EE
:10206000FF452A400D884FF6FF7606EA05252A43EC
:102070004DF6FF752B408D8906EA05352B434D88BB
:1020800006EA05352B430A4DA84202D0094DA84265
:1020900008D14BF6FF752C400D8A4FF6FF7606EA05
:1020A00085152C43848082838D680564038470BD0C
:1020B00000000140000401400A460021818B4FF2DC
:1020C000FF7319404FF6FF7303EA0223194381831C
:1020D0007047416370470164704700000022028826
:1020E000184B98420ED0184B98420BD0B0F1804F4D
:1020F00008D0164B984205D0154B984202D0154B8C
:10210000984204D14FF68F731A404B881A43124BF2
:10211000984207D0114B984204D04FF6FF431A4023
:102120000B891A4302804B68C3620B880385054BF9
:10213000984202D0044B984201D18B7A0386012346
:102140008382704700000140000401400004004009
:1021500000080040000C0040001000400014004047
:1021600010B50446A07A012801D1822000E00020A9
:1021700000EE100AB8EEC00A0A4880ED080A90ED99
:10218000081AF0EE410A0848C06B01EE100AB8EEDA
:10219000C11AB0EE410A0348FFF73EFA014880ED4C
:1021A0000A0A10BD4C0100204C03002070B5FEF758
:1021B000E9FDB0F90240FEF7E5FDB0F90050064830
:1021C00090ED0A0ABDEEC00A10EE100A02B22146D6
:1021D0002846FFF7E5FD70BD4C01002010B5DFED8E
:1021E000050A9FED050A054A00210548FFF70CFB8B
:1021F00010BD000000409C4500401C4674310008A2
:102200004C01002010B540F22551314800F046F94C
:1022100018B12F4800F0FCF959E040F224412C4855
:1022200000F03CF9002852D0294800F0F1F9294883
:10223000FEF779FF28BB00212648FEF7A1FE2548BE
:10224000FEF76DFFC0F124002349088024212148B6
:10225000FEF7A0FF1F48006840F400201D490860F9
:102260001E491C48FEF772FE01211A48FEF788FE3F
:102270001948008812282AD119491A48FFF760FC2A
:1022800025E000211348FEF77BFE1248FEF747FFCA
:10229000C0F124001049088024210E48FEF77AFF7F
:1022A0000C48006820F400200A4908600B490948DE
:1022B000FEF74CFE01210748FEF762FE0648008843
:1022C000122804D1064907482430FFF739FC10BD15
:1022D0000010014040640240160000200000301051
:1022E000EC0000200201002010B540F225511D48ED
:1022F00000F0D4F810B31B4800F08AF9C4B21A48B1
:10230000008800F40040C8B91748008800F48040F5
:1023100060B10A2C03D000201349088020E0124845
:10232000008840F400401049088019E00D2C06D1C7
:102330000D48008840F480400B49088010E00A48AE
:102340000088C0F30D0009490C5407480088401C60
:102350000549088008460088C72801DD002008805C
:1023600010BD0000001401401400002024000020D3
:1023700001F40072B2F5007F00D100BFCA430280B1
:10238000704721B1828942F40052828104E082893F
:102390004DF6FF731A40828170471AB1838A0B434E
:1023A000838202E0838A8B438382704710B50446A0
:1023B0003248844208D101211020FFF797FA00210A
:1023C0001020FFF793FA57E02D48844209D10121EC
:1023D0004804FFF76BFA00214FF40030FFF766FA6C
:1023E0004AE02848844209D101218804FFF75EFAB7
:1023F00000214FF48020FFF759FA3DE02248844243
:1024000009D10121C804FFF751FA00214FF400203F
:10241000FFF74CFA30E01D48844209D1012108053C
:10242000FFF744FA00214FF48010FFF73FFA23E052
:102430001748844208D101212020FFF757FA0021D4
:102440002020FFF753FA17E01248844209D10121F6
:102450008807FFF72BFA00214FF08040FFF726FA9C
:102460000AE00D48844207D101214005FFF71EFA1A
:1024700000216005FFF71AFA10BD000000100140AE
:102480000044004000480040004C00400050004024
:102490000014014000780040007C004070B5024606
:1024A000002400230025002040F66A16B14200D126
:1024B00000BFC1F3421501F01F03012606FA03F322
:1024C000012D02D19689334006E0022D02D1168AF1
:1024D000334001E0968A33400C12012606FA04F4D8
:1024E0001688344013B10CB1012000E0002070BD0B
:1024F000F0B50346002400260025002040F66A17A8
:10250000B94200D100BF1846C1F3421401F01F06C2
:10251000012707FA06F5012C01D10C3004E0022C4A
:1025200001D1103000E014301AB107682F43076062
:1025300002E00768AF430760F0BD00002DE9FF47E8
:1025400005460E460024A14600BFA046B08900B152
:1025500000BF2C8A24F44054F08804432C82AC89B8
:1025600041F20C608443B088318908437189084383
:102570000443AC81AC8A24F44074B0890443AC8237
:102580006846FFF7C3F92048854202D01F488542BC
:1025900002D1DDF80C9001E0DDF80890A88900F484
:1025A000004040B109EBC90000EB09103168490057
:1025B000B0FBF1F707E009EBC90000EB0910316847
:1025C0008900B0FBF1F76420B7FBF0F004012009AB
:1025D000642101FB1078A88900F4004040B132204A
:1025E00000EBC800B0FBF1F000F00700044308E086
:1025F000322000EB08106421B0FBF1F000F00F0076
:1026000004432C81BDE8FF87001001400014014005
:1026100001468888C0F30800704700BFFEE702E06B
:1026200008C8121F08C1002AFAD17047704700205D
:1026300001E001C1121F002AFBD1704770B50024D0
:10264000314800F063F8304A02F50571081F00F0C8
:102650002BF92D4800F0D6F92B480068B0F900009E
:1026600001EE900AF8EEE11AB0EE611A2648D0EDBC
:10267000851AF0EE610AD0ED841AB0EE610A00F01E
:1026800039FA00BF19E02049143101EB041191ED32
:10269000021AF0EE410A1C49143101EB041191EDCC
:1026A000011AB0EE410A04EB84021749543101EBE0
:1026B0000210FEF7B1FF601CC4B2042CE3DB00245F
:1026C00013E004EB84011048543000EB011090ED4E
:1026D0000A0ABDEEC00A10EE100A01B20A48143010
:1026E00000EB04108181601CC4B2042CE9DB064DB0
:1026F000B5F95030B5F94020B5F93010B5F92000E2
:10270000FFF71CFB70BD0000E4060020002100BFA5
:1027100028E001EBC102354B03EBC202B2F94420C1
:1027200000EE102AB8EEC00ADFED310A20EE200AD2
:1027300000F1140202EB011282ED010A01EB8103A8
:1027400000F1540202EB031292ED0E0ADFED290AAA
:1027500020EE200A00F1140202EB011282ED000AC1
:102760004A1CD1B20429D4DB90ED060AB1EE400A2E
:10277000D0ED0A0A30EE200AD0ED0E0A30EE600AE3
:10278000D0ED120A30EE200AF5EE000A20EE200A03
:1027900080ED810A90ED060AD0ED0A0A30EE200A9B
:1027A000D0ED0E0A30EE600AD0ED120A30EE600A6B
:1027B000F5EE000A20EE200A80ED820A90ED060A6E
:1027C000D0ED0A0A30EE200AD0ED0E0A30EE200AD3
:1027D000D0ED120A30EE200AB1EE400ADFED060A13
:1027E00080EE201A80ED831A704700009C010020C3
:1027F0000A01DA3900007A44B81EC53F10B500F06E
:102800009FFB1F49086000F09FFB1D49486000F0D6
:1028100093FB1B49886000240EE004EB84021849F6
:10282000543101EB0210DFED170A9FED170A174A2A
:102830000021FEF7E9FF641C042CEEDB14499FED38
:10284000150A154800F01AFA14499FED120A1248A9
:10285000103000F013FAB0EE080A094880ED8A0A39
:10286000B8EE080A80ED8B0A9FED0D0A80ED8C0A08
:102870009FED0C0A80ED8D0AFFF748FF10BD0000A8
:10288000E40600200000FA4400007A46B031000857
:10289000BC3100086F12833AC8080020C03100081C
:1028A0009A9939409A9939C02DE9F0412DED028B62
:1028B0000746884614461CB117B1B8F1000F03D182
:1028C000BDEC028BBDE8F0812068B0F906000A2853
:1028D00005DC2068B0F9060010F10A0F03DA206861
:1028E000B0F9065000E000252068B0F904000A287D
:1028F00005DC2068B0F9040010F10A0F03DA206843
:10290000B0F9046000E0002600EE105AB8EEC00AEC
:10291000DFED350A20EE208A00EE106AB8EEC00A1C
:10292000DFED320A60EE208A2068007D00F00100B1
:1029300020B194ED8A0AB0EE408A08E02068007D5C
:1029400000F0020018B194ED8B0AB0EE408A2068C6
:10295000007D00F0040020B194ED8C0AF0EE408A76
:1029600008E02068007D00F0080018B194ED8D0AA1
:10297000F0EE408AB0EE480A04F5F27000F054F927
:10298000B0EE680A04F5FA7000F04EF99FED180AEF
:10299000B4EEC08AF1EE10FA0AD29FED160AB4EE38
:1029A000C08AF1EE10FA03DD9FED130A84ED7A0A76
:1029B0009FED120AF4EEC08AF1EE10FA0AD29FEDF2
:1029C000100AF4EEC08AF1EE10FA03DD9FED0A0A58
:1029D00084ED7E0A94ED7A0A87ED000A94ED7E0A72
:1029E00088ED000A00BF6BE7A69BC43B0AD7A3BBD8
:1029F00090C2753D90C275BD00000000CCCC4C3D2E
:102A0000CCCC4CBD10B52DED068B04469FED380A9D
:102A1000B0EE408A9FED360AF0EE408A9FED340A10
:102A2000B0EE40AA94ED840AB0EE408A94ED850A97
:102A3000F0EE408A9FED2E0AB0EE409A9FED2C0AF0
:102A4000F0EE409A6068D0ED580AF1EE600AB0EE00
:102A5000600AFDF703FCB0EE409A6068D0ED580ABA
:102A6000F1EE600AB0EE600AFDF7BCFBF0EE409AB2
:102A700029EE880A09EE680A84ED840A29EE080A1C
:102A800009EEA80A84ED850A94ED881AF0EE410A51
:102A9000606890ED581AB0EE410A04F5CA70FEF76E
:102AA000BBFDB1EE400A84ED860AD4ED8A1AB0EE81
:102AB000611AD4ED8B1AF0EE610AD4ED841AB0EEEF
:102AC000610A00F0EDF884ED840AD4ED8C1AB0EEC2
:102AD000611AD4ED8D1AF0EE610AD4ED851AB0EECC
:102AE000610A00F0DDF884ED850ABDEC068B10BDAF
:102AF00000000000B7EE002AF0EE421A26480068F7
:102B0000007D00F0100020B923480068807A012879
:102B100004D1B7EE002AF0EE421A03E0B0EE002A2C
:102B2000F0EE421AB1EE402A32EE202ADFED1B2AE7
:102B300001EE222A184880ED072A30EE202ADFED28
:102B4000172A01EE222A80ED0B2AB1EE402A32EE3E
:102B5000602ADFED122A01EE222A80ED0F2A30EEE4
:102B6000602ADFED0E2A01EE222A80ED132A0020D2
:102B70000EE00949143101EB001191ED022AC2EE79
:102B8000212A0549143101EB0011C1ED022A401C34
:102B90000428EEDB70470000E40600200AD7A33BC0
:102BA00010B504466FF00400FFF726F9E11704EBB7
:102BB0005171C1F3C701074A11701046007800EB4C
:102BC0004001C1EBC0104FF6FF7101EAC00002499D
:102BD000088010BD10000020120000200146114A9C
:102BE00012784A434FF0E0235A6100229A611A4654
:102BF000126942F001021A6100BF4FF0E022106931
:102C000000F001021AB100F48032002AF5D04FF032
:102C1000E022126922F001024FF0E0231A61002243
:102C20009A6170471000002010EE101A0160816850
:102C300000EE901AC16801EE101A70EE811A8168D8
:102C400000EE901A80EEA11A416800EE901A61EE33
:102C5000200A816801EE101AC16801EE901A31EE67
:102C6000212A01EE101AC1EE021A016801EE101AB3
:102C700041EE810A10EE901A4160704710EE102A62
:102C8000C2600A688260DFED050A10EE902A0260D9
:102C9000DFED020A10EE902A42607047000000004B
:102CA000F0EE401AF4EEE01AF1EE10FA02D2B0EEB5
:102CB000600A7047F4EEC11AF1EE10FA02DDB0EED0
:102CC000410AF6E7B0EE610AF3E7000010B50446EA
:102CD00021460248FFF7FDF910BD00000000014049
:102CE00010B5044621460248FFF7F5F910BD000073
:102CF0000000014000B58BB001210846FEF7B6FD8B
:102D000001211020FEF7B2FD01210846FEF7DEFD8D
:102D1000012208214448FEF70DFC01220E21434800
:102D2000FEF708FC4FF48070099002208DF828000F
:102D300000208DF829008DF82A008DF82B0009A9B4
:102D40003948FEF7AFFB4FF48040099009A9374896
:102D5000FEF7A8FB01210846FEF7C8FD002101206F
:102D6000FEF7C4FD40F2CF700790B320ADF8180015
:102D70000020ADF81A00ADF8200006A92C48FFF796
:102D8000ADF96020ADF804000120ADF80600002088
:102D9000ADF81000ADF808000820ADF812004001B1
:102DA000ADF814000020ADF816004FF47A700390CF
:102DB00001A91F48FFF7FCF801A91D48FFF740F9DA
:102DC00008211B48FFF732F908211948FFF774F969
:102DD00001211748FFF7A4F801211548FFF7BEF8B5
:102DE00001211348FFF7AEF800F026F8012120205A
:102DF000FEF73CFD4FF48060099000208DF828001C
:102E00008DF82A0003208DF8290001208DF82B0071
:102E100009A90848FEF746FB4FF480610548FEF714
:102E2000AEFB0BB000BD00000000024000100240ED
:102E3000000001400014024010B54FF47A710448BC
:102E4000FFF747F94FF47A710148FFF744F910BDD5
:102E50000000014070B500220023046844600C7B30
:102E6000CD7A44EA052404608D7B4C7B45EA04243A
:102E700024B2A0F8444004684568641BC460C46878
:102E80002A4DAC4207DA846B641C8463C46804F581
:102E90000054C4610EE0C46841F64C55AC4207DDF5
:102EA000846B641E8463C468A4F50054C46101E0AB
:102EB000C468C4610568846B05EB443484600468AD
:102EC0008569641B00EE104AB8EEC00ADFED180AEF
:102ED00020EE200A9FED171AC0EE010A846B4FF412
:102EE000B4756C4300EE104AB8EEC00A30EE800AAA
:102EF00080ED100AC669047D651C057500F120058A
:102F000045F82460047D062C01D1002404750022BC
:102F100005E000F1200454F822402344521C062A04
:102F2000F7DB062493FBF4F4C46370BDB4E2FFFF47
:102F30000000B443000000460048704740050020F0
:102F400000487047EC00002000487047B80300209C
:102F500070B504460D4694ED211AF0EE410A28683A
:102F600001EE100AB8EEC11AB0EE410A04F1640095
:102F7000FEF752F984ED5D0A94ED5D1AF0EE410A18
:102F800094ED5C1AB0EE410A04F1B400FEF744FB84
:102F900084ED370A70BD00001CB501214020FEF70A
:102FA00065FC4FF40050009001208DF804000020D3
:102FB0008DF8060003208DF8050001208DF807002C
:102FC00069460348FEF76EFA00F004F81CBD0000E5
:102FD0000018024010B54FF400510248FEF7CFFA36
:102FE00010BD000000180240FDF784F900BFFEE7A5
:102FF0000246501AB0F5805F03DDA0F5F850FF38A7
:1030000005E010F5805F02DA41F6FF73184400EE28
:10301000100AB8EEC00ADFED020A20EE200A70475F
:10302000DB0F493A1CB501218020FEF71FFC3C2034
:10303000009001208DF8040000208DF80600032088
:103040008DF8050001208DF8070069460648FEF757
:1030500029FA002404E0204600F008F8601CC4B2FD
:10306000042CF8DB1CBD0000001C024010B5044617
:10307000032C00DD10BD0420A04081B20248FEF701
:103080007CFA00BFF6E70000001C024010B50446C1
:10309000032C00DD10BD0420A04081B20248FEF7E1
:1030A0006EFA00BFF6E70000001C024010B52422B3
:1030B0000249A1F12400FEF79DFC10BD260100206D
:1030C00010B588B0044601214020FEF7CFFB012156
:1030D0002020FEF7FBFB082209212448FEF72AFAEC
:1030E00008220E212148FEF725FA4FF4844006906D
:1030F00002208DF81C008DF81D0000208DF81E00A8
:1031000001208DF81F0006A91848FEF7CBF902949C
:103110000020ADF80C00ADF80E00ADF81000ADF8D1
:1031200014000C20ADF8120002A91148FFF706FAAE
:1031300001210F48FFF725F940210D48FFF718F945
:10314000012240F225510A48FFF7D2F947208DF8B5
:10315000040003208DF805008DF8060001208DF88D
:10316000070001A8FEF712FA08B010BD00180240CF
:10317000001401400000AA420000000000002041AD
:1031800000401C450000A04100000000000020425B
:1031900000000000000070420000FA440000A0415E
:1031A0000000000000007042000000000000F0413C
:1031B00000606A460000204100000000ABAA2A3EE1
:1031C000ABAAAA3E00000000920E493CB10AC93CDD
:1031D0002BC3163D2EFB483D752B7B3D04A9963D28
:1031E00080B6AF3D36BDC83D2FBCE13D73B2FA3D60
:1031F00087CF093E8340163EB5AB223EA2102F3E3C
:10320000CF6E3B3EC2C5473E0115543E135C603E47
:103210007F9A6C3ECCCF783EC07D823E938E883EB6
:10322000229A8E3E32A0943E86A09A3EE59AA03E17
:10323000128FA63ED47CAC3EEF63B23E2A44B83E29
:10324000491DBE3E15EFC33E53B9C93ECA7BCF3EB2
:103250004136D53E80E8DA3E4F92E03E7533E63E99
:10326000BBCBEB3EEA5AF13ECBE0F63E275DFC3E9F
:10327000E4E7003F3D9C033F824B063F9BF5083F40
:103280006B9A0B3FDA390E3FCDD3103F2A68133FBC
:10329000D9F6153FC07F183FC6021B3FD17F1D3FA7
:1032A000CBF61F3F9967223F25D2243F5636273F52
:1032B0001594293F4AEB2B3FDE3B2E3FBB85303F29
:1032C000C9C8323FF304353F233A373F4268393F9C
:1032D0003B8F3B3FF9AE3D3F67C73F3F70D8413F13
:1032E00001E2433F03E4453F65DE473F12D1493FDA
:1032F000F8BB4B3F029F4D3F207A4F3F3D4D513F22
:103300004918533F31DB543FE595563F5348583FEA
:103310006AF2593F1A945B3F532D5D3F05BE5E3FF5
:103320002146603F97C5613F5A3C633F59AA643FBD
:10333000880F663FD86B673F3CBF683FA7096A3F6D
:103340000C4B6B3F5E836C3F93B26D3F9ED86E3FDC
:1033500073F56F3F0809713F5213723F4714733F73
:10336000DD0B743F0BFA743FC6DE753F07BA763F3C
:10337000C58B773FF853783F9812793F9DC7793FC7
:1033800002737A3FBE147B3FCDAC7B3F283B7C3F32
:10339000C9BF7C3FAC3A7D3FCCAB7D3F23137E3F22
:1033A000B0707E3F6DC47E3F580E7F3F6D4E7F3FB5
:1033B000AB847F3F0FB17F3F97D37F3F43EC7F3F8D
:1033C00011FB7F3F0000803F11FB7F3F43EC7F3FBD
:1033D00097D37F3F0FB17F3FAB847F3F6D4E7F3FE1
:1033E000580E7F3F6DC47E3FB0707E3F23137E3FFB
:1033F000CCAB7D3FAC3A7D3FC9BF7C3F283B7C3F97
:10340000CDAC7B3FBE147B3F02737A3F9DC7793FB3
:103410009812793FF853783FC58B773F07BA763FCC
:10342000C6DE753F0BFA743FDD0B743F4714733FE4
:103430005213723F0809713F73F56F3F9ED86E3F7C
:1034400093B26D3F5E836C3F0C4B6B3FA7096A3FA5
:103450003CBF683FD86B673F880F663F59AA643FFF
:103460005A3C633F97C5613F2146603F05BE5E3FC2
:10347000532D5D3F1A945B3F6AF2593F5348583FC2
:10348000E595563F31DB543F4918533F3D4D513F81
:10349000207A4F3F029F4D3FF8BB4B3F12D1493F2F
:1034A00065DE473F03E4453F01E2433F70D8413FBB
:1034B00067C73F3FF9AE3D3F3B8F3B3F4268393FD7
:1034C000233A373FF304353FC9C8323FBB85303F0D
:1034D000DE3B2E3F4AEB2B3F1594293F5636273FC4
:1034E00025D2243F9967223FCBF61F3FD17F1D3F56
:1034F000C6021B3FC07F183FD9F6153F2A68133F0D
:10350000CDD3103FDA390E3F6B9A0B3F9BF5083F46
:10351000824B063F3D9C033FE4E7003F275DFC3EB6
:10352000CBE0F63EEA5AF13EBBCBEB3E7533E63ECE
:103530004F92E03E80E8DA3E4136D53ECA7BCF3E30
:1035400053B9C93E15EFC33E491DBE3E2A44B83E9D
:10355000EF63B23ED47CAC3E128FA63EE59AA03E0D
:1035600086A09A3E32A0943E229A8E3E938E883E4A
:10357000C07D823ECCCF783E7F9A6C3E135C603E2D
:103580000115543EC2C5473ECF6E3B3EA2102F3EB2
:10359000B5AB223E8340163E87CF093E73B2FA3D5B
:1035A0002FBCE13D36BDC83D80B6AF3D04A9963D78
:1035B000752B7B3D2EFB483D2BC3163DB10AC93C04
:1035C000920E493C00000000920E49BCB10AC9BCF1
:1035D0002BC316BD2EFB48BD752B7BBD04A996BD24
:1035E00080B6AFBD36BDC8BD2FBCE1BD73B2FABD5C
:1035F00087CF09BE834016BEB5AB22BEA2102FBE38
:10360000CF6E3BBEC2C547BE011554BE135C60BE43
:103610007F9A6CBECCCF78BEC07D82BE938E88BEB2
:10362000229A8EBE32A094BE86A09ABEE59AA0BE13
:10363000128FA6BED47CACBEEF63B2BE2A44B8BE25
:10364000491DBEBE15EFC3BE53B9C9BECA7BCFBEAE
:103650004136D5BE80E8DABE4F92E0BE7533E6BE95
:10366000BBCBEBBEEA5AF1BECBE0F6BE275DFCBE9B
:10367000E4E700BF3D9C03BF824B06BF9BF508BF3C
:103680006B9A0BBFDA390EBFCDD310BF2A6813BFB8
:10369000D9F615BFC07F18BFC6021BBFD17F1DBFA3
:1036A000CBF61FBF996722BF25D224BF563627BF4E
:1036B000159429BF4AEB2BBFDE3B2EBFBB8530BF25
:1036C000C9C832BFF30435BF233A37BF426839BF98
:1036D0003B8F3BBFF9AE3DBF67C73FBF70D841BF0F
:1036E00001E243BF03E445BF65DE47BF12D149BFD6
:1036F000F8BB4BBF029F4DBF207A4FBF3D4D51BF1E
:10370000491853BF31DB54BFE59556BF534858BFE6
:103710006AF259BF1A945BBF532D5DBF05BE5EBFF1
:10372000214660BF97C561BF5A3C63BF59AA64BFB9
:10373000880F66BFD86B67BF3CBF68BFA7096ABF69
:103740000C4B6BBF5E836CBF93B26DBF9ED86EBFD8
:1037500073F56FBF080971BF521372BF471473BF6F
:10376000DD0B74BF0BFA74BFC6DE75BF07BA76BF38
:10377000C58B77BFF85378BF981279BF9DC779BFC3
:1037800002737ABFBE147BBFCDAC7BBF283B7CBF2E
:10379000C9BF7CBFAC3A7DBFCCAB7DBF23137EBF1E
:1037A000B0707EBF6DC47EBF580E7FBF6D4E7FBFB1
:1037B000AB847FBF0FB17FBF97D37FBF43EC7FBF89
:1037C00011FB7FBF000080BF11FB7FBF43EC7FBFB9
:1037D00097D37FBF0FB17FBFAB847FBF6D4E7FBFDD
:1037E000580E7FBF6DC47EBFB0707EBF23137EBFF7
:1037F000CCAB7DBFAC3A7DBFC9BF7CBF283B7CBF93
:10380000CDAC7BBFBE147BBF02737ABF9DC779BFAF
:10381000981279BFF85378BFC58B77BF07BA76BFC8
:10382000C6DE75BF0BFA74BFDD0B74BF471473BFE0
:10383000521372BF080971BF73F56FBF9ED86EBF78
:1038400093B26DBF5E836CBF0C4B6BBFA7096ABFA1
:103850003CBF68BFD86B67BF880F66BF59AA64BFFB
:103860005A3C63BF97C561BF214660BF05BE5EBFBE
:10387000532D5DBF1A945BBF6AF259BF534858BFBE
:10388000E59556BF31DB54BF491853BF3D4D51BF7D
:10389000207A4FBF029F4DBFF8BB4BBF12D149BF2B
:1038A00065DE47BF03E445BF01E243BF70D841BFB7
:1038B00067C73FBFF9AE3DBF3B8F3BBF426839BFD3
:1038C000233A37BFF30435BFC9C832BFBB8530BF09
:1038D000DE3B2EBF4AEB2BBF159429BF563627BFC0
:1038E00025D224BF996722BFCBF61FBFD17F1DBF52
:1038F000C6021BBFC07F18BFD9F615BF2A6813BF09
:10390000CDD310BFDA390EBF6B9A0BBF9BF508BF42
:10391000824B06BF3D9C03BFE4E700BF275DFCBEB2
:10392000CBE0F6BEEA5AF1BEBBCBEBBE7533E6BECA
:103930004F92E0BE80E8DABE4136D5BECA7BCFBE2C
:1039400053B9C9BE15EFC3BE491DBEBE2A44B8BE99
:10395000EF63B2BED47CACBE128FA6BEE59AA0BE09
:1039600086A09ABE32A094BE229A8EBE938E88BE46
:10397000C07D82BECCCF78BE7F9A6CBE135C60BE29
:10398000011554BEC2C547BECF6E3BBEA2102FBEAE
:10399000B5AB22BE834016BE87CF09BE73B2FABD57
:1039A0002FBCE1BD36BDC8BD80B6AFBD04A996BD74
:1039B000752B7BBD2EFB48BD2BC316BDB10AC9BC00
:1039C000920E49BC00000080E83900080000002089
:1039D000240000001E2600080C3A000824000020E5
:1039E000040D00002E260008000000000102030460
:1039F000010203040607080900000000000000009F
:0C3A000000007A4400007A44000000003E
:04000005080001AD41
:00000001FF
