:020000040800F2
:1000000090120020C10100083D230008451D000892
:1000100039230008DF080008473C00080000000002
:10002000000000000000000000000000AF2C0008ED
:1000300009170008000000001D260008D53100083F
:10004000DB010008DB010008DB010008DB01000820
:10005000DB010008DB010008DB010008DB01000810
:10006000DB010008DB010008DB010008DB01000800
:10007000DB010008DB010008DB010008DB010008F0
:10008000DB010008DB010008DB0100082109000892
:10009000E5080008DB010008DB0100080B17000879
:1000A000DB010008DB010008DB010008DB010008C0
:1000B000DB010008DB010008DB010008DB010008B0
:1000C000DB010008DB010008DB010008DB010008A0
:1000D000DB01000831380008DB010008DB01000803
:1000E000DB010008DB010008DB010008DB01000880
:1000F000DB010008DB010008DB010008DB01000870
:10010000DB010008DB010008DB010008DB0100085F
:10011000DB010008DB01000885330008DB01000873
:10012000DB010008DB010008DB010008DB0100083F
:10013000DB010008DB010008DB010008DB0100082F
:10014000DB010008DB010008DB010008DB0100081F
:1001500005140008DB010008DB0100081539000860
:10016000DB010008DB010008DB010008DB010008FF
:10017000DB010008DB010008DB010008DB010008EF
:10018000DB010008DB010008A1370008DB010008E3
:10019000DB010008DB010008DB010008DB010008CF
:1001A0000000000000000000DB010008DFF80CD0B8
:1001B00000F0F6F8004800470956000890120020A9
:1001C0000648804706480047FEE7FEE7FEE7FEE7F1
:1001D000FEE7FEE7FEE7FEE7FEE7FEE7D9310008AF
:1001E000AD0100089FED1A1AF5EE000A40EE010A73
:1001F000BDEEE00AF5EEC00A10EE100AF1EE10FABC
:1002000038BF401E00EE100A1349F7EE001AB8EE90
:10021000C00A30EEC00ADFED0F0A20EE200AFCEE25
:10022000C00A10EE900AC0F3080000EE900A01EB3D
:100230008000F8EE600A90ED011A70EE600A90ED11
:10024000000A71EEE01A21EE800A00EE810A704782
:1002500083F9223E000000440C680008DFED190A13
:10026000B5EEC00A60EE200ABDEEE01A11EE100AEB
:10027000F1EE10FA38BF401E00EE100A1349F7EEF7
:10028000001AB8EEC00A30EEC00ADFED0F0A60EEC9
:10029000200ABCEEE00A10EE100AC0F3080000EEDF
:1002A000100A01EB8000B8EE400A90ED011A70EEE2
:1002B000C00A90ED000A71EEE01A21EE800A00EE0D
:1002C000810A704783F9223E000000440C68000850
:1002D00040EA01039B0703D009E008C9121F08C0C8
:1002E000042AFAD203E011F8013B00F8013B521E48
:1002F000F9D27047D2B201E000F8012B491EFBD2BF
:1003000070470022F6E710B513460A460446194620
:10031000FFF7F0FF204610BD00F0004230F0004033
:100320000AD0C10D01F56071C0F3160042EA015117
:10033000C208400711437047002001467047000083
:1003400030B5041E71F1000404DB4FF0004440425C
:1003500064EB0101141E73F1000405DB1C464FF031
:100360000043524263EB04038B4208BF824230BD1C
:1003700030B5041E71F1000404DB4FF0004440422C
:1003800064EB0101141E73F1000405DB1C464FF001
:100390000043524263EB0403994208BF904230BDD0
:1003A000064C074D06E0E06840F0010394E80700C2
:1003B00098471034AC42F6D3FFF7FCFE10700008EB
:1003C0003070000810B52DED028BB0EE408AB0EE13
:1003D000480A03F04DFCBDEC028B10BD10B52DEDAD
:1003E000028BB0EE408AF0EE608AF0EE680AB0EE62
:1003F000480A03F0D3FCBDEC028B10BD10B52DED07
:10040000028BB0EE408AB0EE480AFFF7EBFEBDEC7F
:10041000028B10BDF0EE400AF5EEC00AF1EE10FAC4
:1004200002DDB0EE600A7047B1EE600AFBE7000043
:1004300018B19FED020A80ED000A7047000000002D
:1004400018B19FED020A80ED000A7047DF8FB441BA
:1004500070B52DED0C8B84B006460C4615469FED0D
:10046000990AF0EE408A9FED970AB0EE409A9FED10
:10047000950AF0EE40BA9FED930AF0EE409A9FED98
:10048000910AB0EE40AA0EB104B11DB904B0BDECA2
:100490000C8B70BD8C48FFF7CBFF8C48FFF7D0FF6B
:1004A0008A48D0ED000A9FED8A1A60EE810AB0EE0C
:1004B000600A00F039F9F0EE408A28EEA80AF0EE62
:1004C000408A8248D0ED000AB0EE001A60EE810A40
:1004D0009FED7F1A60EE810AB0EE600A00F024F909
:1004E000B0EE409A29EE090AB0EE409ADFED790AA3
:1004F000B7EE000A00EEA80ADFED770A00EEC90A9F
:10050000DFED760A20EE200A754880ED000A6E487D
:1005100090ED000ADFED730A80EE201AB7EE000AB4
:1005200031EE000A20EE000A6D48D0ED000A80EEA0
:10053000801A6D4880ED001A94ED000AB5EEC00AED
:10054000F1EE10FA0DD194ED010AB5EEC00AF1EE0C
:1005500010FA06D194ED020AB5EEC00AF1EE10FAD7
:1005600046D09FED580AB0EE408A002001900290DC
:100570000390D4ED000A60EEA00A94ED011AD4EDC8
:10058000011A41EE210A94ED021AD4ED021A41EE4D
:10059000210AB0EE600A00F0A9F8B0EE408A94EDAE
:1005A000000A20EE080A8DED010A94ED010A20EE02
:1005B000080A8DED020A94ED020A20EE080A8DED7C
:1005C000030ADDED010AF1EE600AB0EE600AFFF702
:1005D000F9FEF0EE409A9DED031AF0EE410A9DED12
:1005E000021AB0EE410AFFF7F9FEB0EE40AA07E0AA
:1005F0009FED340AF0EE409A9FED320AB0EE40AA29
:1006000095ED000AB5EEC00AF1EE10FA0DD195EDA8
:10061000010AB5EEC00AF1EE10FA06D195ED020A14
:10062000B5EEC00AF1EE10FA3CD0B0EE690A00F067
:100630007BF8B0EE408AB0EE690AFFF7DFFEB0EE5D
:1006400040DAB0EE4A0A00F06FF8F0EE40AAB0EEE1
:100650004A0AFFF7D3FEB0EE40BA28EE2A0AD5EDDB
:10066000010A20EE200AD5ED000A0DEE200A68EE00
:100670000B0A95ED021A00EE810AB0EE40CA95ED24
:10068000010A20EE0B0AD5ED020A0AEEE00AF0EEAE
:1006900040CAF0EE6C0AB0EE4C0AFFF79FFEF0EE97
:1006A00040BA03E09FED070AF0EE40BAB0EE4A1AF6
:1006B000F0EE690AB0EE6B0A304603F07BFE00BF35
:1006C000E4E6000000000000F0000020F40000203C
:1006D00035FA8E3CC1BFAD3B9DF8C5362F7C1C4121
:1006E000F8000020506CC24AFC000020F0EE400AE6
:1006F000F6EE001A60EEA11AB0EE611AB0EE600AD2
:1007000010EE100A0749A1EB600000EE100A21EE7E
:10071000002AF7EE081A42EE401A61EE801AB0EE97
:10072000610A7047DF59375F10B52DED028BB0EECF
:10073000408AB0EE480AFFF791FDBDEC028B10BD78
:100740002DE9F0412DED028B9AB00546B0EE408ABE
:100750000E4617469846002017901890199014904E
:10076000159016904DB146B13FB1B8F1000F04D0CD
:10077000B5EEC08AF1EE10FA05D100201AB0BDEC3A
:10078000028BBDE8F08196ED000A8DED170A96ED1B
:10079000010A8DED180A96ED020A8DED190A97ED02
:1007A000000A8DED140A97ED010A8DED150A97EDFB
:1007B000020A8DED160A17AA14A9284603F04CFC6C
:1007C000402104A8FFF79DFD0020009001900290B9
:1007D0000390002417A904A805F0BEFD00BF30E077
:1007E00004A800EB041090ED000AD5ED000A20EEFD
:1007F000200A04A800EB0410D0ED010A95ED011ABF
:1008000000EE810A04A800EB0410D0ED020A95ED79
:10081000021A00EE810A04A800EB0410D0ED030ACE
:1008200095ED031A00EE810A20EE080AF0EE000AA8
:1008300080EE201A684600EB840080ED001A601CF0
:10084000C4B2042CCCDB002410E005EB840090ED56
:10085000000A684600EB8400D0ED000A30EE200A62
:1008600005EB840080ED000A601CC4B2042CECDBB4
:10087000284605F0E5F8012080E710B5B42004F023
:10088000E5F94FF4E13005F05DFC4FF4407001F004
:1008900093FD04F057FE01F065FB00F0BFF800F097
:1008A000A1FF02F03BFD05F051F901F039FB03F027
:1008B000D1FF00F095FC02F00DFF05F07DF804F08B
:1008C0001BFB002408E0204605F0AAF840F2C520F2
:1008D00004F0F6F9601CC4B2042CF4DB10BD00BFB8
:1008E000FEE7000000B585B002210B4800F0ECF9EE
:1008F00078B10421084800F03DF80849064800F0A6
:100900001DF86A460021044800F001FB684600F02B
:1009100019FC05B000BD0000006400400800003272
:1009200010B50121044800F0CFF918B101210248A7
:1009300000F020F810BD00000064004000220C4BC5
:10094000994202D10023836111E0C1F3130201F047
:1009500000730BB1C2600AE001F080630BB1026169
:1009600005E001F000630BB1826000E04260704777
:100970007000F030B1F5007F3AD00FDC202928D08C
:1009800006DC01291CD004291DD0082940D11DE016
:10099000402921D0B1F5807F3AD126E0B1F5004F52
:1009A00031D006DCB1F5806F25D0B1F5006F2FD1C5
:1009B00024E0B1F5803F12D0B1F5003F28D111E01D
:1009C000154A826025E00822C26022E01022C2603F
:1009D0001FE0082202611CE01022026119E00822D7
:1009E000426016E01022426013E00422426010E0F0
:1009F000042242600DE0042242600AE0002282618B
:100A00000422426005E0002282610422426000E08C
:100A100000BF00BF704700000101010000B587B0B2
:100A20000121082001F0FCFD0121480601F008FE2B
:100A300009220021404801F055F9092201213E48D0
:100A400001F050F90320029002208DF80C0002A959
:100A5000394801F0FFF814208DF8040002208DF8C9
:100A6000050001208DF806008DF8070001A801F0AF
:100A700067FC13208DF8040001208DF805008DF827
:100A800006008DF8070001A801F05AFC2B4800F081
:100A900057F804A800F0B3FA00208DF816008DF87E
:100AA00017008DF818008DF819008DF81A00012034
:100AB0008DF81B0000208DF812008DF81300022025
:100AC0008DF8140004208DF815000520ADF81000F5
:100AD00004A91A4800F091F901220221174800F0F8
:100AE00083F901221146154800F07EF940F20121F8
:100AF000002000F041F840F20221012000F03CF813
:100B000040F20321022000F037F84FF40171032076
:100B100000F032F840F20521042000F02DF840F2F8
:100B20000621052000F028F840F20721062000F0F9
:100B300023F807B000BD0000000C02400064004034
:100B400010B504460B48844209D10121480601F042
:100B500087FD00214FF0007001F082FD08E00121C7
:100B6000880601F07DFD00214FF0806001F078FDE6
:100B700010BD0000006400407FB504460D468DF8AE
:100B80000A4000208DF80B0001208DF80C004FF674
:100B9000FF7000EA4510ADF800000020ADF802003B
:100BA0004FF6F070ADF804000020ADF80600ADF887
:100BB000080001208DF80D00684600F001F87FBDA7
:100BC00010B50021837A012202FA03F13D4A12682E
:100BD00042F001023B4B1A603A4A1C3212688A43C7
:100BE000384B1C331A60027BCAB9364A0C32126881
:100BF0008A43344B0C331A604288C38842EA034369
:100C0000304A4032847A42F834300288838842EA9B
:100C100003432C4A4032847A02EBC4025360027BC5
:100C2000012A19D1274A0C3212680A43254B0C338A
:100C30001A604288038842EA0343224A4032847A97
:100C400042F83430C288838842EA03431D4A403266
:100C5000847A02EBC4025360C27A3AB9194A121D6F
:100C600012688A43174B1B1D1A6006E0154A121DB5
:100C700012680A43134B1B1D1A60028932B9114ACC
:100C8000143212688A430F4B14331A600289012A06
:100C900006D10C4A143212680A430A4B14331A6004
:100CA000427B012A06D1074A1C3212680A43054BCF
:100CB0001C331A60034A126822F00102014B1A60C9
:100CC00010BD00000066004070B504460D460026C9
:100CD00060692840002871D0B5F5807F5CD010DCB9
:100CE000082D35D006DC012D20D0022D24D0042D76
:100CF00072D127E0102D31D0202D35D0402D6BD171
:100D000038E0B5F5004F60D009DCB5F5007F49D07B
:100D1000B5F5806F4CD0B5F5006F5DD14FE0B5F5FE
:100D2000803F2DD0B5F5003F56D12FE0A0682D496A
:100D300000F04CFA064651E0E068032100F046FA64
:100D400006464BE0E068082100F040FA064645E020
:100D5000E068102100F03AFA06463FE020690321DE
:100D600000F034FA064639E02069082100F02EFA36
:100D7000064633E02069102100F028FA06462DE0EF
:100D80006068082100F022FA064627E0606810211A
:100D900000F01CFA064621E0A069012100F016FAD5
:100DA00006461BE0A069022100F010FA064615E095
:100DB000A069042100F00AFA06460FE00FE0A069DE
:100DC000702100F003FA064608E06068042100F094
:100DD000FDF9064602E0FFE7002600BF00E000261E
:100DE000304670BD010101001AB143690B434361F4
:100DF00002E043698B434361704730B502460020EF
:100E00000023146824F002041460146844F0010400
:100E1000146000E05B1C546804F001041CB94FF638
:100E2000FF74A342F6D1546804F001040CB9002009
:100E30006CE08C79012C04D1146844F080041460B7
:100E400003E0146824F080041460CC79012C04D1F0
:100E5000146844F04004146003E0146824F0400473
:100E600014600C7A012C04D1146844F0200414603E
:100E700003E0146824F0200414604C7A012C04D19F
:100E8000146844F01004146003E0146824F01004A3
:100E900014608C7A012C04D1146844F008041460A6
:100EA00003E0146824F008041460CC7A012C04D107
:100EB000146844F00404146003E0146824F004048B
:100EC00014608C78A407CD7844EA05640D7944EA6F
:100ED00005444D7944EA05540D886D1E2C43D461B8
:100EE000146824F001041460002300E05B1C5468C3
:100EF00004F001041CB14FF6FF74A342F6D154680C
:100F000004F001040CB1002000E0012030BD10B558
:100F100000F5D87303EB01131B6803F0040313728D
:100F2000137A53B900F5D87303EB01131B6840F231
:100F3000FF7404EA5353136009E000F5D87303EB20
:100F400001131B686FF0604404EAD303536000F59B
:100F5000D87303EB01131B6803F00203537200F50F
:100F6000D87303EB01135B6803F00F03937200F572
:100F7000D87303EB01135B681B0AD37400F5D873B5
:100F800003EB01139B68D37200F5D87303EB0113D5
:100F90009B681C0A147300F5D87303EB01139B685C
:100FA0001C0C547300F5D87303EB01139B681B0EE4
:100FB000937300F5D87303EB0113DB68D37300F56B
:100FC000D87303EB0113DB681C0A147400F5D873A3
:100FD00003EB0113DB681C0C547400F5D87303EBAE
:100FE0000113DB681B0E937421B9C36843F020031F
:100FF000C36003E0036943F02003036110BD0021D7
:101000008171C171017241728172C1728170C1704E
:10101000032101710221417101210180704710B546
:1010200002460020936803F08063B3F1806F00D123
:1010300010E0936803F00063B3F1006F01D1012069
:1010400008E0936803F08053B3F1805F01D1022080
:1010500000E00420042874D002F5C07303EB0013F1
:101060001B6803F0010402F5C07303EB00131C605E
:101070000B7A7BB94B7A0C8843EA445302F5C0746F
:1010800004EB00142468234302F5C07404EB00143D
:10109000236010E00B7A4C6843EAC4034C7A234384
:1010A00002F5C07404EB00142468234302F5C074F5
:1010B00004EB001423608B7A03F00F038B7202F5AC
:1010C000C07303EB00135B6823F00F0402F5C073D9
:1010D00003EB00135C6002F5C07303EB00135B6865
:1010E0008C7A234302F5C07404EB001463608B7B9D
:1010F0001C064B7B44EA03440B7B44EA0323CC7A73
:10110000234302F5C07404EB0014A3608B7C1C061F
:101110004B7C44EA03440B7C44EA0323CC7B23430B
:1011200002F5C07404EB0014E36002F5C07303EB36
:1011300000131B6843F0010402F5C07303EB0013B6
:101140001C6010BD10B504462068A0F201200828DC
:1011500030D2DFE800F004090F15201B252A2146B4
:10116000154803F079FF25E021461348443003F089
:1011700073FF1FE021461048883003F06DFF19E02F
:1011800021460D48CC3003F067FF13E021460B48A1
:1011900003F062FF0EE02146094803F05DFF09E01D
:1011A0002146084803F058FF04E02146064803F0B2
:1011B00053FF00BF00BF10BDE80200203C04002028
:1011C000F803002080040020C40400200246002010
:1011D00002EA01030BB1012000E00020704700008B
:1011E00010B52F4800F006FB04F042F82C490860C7
:1011F0002C48C8602C48C1F89401DFED2C0A9FED03
:101200002C0A2C4A00212648C03001F0D7F9DFED26
:101210002A0AB3EE020A294A00212148703001F05F
:10122000CDF9B1EE0C0A1E4880ED590AB9EE0C0A50
:1012300080ED5A0A4FF48051A0F862119FED1E0A0A
:1012400080ED5C0A90ED5F0A80ED600ADFED170A21
:101250009FED170A1A4A002100F5127001F0AEF94D
:10126000DFED150AB2EE0E0A164A0021164801F00B
:10127000A5F99FED160A0A4880EDBB0A9FED140AF6
:1012800080EDBC0A4FF48051A0F8EA129FED0A0AE3
:1012900080EDBE0A90EDC10A80EDC20A10BD0000CB
:1012A00008050020F80300203C04002000409C4575
:1012B0000060EA465C640008000000006864000802
:1012C000746400088064000800070020CDCC4C3F07
:1012D000CDCCCCBF10B5184800F08CFA164800F001
:1012E00005FC15480C3004F045F8144804F042F8A9
:1012F000114890ED3A0ABDEEC00A10EE100A00B295
:101300000F4908800C4890ED9C0ABDEEC00A10EE13
:10131000100A00B20B49088004F0E8FC0A49088072
:101320000846B0F900200748B0F900100448B0F9A9
:10133000000001F09FFD10BD080500209C06002064
:1013400044000020460000204800002010B504465C
:10135000207D00F04000D8B1264890ED000ADFED76
:10136000260AB4EEE00AF1EE10FA07DD90ED000A6D
:10137000F2EE040A30EE600A80ED000A1D4890ED9E
:10138000000ABDEEC00A10EE100A00B2208004E090
:101390009FED1A0A174880ED000A207D00F08000BA
:1013A000D8B1144890ED010ADFED150AB4EEE00A59
:1013B000F1EE10FA07D290ED010AF2EE040A30EED7
:1013C000200A80ED010A0B4890ED010ABDEEC00A2B
:1013D00010EE100A00B2208004E09FED080A0548D4
:1013E00080ED010A00F064FE03F09AF8FFF772FF47
:1013F00010BD000038000020000025C400000000DF
:101400000000254410B50649064800F00FF928B140
:101410000349044800F008F804F064F910BD000026
:1014200000080020886402400246094B9A4201D21B
:10143000084801E00648103801F000531BB1064B84
:101440000B40C36002E0044B0B4083607047000018
:1014500010640240006002407D0F7D0F21B10268E0
:1014600042F00102026003E0026822F00102026021
:1014700070470000016821F0010101600021016056
:1014800041608160C1600161212141614A49884216
:1014900004D13D21484A103A91608CE04649183108
:1014A000884205D14FF47461434A103A916082E05A
:1014B00041493031884205D14FF474113E4A103A07
:1014C000916078E03C494831884205D14FF0746121
:1014D000394A103A91606EE037496031884204D150
:1014E0003649354A103AD16065E03349783188424F
:1014F00004D13349304A103AD1605CE02E49903132
:10150000884204D12F492C4A103AD16053E02A492D
:10151000A831884205D14FF03D51274A103AD16099
:1015200049E02949884204D13D21274A083A1160FF
:1015300041E025491831884205D14FF47461224AAF
:10154000083A116037E020493031884205D14FF424
:1015500074111D4A083A11602DE01B494831884238
:1015600005D14FF07461184A083A116023E016491A
:101570006031884204D11149134A121F11601AE0E8
:1015800011497831884204D10D490F4A121F116068
:1015900011E00D499031884204D10A490A4A121FCC
:1015A000116008E00849A831884204D14FF03D514C
:1015B000054A121F11607047106002403D00002074
:1015C000400F002000003D201064024021B102685D
:1015D00042F48022026003E0026822F4802202606A
:1015E000704722B1036843F40023036003E00368FB
:1015F00023F40023036001617047014600200A685C
:1016000002F001020AB1012000E00020704701460B
:10161000486880B27047014600200A6802F4002240
:101620000AB1012000E000207047000030B50346F9
:101630000A46002000240B4DAB4201D20A4901E0CA
:101640000849103902F000550DB14C6800E00C68F3
:10165000064D2C4004EA02050DB1012000E00020F7
:1016600030BD000010640240006002407D0F7D0F1D
:1016700010B501F080034BB122B1436943F0800300
:10168000436103E0436923F08003436180290BD069
:101690002AB1036801F01E042343036004E00368D9
:1016A00001F01E04A343036010BD000010B500222A
:1016B0000268134B1A40CC680B6823434C692343E0
:1016C0008C692343CC6923430C6A23434C6A23432C
:1016D0008C6A23434C6B23438C6B23431A43026075
:1016E000426922F00702D1E90B3423431A434261D5
:1016F0000B6943604B6883608B68C36010BD00005A
:101700003F801CF041607047704710B54FF4807007
:1017100000F012F840B14FF4807000F007F803F0C9
:10172000E9FF102001F0CCF910BD0000014908606C
:1017300070470000143C014001460020034A126833
:101740000A400AB1012000E000207047143C01402B
:10175000002123498279002A3AD00A461268036898
:101760009A430B461A600A1D126803689A430B1DC0
:101770001A60027911440A6803681A430A60184A19
:101780000832126803689A43154B08331A601A1D11
:10179000126803689A43124B0C331A604279102A7C
:1017A0000ED11A1F126803681A430D4B08331A60D2
:1017B0001A1D126803681A43094B0C331A600DE0B6
:1017C0000749427911440A6803681A430A6005E030
:1017D000027911440A6803689A430A60704700005E
:1017E000003C014047F6FF70014908607047000067
:1017F0002408004010B5044604B910BDD4F8942163
:10180000126891B2164AB2F8EA0203F037FF84ED8B
:10181000BD0AD4F89401B0F9400000EE100AB8EE09
:10182000C00ADFED100A20EE200A84EDC10AE2684A
:10183000126891B20A4AB2F8620103F01FFF84ED08
:101840005B0AE068B0F9400000EE100AB8EEC00A8A
:10185000DFED040A20EE200A84ED5F0A00BFCCE72A
:10186000080500205077D63DB0EE401AF0EE601A21
:1018700010B99FED9C0A704790ED120A80ED130A93
:1018800090ED110A80ED120AC0ED081A80ED091AD8
:1018900031EEC10A80ED110AD0ED110AF5EEC00A51
:1018A000F1EE10FA0FDD9FED900A30EE600AB4EE13
:1018B000E00AF1EE10FA06D29FED8B0A30EEC00A74
:1018C00080ED110A18E0F5EEC00AF1EE10FA11D21F
:1018D0009FED850A30EE800AB1EE602AB4EEC20AAE
:1018E000F1EE10FA06D29FED800A30EE800A80ED0C
:1018F000110A01E0C0ED110A90ED110AB1EE400AA3
:1019000080ED110A017800297FD190ED010A90ED58
:10191000112A20EE020A80ED0B0A90ED0C0A90EDE0
:10192000022AD0ED112A02EE220A80ED0C0A90ED77
:101930000F0A80ED100A90ED0E0A80ED0F0A90ED6F
:10194000110A90ED122A30EE420A80ED0E0A90ED57
:10195000030A90ED0E2A20EE020A80ED0D0A90EDAA
:101960000C0A90ED052AB4EEC20AF1EE10FA02D28A
:1019700090ED0C0A01E090ED050A80ED0C0A90ED67
:101980000C0A90ED052AB1EE422AB4EEC20AF1EE3D
:1019900010FA02DD90ED0C0A03E090ED050AB1EEBD
:1019A000400A80ED0C0A90ED0B0A90ED0C2A30EE07
:1019B000020A90ED0D2A30EE020A80ED0A0A90ED3F
:1019C0000A0A90ED042AB4EEC20AF1EE10FA02D22D
:1019D00090ED0A0A01E090ED040A80ED0A0A90ED0C
:1019E0000A0A90ED042AB1EE422AB4EEC20AF1EEE0
:1019F00010FA03DD90ED0A0A04E006E090ED040A17
:101A0000B1EE400A80ED0A0A68E00178012965D14B
:101A100090ED110A90ED122A30EE420A90ED012A63
:101A200020EE020A80ED0B0A90ED020A90ED112AD9
:101A300020EE020A80ED0C0A90ED0F0A80ED100AEC
:101A400090ED0E0A80ED0F0A90ED110A90ED122A2A
:101A5000F0EE002A02EEC20A90ED132A30EE020ADE
:101A600080ED0E0A90ED030A90ED0E2A20EE020A98
:101A700080ED0D0A90ED0B0A90ED0C2A30EE020A73
:101A800090ED0D2A30EE020A90ED0A2A30EE020A9D
:101A900080ED0A0A90ED0A0A90ED042AB4EEC20A1B
:101AA000F1EE10FA02D290ED0A0A01E090ED040A7C
:101AB00080ED0A0A90ED0A0A90ED042AB1EE422A5E
:101AC000B4EEC20AF1EE10FA02DD90ED0A0A03E06C
:101AD00090ED040AB1EE400A80ED0A0A90ED0A0A80
:101AE000C9E6000000000000DB0FC9401CB5044639
:101AF00004B91CBD9FED0D0A8DED010A9FED0B0A87
:101B00008DED000A2246694601A803F0B9FB9DED60
:101B1000010A04F10C0000F00BF89DED000A04F539
:101B2000CA7000F005F800BFE3E700000000000005
:101B300000B97047D0ED590A70EE800AC0ED590A1D
:101B4000D0ED590A9FED1E1AF4EEC10AF1EE10FA1B
:101B500008DDD0ED590A9FED1B1A70EEC10AC0EDE9
:101B6000590A10E0D0ED590A9FED171AF4EEC10A98
:101B7000F1EE10FA07D2D0ED590A9FED121A70EE6D
:101B8000810AC0ED590AD0ED590A90ED561AF4EECB
:101B9000C10AF1EE10FA04DDD0ED560AC0ED590A83
:101BA0000CE0D0ED590A90ED571AF4EEC10AF1EEAF
:101BB00010FA03D2D0ED570AC0ED590A00BFB8E7BA
:101BC000DB0F4940DB0FC940DB0F49C000B585B0D2
:101BD0000121022000F024FD0121880300F050FDC6
:101BE0000821012001F064F84FF48070009000207B
:101BF0008DF8040001208DF8060000208DF8070004
:101C000003208DF805006946114800F023F84FF4D1
:101C10008070029000208DF80C0008208DF80D00D7
:101C200001208DF80E0002A8FFF792FD17208DF815
:101C3000100005208DF8110000208DF81200012001
:101C40008DF8130004A800F07BFB05B000BD000078
:101C500000040240F0B50A4600210023002400BF22
:101C60003DE0012505FA01F3156805EA03049C42ED
:101C700034D105684F000326BE40B5430560157991
:101C80004E00B5400668354305601579012D02D038
:101C90001579022D16D185684F000326BE40B54345
:101CA000856055794E00B540866835438560456846
:101CB00001268E40B5434560456896798E40B6B2A0
:101CC00035434560C5684F000326BE40B543C56037
:101CD000D5794E00B540C6683543C560491C10290A
:101CE000BFD3F0BDF0B5002300244D07ED0E02FA7E
:101CF00005F3CE1000F1200555F826504E07F70EDB
:101D00000F26BE40B543CF1000F1200646F82750FD
:101D1000CE1000F1200555F8265045EA0304CE10F8
:101D200000F1200545F82640F0BD02460020136969
:101D30000B400BB1012000E0002070474183704749
:101D40000183704700BFFEE7F0B50546059C002003
:101D50007FE093ED050A00EB4006404F07EB860657
:101D6000D6ED000A20EE200AD3ED060A00EB40066D
:101D700007EB860696ED011A00EE810AD3ED070AFD
:101D800000EB400607EB860696ED021A00EE810A8C
:101D9000334E06EB8006D6ED000A30EE200A05EB46
:101DA000800686ED000A93ED010A00EB40062D4FF8
:101DB00007EB8606D6ED000A20EE200AD3ED020AD4
:101DC00000EB400607EB860696ED011A00EE810A4D
:101DD000D3ED030A00EB400607EB860696ED021AE8
:101DE00000EE810A204E06EB8006D6ED000A30EEAA
:101DF000200A01EB800686ED000A94ED010A00EB53
:101E000040061A4F07EB8606D6ED000A20EE200AA0
:101E1000D4ED020A00EB400607EB860696ED011AA8
:101E200000EE810AD4ED030A00EB400607EB8606BC
:101E300096ED021A00EE810A0D4E06EB8006D6EDF5
:101E4000000A30EE200A02EB800686ED000A461CEE
:101E5000F0B20328FFF67DAFF0BD0000680000205F
:101E6000C00A00208C000020CC0A0020B000002016
:101E7000E80A002010B52DED028BB0EE408A214813
:101E80000078F8B1DFED200AB0EE480A1F4800F0F4
:101E90009DFA1E4890ED0A0AB5EEC00AF1EE10FA5E
:101EA00003D29FED1B0A80ED0A0A184890ED0A0A3A
:101EB000BCEEC00A10EE100A84B22146154801F0AB
:101EC000C2FB1CE09FED100AB4EEC08AF1EE10FADE
:101ED00010DD11480078401C0F4908700846007852
:101EE000C82807DD0120074908709FED0C0A074844
:101EF00080ED0C0A41F28731064801F0A4FBBDECED
:101F0000028B10BDD400002000002042340B0020C2
:101F10000000000000040040D800002000401C45E4
:101F200010B500BF03F01CFC0028FBD1FFF74EFEEC
:101F300010220949094800F0FDFD01221146084818
:101F400000F080FE01220221054800F07BFE002106
:101F5000102000F09DFD10BD840A0020AC64000834
:101F60000050014010B500F001F810BD00B597B069
:101F70000121102000F054FB0121880700F060FBD4
:101F80000121480500F04CFB082207214248FFF7D9
:101F9000A9FE082211464048FFF7A4FE4FF4C07086
:101FA000159002208DF8580000208DF85A0002206C
:101FB0008DF8590001208DF85B0015A93648FFF710
:101FC00049FE364801F008FD4FF4E1301190002041
:101FD000ADF84800ADF84A00ADF84C000C20ADF863
:101FE0004E000020ADF8500011A92C4801F0BCFDB6
:101FF00001212A4801F0DBFC012240F2244127485C
:1020000001F08CFD01224021244801F0DCFC52202B
:102010008DF8400002208DF8410003208DF8420029
:1020200001208DF8430010A800F08AF91C48FFF742
:1020300021FA4FF0206001901848001D02901948C5
:10204000039000200490A0200590002006904FF4FB
:10205000806007900020089009900A904FF440306B
:102060000B9000200C900D904FF480700E9000208B
:102070000F9001A90A48FFF719FB01210848FFF753
:10208000EDF98C2002F068FE07490860012007493D
:10209000086017B000BD000000100240007800404A
:1020A00058600240F00B0020DC000020E00000201F
:1020B00008B58B498B4803F0C1FB8B48884B8B4A92
:1020C0008B4900908B48FFF73FFE8548007800F071
:1020D0000100002846D088480078E8BB012141F281
:1020E000883001F0ADF8DFED850A9FED850A854A5D
:1020F0000121854800F062FA7C4A7D498348FEF759
:10210000A7F9834B1A1F111F804803F00DF8784878
:1021100090ED000A7F4880ED000A7F4880ED000ABC
:102120007E4880ED000A724890ED010A794880ED02
:10213000010A794880ED010A784880ED010A6C486F
:1021400090ED020A734880ED020A734880ED020A9E
:10215000724880ED020A00E005E067480078401C04
:1021600065490870B4E06C4890ED000A6B4880ED5A
:10217000000A684890ED000A674880ED000A90ED7B
:10218000000A6748D0ED000A20EE200A6348D0ED2F
:10219000000A634890ED011A00EE810A5448D0ED20
:1021A000000A5F4890ED021A00EE810A594880ED5E
:1021B000000A594890ED010A584880ED010A554837
:1021C00090ED010A544880ED010A90ED010A54484F
:1021D000D0ED000A20EE200A5048D0ED010A504808
:1021E00090ED011A00EE810A4148D0ED010A4C48F9
:1021F00090ED021A00EE810A464880ED010A464839
:1022000090ED020A454880ED020A424890ED020A2C
:10221000414880ED020A90ED020A4148D0ED000AE3
:1022200020EE200A3D48D0ED020A3D4890ED011A0B
:1022300000EE810A2E48D0ED020A394890ED021ACC
:1022400000EE810A334880ED020A284B02462949F4
:102250009FED340A2D48FEF773FA2D4B1A1F111FFC
:102260002A4802F061FF30480088B8B92F4890ED45
:10227000000A2F4880ED000A2C4890ED010A2C48F6
:1022800080ED010A294890ED020A294880ED020AF2
:1022900025480088401C2449088019E0224800880D
:1022A000B0F5FA7F0ADA2348007888B10C48027842
:1022B0001D4B10491E4803F07DF809E01A480088BC
:1022C000B0F5FA7F04D118480088401C16490880F0
:1022D0000348D0ED040AB0EE600AFFF7CBFD08BD5D
:1022E000940A0020850A0020D80A00200C0B002048
:1022F000000B0020F40A0020D50000200080894552
:1023000000A08C45BC640008340B0020240B002086
:10231000200B00209C0B0020900B0020840B002041
:10232000C86400086F12833AD6000020B40A002067
:10233000C00A0020D400002000BFFEE77047000064
:1023400070B5002100230F22C4781CB3174C2468F9
:1023500004F4E064C4F5E064C4F30721C1F10404AB
:10236000E3B20A4144789C40E1B2847814402143AE
:102370000C07210E0E4C05786155047804F01F05FA
:102380000124AC4005786D11AD0005F1E025C5F8DC
:10239000004109E0047804F01F050124AC40054D1C
:1023A0000678761145F8264070BD00000CED00E07F
:1023B00000E400E080E100E002490143024A1160CC
:1023C000704700000000FA050CED00E0B0EE401A86
:1023D00010B99FED790A704790ED120A80ED130A4B
:1023E00090ED110A80ED120AC0ED080A80ED091A7D
:1023F00030EEC10A80ED110A0178002975D190ED07
:10240000010AD0ED111A20EE210A80ED0B0A90EDA1
:102410000C0AD0ED021A90ED112A01EE820A80ED2D
:102420000C0A90ED0F0A80ED100A90ED0E0A80ED77
:102430000F0A90ED110AD0ED121A30EE610A80ED0C
:102440000E0A90ED030AD0ED0E1A20EE210A80ED5F
:102450000D0A90ED0C0AD0ED051AB4EEE10AF1EE8A
:1024600010FA04DD90ED050A80ED0C0A10E090ED05
:102470000C0AD0ED051AF1EE611AB4EEE10AF1EEA4
:1024800010FA05D290ED050AB1EE400A80ED0C0A73
:1024900090ED0B0AD0ED0C1A30EE210AD0ED0D1A9A
:1024A00030EE210A80ED0A0A90ED0A0AD0ED041AF6
:1024B000B4EEE10AF1EE10FA04DD90ED040A80EDCD
:1024C0000A0A76E090ED0A0AD0ED041AF1EE611ADC
:1024D000B4EEE10AF1EE10FA6BD290ED040AB1EE1F
:1024E000400A80ED0A0A64E0FFE70178012960D123
:1024F00090ED110AD0ED121A30EE610AD0ED011AFA
:1025000020EE210A80ED0B0A90ED020AD0ED111A9F
:1025100020EE210A80ED0C0A90ED0F0A80ED100AE2
:1025200090ED0E0A80ED0F0A90ED110AD0ED121A0F
:10253000B0EE002A02EE610AD0ED131A30EE210A45
:1025400080ED0E0A90ED030AD0ED0E1A20EE210A5E
:1025500080ED0D0A90ED0B0AD0ED0C1A30EE210A39
:10256000D0ED0D1A30EE210AD0ED0A1A30EE210A14
:1025700080ED0A0A90ED0A0AD0ED041AB4EEE10AE1
:10258000F1EE10FA04DD90ED040A80ED0A0A10E085
:1025900090ED0A0AD0ED041AF1EE611AB4EEE10AE8
:1025A000F1EE10FA05D290ED040AB1EE400A80ED8A
:1025B0000A0A90ED0A0A0EE70000000000B102B915
:1025C0007047017092ED001A80ED011A92ED011A28
:1025D00080ED021A92ED021A80ED031A80ED040AD2
:1025E000C0ED050A9FED0C1A80ED101A80ED0F1A50
:1025F00080ED0E1A9FED081A80ED0A1A80ED0D1A73
:1026000080ED0C1A80ED0B1A80ED131A80ED121A72
:1026100080ED111A00BFD3E70000000070470000F2
:1026200029B1064A12680243044B1A6004E0034AC7
:1026300012688243014B1A60704700003038024034
:1026400029B1064A12680243044B1A6004E0034AA7
:1026500012688243014B1A60704700004038024004
:1026600029B1064A12680243044B1A6004E0034A87
:1026700012688243014B1A60704700002038024004
:1026800029B1064A12680243044B1A6004E0034A67
:1026900012688243014B1A607047000044380240C0
:1026A00029B1064A12680243044B1A6004E0034A47
:1026B00012688243014B1A607047000024380240C0
:1026C000F0B5002100220024022500260223324F0B
:1026D0003F6807F00C0121B1042905D0082937D142
:1026E00005E02E4F076036E02D4F076033E02A4F9C
:1026F0003F1F3F68C7F38056274F3F1F3F6807F0D3
:102700003F036EB1264FB7FBF3F7DFF88CC0ACF197
:10271000040CDCF800C0CCF3881C07FB0CF40CE0C4
:102720001E4FB7FBF3F7DFF870C0ACF1040CDCF818
:1027300000C0CCF3881C07FB0CF4174F3F1F3F6809
:10274000C7F301477F1C7D00B4FBF5F7076002E08B
:10275000124F076000BF00BF0F4F3F6807F0F00146
:102760000909104F7A5C0768D74047600A4F3F68F5
:1027700007F4E051890A0B4F7A5C4768D7408760BD
:10278000054F3F6807F46041490B064F7A5C476884
:10279000D740C760F0BD0000083802400024F400B4
:1027A000001BB7000400002070B590B004460E4630
:1027B000154601214A48FFF733FF01211020FFF79A
:1027C0005FFF01211020FFF76BFF00211020FFF7B2
:1027D00067FF072211464348FFF784FA80200E90D6
:1027E00002208DF83C0000208DF83E0003208DF87B
:1027F0003D0000208DF83F000EA93A48FFF72AFA65
:10280000394801F0E9F839480A900020ADF82C0069
:10281000ADF82E004FF48060ADF830000420ADF824
:1028200032000020ADF834000AA92F4801F09CF9CD
:10283000012240212C4801F0C6F810212A4801F05D
:10284000ADF8012240F22441274801F067F9012147
:10285000254801F0ACF825208DF83C0004208DF8C7
:102860003D0000208DF83E0001208DF83F000FA8AC
:10287000FFF766FD1E48FEF7FDFD4FF0006001907A
:102880001948001D029003940020049005950690BD
:102890004FF4806007900020089009904FF48070FA
:1028A0000A904FF440300B9000200C900D900E9049
:1028B0000F9001A90E48FEF7F9FE002231460C48A0
:1028C000FEF78FFE01210A48FEF780FE002108482E
:1028D000FEF7C4FD01210648FEF7C0FD10B070BD33
:1028E000020040000004024000100140A0860100E8
:1028F0004064024000B101B970470278437842EA6F
:102900000322C2F30A020A804278D210837842EA94
:102910004312C2F30A024A8082789211C37842EAD3
:102920008302037942EA8322C2F30A028A8002798F
:102930005210437942EAC312C2F30A02CA804279B2
:10294000C2F301128A72427912119308CB72827912
:10295000C37942EA032212B28A81027A437A42EAB6
:10296000032213B201F10C02CB81827AC37A42EACC
:10297000032213B201F10C020B82037B8B74437BA5
:10298000CB74827BC37B42EA03228A82027C437C33
:1029900042EA032212B20A810A88A2F5806212B2C8
:1029A0000A804A88A2F5806212B24A808A88A2F51B
:1029B000806212B28A80CA88A2F5806212B2CA808E
:1029C0000A89A2F5806212B20A8100BF94E7000072
:1029D00000B587B001212020FFF722FE0121080564
:1029E000FFF74EFE4FF46070059002208DF818003E
:1029F00000208DF81A0001208DF81B0003208DF8AF
:102A0000190005A92048FFF725F9052207211E48CE
:102A1000FFF768F9052208211B48FFF763F9052233
:102A200009211948FFF75EF901210805FFF738FE73
:102A300000214FF48010FFF733FE0020ADF80000B6
:102A40004FF48270ADF802000020ADF804000220BF
:102A5000ADF806000120ADF808004002ADF80A000C
:102A60003820ADF80C000020ADF80E000720ADF8BE
:102A700010006946054800F0FCF80121034800F009
:102A8000D5F807B000BD000000140240005001401E
:102A90000A4A12884FF2C7731A40084B1A801A4626
:102AA000128802431A801A4612880A431A801A466C
:102AB000128842F040021A80704700000050014026
:102AC00010B5044600211848FEF7C8FC002116483E
:102AD0001830FEF7C3FC00BF1348FEF78EFD002838
:102AE000FAD100BF10481830FEF787FD0028F9D151
:102AF0000E490D481830FEF797FC0D490A48FEF7BD
:102B000093FC21460848FEF7FDFD21460648183093
:102B1000FEF7F8FD012104481830FEF79FFC012163
:102B20000148FEF79BFC10BD70640240000C0020C1
:102B30003000002070B590B005460E4614460121C5
:102B40008805FFF76DFD44208DF83C0005208DF8C9
:102B50003D0000208DF83E0001208DF83F000FA8B9
:102B6000FFF7EEFB2F48FEF785FC00BF2D48FEF770
:102B700044FD0028FAD14FF0606000902A4801908F
:102B8000029600200390049405904FF48060069014
:102B900000200790089009904FF440300A900020E0
:102BA0000B900C900D900E9069461E48FEF77EFD2E
:102BB000012210211B48FEF75BFD00211948FEF79A
:102BC0004DFC18481838FEF755FC00BF154818385A
:102BD000FEF713FD0028F9D14FF0806000901248F5
:102BE00001900295402003900494002005904FF43A
:102BF0008060069000200790089009904FF4803084
:102C00000A9000200B900C900D900E90694605489C
:102C10001838FEF74BFD002102481838FEF71EFC5D
:102C200010B070BD886402400C50014021B1028890
:102C300042F04002028004E002884FF6BF731A405F
:102C4000028070471AB183880B43838002E0838837
:102C50008B43838070470246002013890B400BB1E1
:102C6000012000E00020704701468889704781817B
:102C7000704710B50022028802F441520B884C883C
:102C800023438C882343CC8823430C8923434C89DA
:102C900023438C892343CC8923431A430280838BAB
:102CA0004FF2FF74234083830B8A038210BD704769
:102CB00030B500228B071C0F0F2303FA04F20B4BD5
:102CC0008C1053F824309343084C8D1044F8253071
:102CD00023468C1053F824308C07240F00FA04F498
:102CE0002343024C8D1044F8253030BD0838014094
:102CF0000CB50020019000904148006840F48030FD
:102D00003F49086000BF3E48006800F40030009072
:102D10000198401C0190009818B90198B0F5A04F97
:102D2000F1D13748006800F4003010B10120009064
:102D300001E0002000900098012860D13048403028
:102D4000006840F080502E49403108602D480068EE
:102D500040F440402B490860294808300068284961
:102D6000083108600846006840F4004008600846E2
:102D7000006840F4A05008602348091F0860081F3D
:102D8000006840F08070091F086000BF1C480068A0
:102D900000F000700028F9D01A48006840F4803034
:102DA0001849086000BF1748406800F480300028C8
:102DB000F9D01448006840F400301249086000BFA0
:102DC0001048406800F400300028F9D040F2057047
:102DD0000E4908600A480830006820F003000849DE
:102DE000083108600846006840F00200086000BF33
:102DF00003480830006800F00C000828F8D10CBD2A
:102E000000380240007000400C5A4007003C02406D
:102E1000F0B585B004460D4616461F464FF40070C7
:102E2000009000208DF808008DF8090008208DF82A
:102E30000A00200A8DF80B00E1B28DF80C10290A67
:102E40008DF80D10E9B28DF80E10310A8DF80F10C3
:102E5000F1B28DF81010390A8DF81110F9B28DF811
:102E6000121069460248FEF7DAF805B0F0BD00001E
:102E70000064004070B586B004460D46164640F228
:102E8000FF10019000208DF80C008DF80D00082037
:102E90008DF80E00200A8DF80F008DF81040290AD9
:102EA0008DF811108DF81250310A8DF813108DF82D
:102EB000146000218DF815108DF8161001A9024834
:102EC000FEF7ADF806B070BD0064004010B5604874
:102ED00090ED000A5F4880ED000A5F4890ED000A1F
:102EE0005B4880ED000A5D4890ED000A5848D0ED3F
:102EF000000A20EE200A5948D0ED010A554890ED0D
:102F0000001A01EE200A5648806AB0F9400000EE2F
:102F1000900AF8EEE00A9FED531A60EE810A4F48DE
:102F200090ED021A00EE810A4B4880ED000A4C48F1
:102F3000806AB0F9400000EE100AB8EEC00ADFED7A
:102F4000490A20EE200A464880ED0C0A806A806B10
:102F5000122805D16FF010004149896A886308E0A2
:102F60003F48806A806B123018B911203C49896A49
:102F700088633B48806A806800EE100AB8EEC00A99
:102F8000DFED390A20EE200A354880ED0E0A4FF4B5
:102F900080613648FEF7C9FE314981F8580008467D
:102FA00090F8430081F84500084690F8440081F805
:102FB00046002F480068807C81F843002C48006858
:102FC000C07C81F84400084690F8430058B1084698
:102FD000B0F84800C8280ADA0846B0F84800401C93
:102FE000A1F8480003E000201D49A1F848001C4852
:102FF00090F8440060B11A48B0F84A00C8280BDACB
:103000001748B0F84A00401C1549A1F84A0003E0EF
:1030100000201349A1F84A001648007890B11448DE
:103020000068C07A02280DD10D48B0F84C00B0F508
:10303000C87F0BDA0A48B0F84C00401C0849A1F8D8
:103040004C0003E000200649A1F84C0010BD000030
:10305000300000202C0000203400002050640008C4
:1030600084020020F1A23E3BC2B8B23700140240F5
:103070001C0000202000002048480068C07A012879
:103080000AD147480078012806D04648007818B988
:1030900001204449087014E040480068C07A0128C3
:1030A00006D13F480078012802D03E48007828B970
:1030B0003A480068808A00F4807010B100203949D5
:1030C000087036480068C07A03280CD1334800687D
:1030D000808A00F4007030B13248007818B90120BD
:1030E0003049087011E02D480068C07A03280CD1DF
:1030F0002A480068808A00F4807030B1294800783E
:10310000012802D1002027490870264800780128AC
:103110003CD122480068C07A022803D120480078B8
:1031200002280FD1204890F8430018B11E4890F8AB
:10313000450038B11C4890F8440060B11A4890F836
:10314000460040B90220174908701748B0F85E00E1
:103150001549A1F860001448B0F84800C8280AD002
:103160001148B0F84A00C82805D00F48B0F84C0004
:10317000B0F5C87F0AD10B480078032806D00A486A
:1031800090F8580010B902200649087003480068FA
:10319000C07A40B202490870704700001C0000204D
:1031A000280000202000002084020020042808D1EC
:1031B0004FF0E021096941F004014FF0E022116174
:1031C00007E04FF0E021096921F004014FF0E0220F
:1031D000116170477047000010B51548006840F451
:1031E0007000134908601348006840F0010011495D
:1031F000086000200F49083108600E4800680E4939
:1032000008400C4908600D48091D0860081F006847
:1032100020F48020091F0860002006490C31086056
:10322000FFF766FD4FF0006001498039086010BD6E
:1032300088ED00E000380240FFFFF6FE1030002469
:1032400030B58BB005460C4601210220FFF7F8F996
:1032500001210220FFF7E4F9022205212D48FEF7A3
:1032600041FD01210220FFF7FBF900210220FFF7B9
:10327000F7F91D208DF8140005208DF815000020A9
:103280008DF8160001208DF8170005A8FFF758F8F3
:10329000681E0990601E80B2ADF820000020ADF8D5
:1032A0002200ADF82800012211461B4800F0CEF89C
:1032B00008A9194800F0CCF92020069002208DF8CA
:1032C0001C0003208DF81D0000208DF81E00022038
:1032D0008DF81F0006A90F48FEF7BCFC6020ADF872
:1032E00000000120ADF802000020ADF80C00694696
:1032F000094800F0FDF80821074800F04BF90121CA
:10330000054800F065F80121034800F073F80BB0A0
:1033100030BD000000040240000400401FB5012140
:103320001020FFF78DF936208DF8000001208DF870
:10333000010000208DF8020001208DF8030068468E
:10334000FEF7FEFF5920ADF804000020ADF806009E
:10335000ADF80C0041F28830029001A9084800F055
:1033600077F90121064800F045F80122114604488A
:1033700000F06CF80121024800F036F81FBD000093
:103380000010004010B501210F4800F04EF8C8B100
:1033900001210D4800F02BF801210B4800F024F822
:1033A00001F066FF0446FDF7D1FF08480068401CA5
:1033B000064908604CF2503190FBF1F201FB12001B
:1033C0000249086010BD000000100040000000200D
:1033D00021B1028842F08002028004E002884FF6A8
:1033E0007F731A4002807047CA4302827047CA4303
:1033F0000282704721B1028842F00102028004E09B
:1034000002884FF6FE731A400280704731B1B0F85F
:10341000442042F40042A0F8442005E0B0F84420E3
:10342000C2F30E02A0F84420704730B502460020D7
:1034300000230024158A05EA0103958905EA0104A1
:1034400013B10CB1012000E0002030BD1AB1838916
:103450000B43838102E083898B43838170470000A3
:1034600070B5002400220023058C4FF6FE7635400F
:103470000584028C8388048B4FF68F752C40B51E13
:103480002C400D882C43751E2A408D892A434D8877
:103490002A43104DA84202D00F4DA84213D14FF637
:1034A000F7752A40CD892A434FF6FB752A408D884F
:1034B0002A434FF6FF652B404FF6FF552B400D8AF0
:1034C0002B434D8A2B43838004838D68456302849C
:1034D00070BD000000000140000401400A460021C8
:1034E000018B4FF6F77319401143018370470000B9
:1034F00070B5002400220023058C4FF6EF7635408E
:103500000584028C8388048B48F6FF752C404FF6A7
:10351000FF452C400D884FF6FF7606EA05252C4323
:103520004FF6DF752A408D8906EA05152A434D8836
:1035300006EA05152A43154DA84202D0144DA842AB
:103540001DD14FF67F752A40CD894FF6FF7606EAEA
:1035500005152A434FF6BF752A408D8806EA0515E2
:103560002A434FF6FF352B404FF2FF752B400D8A53
:1035700006EA85052B434D8A06EA85052B438380A1
:1035800004838D688563028470BD000000000140E3
:10359000000401400A460021018B4FF2FF731940DD
:1035A0004FF6FF7303EA02231943018370470000BB
:1035B00070B5002200230024058C4EF6FF763540BE
:1035C0000584038C8488828B48F6FF752A404FF669
:1035D000FF452A400D884FF6FF7606EA05252A4367
:1035E0004DF6FF752B408D8906EA05352B434D8836
:1035F00006EA05352B430A4DA84202D0094DA842E0
:1036000008D14BF6FF752C400D8A4FF6FF7606EA7F
:1036100085152C43848082838D680564038470BD86
:1036200000000140000401400A460021818B4FF256
:10363000FF7319404FF6FF7303EA02231943818396
:1036400070474163704781637047016470470000B1
:1036500000220288184B98420ED0184B98420BD08B
:10366000B0F1804F08D0164B984205D0154B9842C8
:1036700002D0154B984204D14FF68F731A404B88F5
:103680001A43124B984207D0114B984204D04FF680
:10369000FF431A400B891A4302804B68C3620B88B0
:1036A0000385054B984202D0044B984201D18B7A96
:1036B000038601238382704700000140000401401B
:1036C0000004004000080040000C004000100040D2
:1036D0000014004010B501F0CBFD254908602548D5
:1036E00025498862DFED250A9FED250A254A00213C
:1036F0002548FEF763FFFFF7E9FB9FED241ADFED96
:10370000240A9FED240A1C4802F00AFA9FED1F1AB2
:10371000DFED1F0A9FED1F0A1748143002F000FA70
:103720000020154981F842000846806A806800EE52
:10373000100AB8EEC00ADFED180A20EE200A08468B
:1037400080ED0E0A0020A1F8400081F84E000846E6
:1037500090ED0E0A80ED0F0A9FED100A80ED0C0A25
:103760009FED0E0A80ED0D0A0020A1F85E0010BD4D
:103770001C000020800400208402002000401C4522
:1037800000409C45446400083402002000007A4454
:1037900000C0A8440AD7233CC2B8B23700000000DA
:1037A00030B5B7B040F224411B4800F08DF9002835
:1037B0002FD019480088C5B21748001D0088C5B22F
:1037C00001201649086000211548FDF747FE1448FE
:1037D000FDF71DFFC0F1A000C5B21248057000241E
:1037E00006E01148015D1148006801F0F5FA641C1B
:1037F000AC42F6DBA0200A495839C86501210848C7
:10380000FDF72CFE094800680190A52101A802F0EF
:10381000F3FC37B030BD000000780040E400002029
:1038200058600240E8000020F00B0020DC0000207F
:1038300010B540F22551314800F046F918B12F4833
:1038400000F0FCF959E040F224412C4800F03CF92A
:10385000002852D0294800F0F1F92948FDF7DBFE95
:1038600028BB00212648FDF7F9FD2548FDF7CFFECE
:10387000C0F124002349088024212148FDF742FF9C
:103880001F48006840F400201D4908601E491C487C
:10389000FDF7CAFD01211A48FDF7E0FD194800882F
:1038A00012282AD119491A48FFF724F825E00021E7
:1038B0001348FDF7D3FD1248FDF7A9FEC0F124001F
:1038C0001049088024210E48FDF71CFF0C480068B1
:1038D00020F400200A4908600B490948FDF7A4FDBF
:1038E00001210748FDF7BAFD06480088122804D1D7
:1038F000064907482430FEF7FDFF10BD00100140C7
:10390000406402401A00002000003010D401002062
:10391000EA01002010B540F225511D4800F0D4F80E
:1039200010B31B4800F08AF9C4B21A48008800F4AA
:103930000040C8B91748008800F4804060B10A2CE4
:1039400003D000201349088020E01248008840F48A
:1039500000401049088019E00D2C06D10D48008860
:1039600040F480400B49088010E00A480088C0F30A
:103970000D0009490C5407480088401C054908807F
:1039800008460088C72801DD0020088010BD00001F
:1039900000140140180000200C01002001F4007206
:1039A000B2F5007F00D100BFCA430280704721B149
:1039B000828942F40052828104E082894DF6FF73CD
:1039C0001A40828170471AB1838A0B43838202E0D6
:1039D000838A8B438382704710B504463248844201
:1039E00008D101211020FEF75BFE00211020FEF718
:1039F00057FE57E02D48844209D101214804FEF7C3
:103A00002FFE00214FF40030FEF72AFE4AE028483E
:103A1000844209D101218804FEF722FE00214FF4DF
:103A20008020FEF71DFE3DE02248844209D101219D
:103A3000C804FEF715FE00214FF40020FEF710FE2B
:103A400030E01D48844209D101210805FEF708FE37
:103A500000214FF48010FEF703FE23E01748844254
:103A600008D101212020FEF71BFE00212020FEF7B7
:103A700017FE17E01248844209D101218807FEF79A
:103A8000EFFD00214FF08040FEF7EAFD0AE00D480F
:103A9000844207D101214005FEF7E2FD00216005C7
:103AA000FEF7DEFD10BD00000010014000440040A4
:103AB00000480040004C004000500040001401400D
:103AC00000780040007C004070B5024600240023CE
:103AD0000025002040F66A16B14200D100BFC1F3B4
:103AE000421501F01F03012606FA03F3012D02D14E
:103AF0009689334006E0022D02D1168A334001E058
:103B0000968A33400C12012606FA04F416883440D3
:103B100013B10CB1012000E0002070BDF0B50346E8
:103B2000002400260025002040F66A17B94200D183
:103B300000BF1846C1F3421401F01F06012707FA1F
:103B400006F5012C01D10C3004E0022C01D110301B
:103B500000E014301AB107682F43076002E00768DD
:103B6000AF430760F0BD00002DE9FF4705460E4654
:103B70000024A14600BFA046B08900B100BF2C8A36
:103B800024F44054F08804432C82AC8941F20C6048
:103B90008443B08831890843718908430443AC8168
:103BA000AC8A24F44074B0890443AC826846FEF7C2
:103BB00087FD2048854202D01F48854202D1DDF8AA
:103BC0000C9001E0DDF80890A88900F4004040B1B5
:103BD00009EBC90000EB091031684900B0FBF1F7AF
:103BE00007E009EBC90000EB091031688900B0FB60
:103BF000F1F76420B7FBF0F004012009642101FB18
:103C00001078A88900F4004040B1322000EBC800D1
:103C1000B0FBF1F000F00700044308E0322000EBB5
:103C200008106421B0FBF1F000F00F0004432C8178
:103C3000BDE8FF870010014000140140014688885C
:103C4000C0F30800704700BFFEE74100080218BF3C
:103C500004200A0E18BF40F001004FF07F4232EA04
:103C6000010108BF40F00200012808BF052070478D
:103C700010B54FF00E402DED028BB0EE408A18EEDD
:103C8000104A00EB4400B0F1506F4AD84FF0FC40AE
:103C9000B0EB440F22D2B0EEC80AF7EE000A30EEC5
:103CA000C00AF6EE000A60EE208A18EE900A02F0D2
:103CB00029FA01EE100A14F0004F1DBFDFED2D0AA6
:103CC0009FED2D0AB1EE411ADFED2C0A08BF9FEDE2
:103CD0002C0AF8EE001A21EE218A05E0DFED290A10
:103CE00068EE088AB0EE600A9FED271ADFED271A0A
:103CF00030EE080A48EE811A9FED251A08EEA11A47
:103D0000DFED241A48EE811A9FED231A08EEA11A5E
:103D100068EE281ABDEC028B01EE810A30EE200A13
:103D200010BD4FF0E440B0EB440F0CD918EE100A70
:103D3000FFF78BFF042808BF00F070F9B0EE480AC7
:103D4000BDEC028B10BD4FF07F40B0EB440F07D2AB
:103D5000B0EE480ABDEC028BBDE8104000F050B94F
:103D6000012000F073F9BDEC028BBDE8104000F0BB
:103D70004DB900000000C9BF22AAFDB90000C93F2B
:103D800022AAFD390000000024FE1C3DC78AD83C51
:103D90001E67383D1B93993DAFAA2A3E10EE100ACC
:103DA00010B510EE901A4FF0684202EB40032DED73
:103DB000028BB3F1654F3CBF02EB4102B2F1654F9C
:103DC0007CD200BFC0F3C753C1F3C7529A1A1B2A53
:103DD00009DD10F0004F14BF9FED6E0A9FED6E0AD3
:103DE000BDEC028B10BD12F11A0F1BDA11F0004F5F
:103DF00009D010F0004F0CBF9FED680A9FED680AD4
:103E0000BDEC028B10BD80EE208A18EE100AFFF781
:103E10001CFF042808BF00F001F9B0EE480ABDEC11
:103E2000028B10BD4200B2EB410F37D910F0004FAA
:103E300019BFDFED5C1A9FED5C1ADFED5C1A9FED98
:103E40005C1AB0EE602A0A46F1EE400A80F00041AA
:103E5000B0EE420A10460A1A5200B2F1807F34D204
:103E6000484010F0004FDFED532A9FED533A1DBF3D
:103E7000BEEE002A71EEE21A31EE431AB6EE002AC7
:103E800004BF71EEA21A31EE031AF0EE402A42EEA0
:103E9000602A40EE020A82EEA02A18E011F0004FDC
:103EA00004BF9FED461AF0EE411AD4D010F0004F37
:103EB0001CBFDFED431A9FED431A00E026E004BF6C
:103EC000DFED411A9FED411AC5E780EE202A22EE70
:103ED000020ADFED3F0ADFED3F2ABDEC028B40EE28
:103EE000202ADFED3D0A40EE220ADFED3C2A40EEBB
:103EF000202ADFED3B0A40EE220A22EE000A00EE05
:103F0000201A31EE020A30EE210A10BD4FF07F4236
:103F1000B2EB400F28BFB2EB410F05D2BDEC028BD4
:103F2000BDE8104000F06FB840EA01035B0008BF35
:103F300041F0FF410BD0B2EB400F08BFB2EB410F95
:103F400008D120F0804000EE100A21F0804100EE00
:103F5000901A37E7B2EB400F12BF5FEA410240F020
:103F6000FF4001F000413FF42DAF4A0092EA4003C8
:103F70003FF528AF002AACBF9FED1A1A9FED1A1A21
:103F800020EE010A60EE810A10EE100A10EE901A7F
:103F900018E70000DB0FC9BFDB0FC93FDB0F49404B
:103FA000DB0F49C00000C9BF22AAFDB90000C93F0C
:103FB00022AAFD390060ED3EC30ACE3700000000A2
:103FC000000049C022AA7DBA0000494022AA7D3AD9
:103FD0002DAD65BD8FB8D53D0FB511BE61C84C3E46
:103FE000A8AAAABE0000804F0000802F2DED020B72
:103FF000019820F0004001909DED000B02B0704749
:1040000030EE000A704730EE200A7047DFED020AFA
:1040100080EEA00A70470000000000009FED020A39
:1040200020EE000A704700000000001002E008C8FF
:10403000121F08C1002AFAD170477047002001E022
:1040400001C1121F002AFBD170470000014908601E
:10405000704700000801002070B52DED028B8AB07A
:1040600005460C4616460DB104B11EB90AB0BDECAA
:10407000028B70BD94ED000AB5EEC00AF1EE10FAA5
:104080000DD194ED010AB5EEC00AF1EE10FA06D199
:1040900094ED020AB5EEC00AF1EE10FA7DD09FED64
:1040A000600AB0EE408A00200790089009900490C2
:1040B000059006905B4A07CA01AB07C395ED010A5C
:1040C000D5ED030A20EE200AD5ED000A95ED021A7F
:1040D00000EEC10AF0EE000A20EE200A8DED070A7C
:1040E00095ED000AD5ED010A20EE200AD5ED020A71
:1040F00095ED031A00EE810AF0EE000A20EE200A88
:104100008DED080A95ED000A20EE000AD5ED030AB0
:1041100095ED031A00EE810AF7EE000AB0EE001AE0
:1041200051EE000ACDED090A01AB22463146284680
:1041300000F07AF8D4ED000A60EEA00A94ED011ABE
:10414000D4ED011A41EE210A94ED021AD4ED021ABF
:1041500041EE210AB0EE600AFCF7C8FAB0EE408AE0
:1041600094ED000A20EE080A84ED000A94ED010A9D
:1041700020EE080A84ED010A94ED020A20EE080AF6
:1041800084ED020A94ED010ADDED090A20EE200A11
:10419000D4ED020A9DED081A00E03EE000EEC10AEF
:1041A0008DED040A94ED020ADDED070A20EE200AE7
:1041B000D4ED000A9DED091A00EEC10A8DED050A45
:1041C00094ED000ADDED080A20EE200AD4ED010A84
:1041D0009DED071A00EEC10A8DED060A96ED000A64
:1041E000DDED010A9DED041A00EE810A86ED000A5C
:1041F00096ED010ADDED020A9DED051A00EE810A39
:1042000086ED010A96ED020ADDED030A9DED061A20
:1042100000EE810A86ED020A00BF00BF26E700001B
:1042200000000000006800082DE9F0412DED048B2E
:1042300007460D4614461E469FED580AB0EE409ABA
:104240009FED560AB0EE408A9FED540AF0EE408A88
:10425000D4ED000A60EEA00A94ED011AD4ED011A23
:1042600041EE210A94ED021AD4ED021A41EE210A20
:10427000B0EE600AFCF73AFAF7EE000A80EE801A18
:10428000B0EE419AD5ED000AB0EE600AFCF7C2F834
:10429000F0EE409AD5ED010AB0EE600AFCF7BAF8EC
:1042A00079EE809AD5ED020AB0EE600AFCF7B2F81A
:1042B00039EE800AF0EE408A3948D0ED000A79EEF6
:1042C000600AB0EE600AFCF7A5F8B0EE408A9FEDF8
:1042D000350AB4EEC08AF1EE10FA06DC9FED320A20
:1042E000F4EEC08AF1EE10FA53DD9FED2C2AB0EE09
:1042F000420A9FED2A2AF0EE421AB7EE002AF0EEAB
:10430000420A9FED262AB0EE421AB5EEC08AF1EEBF
:1043100010FA05DD9FED232AC2EE082AB0EE620AEC
:104320009FED222AB4EEC20AF1EE10FA03D29FEDFD
:104330001B2AB0EE420AF5EEC08AF1EE10FA05DD56
:104340009FED192AC2EE282AF0EE621AB7EE002A73
:10435000B4EEC20AF1EE10FA03D220EE802AF0EE9B
:10436000420AB7EE002AF4EEC21AF1EE10FA03D2B6
:1043700020EEA12AF0EE420A9FED0D2A20EE822ABD
:10438000B0EE421A86ED001A86ED011A86ED021A89
:1043900000BFBDEC048BBDE8F08100000000000010
:1043A000FC000020CDCCCC3D8FC2F53D9A99993EC2
:1043B000CDCC4C3E10B52DED048B86B00446B0EE4E
:1043C000408AF0EE608AB0EE419A0020039004909B
:1043D0000590009001900290B0EE000AC8EE000A2D
:1043E000F0EE609AB0EE690AFCF708F88DED030A6A
:1043F000B0EE000AC8EE800AF0EE609AB0EE690AEC
:10440000FBF7FCFF8DED040AB0EE000AC9EE000ACE
:10441000F0EE609AB0EE690AFBF7F0FF8DED050A49
:10442000B0EE000AC8EE000AF0EE609AB0EE690A3B
:10443000FCF77AF98DED000AB0EE000AC8EE800AAA
:10444000F0EE609AB0EE690AFCF76EF98DED010AA4
:10445000B0EE000AC9EE000AF0EE609AB0EE690A0A
:10446000FCF762F98DED020A9DED050ADDED040A07
:1044700020EE200ADDED030A20EE200ADDED020A1F
:104480009DED011A60EE810A9DED001A00EE810A91
:1044900084ED000A9DED020ADDED040A20EE200AFB
:1044A000DDED030A20EE200ADDED050A9DED011A7F
:1044B00060EE810A9DED001A00EEC10A84ED010A4A
:1044C0009DED050ADDED010A20EE200ADDED030A6F
:1044D00020EE200ADDED020A9DED041A60EE810A4D
:1044E0009DED001A00EE810A84ED020A9DED050A99
:1044F000DDED040A20EE200ADDED000A20EE200AA0
:10450000DDED020A9DED011A60EE810A9DED031AB0
:1045100000EEC10A84ED030A06B0BDEC048B10BDA9
:1045200070B50024374800F06FF8364800F0A4FA60
:1045300034480068B0F9000001EE900AF8EEE11A84
:10454000B0EE611A2F48D0ED851AF1EE611AF0EE47
:10455000610AD0ED841AF1EE611AB0EE610A00F042
:104560000BFB00BF19E02749143101EB041191ED59
:10457000021AF0EE410A2349143101EB041191EDC6
:10458000011AB0EE410A04EB84021E49543101EBDA
:104590000210FDF71BFF601CC4B2042CE3DB0024F7
:1045A00022E004EB84011748543000EB011090ED39
:1045B0000A0ABDEEC00A10EE100A01B2114814300A
:1045C00000EB041081810F48143000EB0410B0F9A7
:1045D0000C0041F27071884204DD0A48143000EB8F
:1045E00004108181601CC4B2042CDADB054DB5F9DE
:1045F0005030B5F94020B5F93010B5F92000FEF77C
:1046000007FC70BD4008002070B50446002500BFBF
:1046100028E005EB0510424901EB8000B0F94000AD
:1046200000EE100AB8EEC00ADFED3E0A20EE200AC6
:1046300004F1140000EB051080ED010A05EB850183
:1046400004F1540000EB011090ED0E0ADFED360A84
:1046500020EE200A04F1140000EB051080ED000AA2
:10466000681CC5B2042DD4DB94ED060AB1EE400AF5
:10467000D4ED0A0A30EE200AD4ED0E0A30EE600ABC
:10468000D4ED120A30EE200AF5EE000A20EE200AE0
:1046900084ED810A94ED060AD4ED0A0A30EE200A70
:1046A000D4ED0E0A30EE600AD4ED120A30EE600A44
:1046B000F5EE000A20EE200A84ED820A94ED060A47
:1046C000D4ED0A0A30EE200AD4ED0E0A30EE200AAC
:1046D000D4ED120A30EE200AB1EE400ADFED130AE3
:1046E00080EE201A84ED831A6068D0ED580AB0EE8F
:1046F000600A9FED0F1ADFED0F0A00F055FF84ED01
:104700008E0AA068D0ED580AB0EE600A9FED081A34
:10471000DFED080A00F048FF84ED8F0A70BD00004D
:10472000E80200200A01DA3900007A447A14CE3F08
:10473000DB0F4940DB0F49C02DE9F04107460E462B
:1047400015461C4617B10EB105B10CB9BDE8F08194
:1047500022463146384600F0E1F82068007D00F03E
:10476000200058B13248007858B90120304908700B
:104770009FED300A304880ED000A02E000202C490D
:1047800008702068007D00F0010070B92068007D8D
:1047900000F0020048B92068007D00F0040020B954
:1047A0002068007D00F0080028B19FED240A24480D
:1047B00080ED000A04E09FED230A214880ED000A05
:1047C0001B480078B0B11C4890ED000AFBF746FD8D
:1047D0001B48D0ED000A20EE200A1B4880ED000A9D
:1047E000154890ED000ADFED190A30EE200A80ED41
:1047F000000A04E09FED0F0A134880ED000A0E48FE
:1048000090ED000ADFED120AB4EEE00AF1EE10FAC4
:1048100007DD90ED000ADFED0E0A30EE600A80ED54
:10482000000A094890ED000A85ED000A00BF8DE7F7
:104830006400002000000000580000207CD9A03E49
:10484000600000203333333F5C0000202EE34D3CFA
:10485000DB0FC94010B500F00BFD2449086000F0E3
:104860000BFD2249486000F0FFFC204988600024CD
:104870000EE004EB84021D49543101EB0210DFED20
:104880001C0A9FED1C0A1C4A0021FDF797FE641CC0
:10489000042CEEDBDFED190AB1EE080A184A0021FC
:1048A0001848FDF78BFE18499FED180A154850303F
:1048B00000F0E6FA16499FED150A1248603000F044
:1048C000DFFAB0EE080A094880ED8A0AB8EE080A55
:1048D00080ED8B0A9FED0F0A80ED8C0A9FED0E0A8A
:1048E00080ED8D0AFFF790FE10BD0000400800200B
:1048F0000000FA440080BB458C640008CDCC4C3EDF
:1049000098640008D4090020A46400086F12833A58
:10491000A86400089A9939409A9939C02DE9F04164
:104920002DED028B0746884614461CB117B1B8F12D
:10493000000F03D1BDEC028BBDE8F0812068B0F917
:1049400006000A2805DC2068B0F9060010F10A0FFD
:1049500003DA2068B0F9065000E000252068B0F9BD
:1049600004000A2805DC2068B0F9040010F10A0FE1
:1049700003DA2068B0F9046000E0002600EE105A67
:10498000B8EEC00ADFED350A20EE208A00EE106A8C
:10499000B8EEC00ADFED320A60EE208A2068007DA2
:1049A00000F0010020B194ED8A0AB0EE408A08E0E0
:1049B0002068007D00F0020018B194ED8B0AB0EE83
:1049C000408A2068007D00F0040020B194ED8C0A3C
:1049D000F0EE408A08E02068007D00F0080018B181
:1049E00094ED8D0AF0EE408AB0EE480A04F5F270BC
:1049F00000F01BFAB0EE680A04F5FA7000F015FA40
:104A00009FED180AB4EEC08AF1EE10FA0AD29FEDBB
:104A1000160AB4EEC08AF1EE10FA03DD9FED130A18
:104A200084ED7A0A9FED120AF4EEC08AF1EE10FAD4
:104A30000AD29FED100AF4EEC08AF1EE10FA03DDFF
:104A40009FED0A0A84ED7E0A94ED7A0A87ED000A4A
:104A500094ED7E0A88ED000A00BF6BE7A69BC43B7D
:104A60000AD7A3BB90C2753D90C275BD000000007F
:104A7000CCCC4C3DCCCC4CBD10B52DED028B84B0D4
:104A800004461CB904B0BDEC028B10BD9FED370A83
:104A90008DED030A9FED350A8DED020A9FED330A75
:104AA0008DED010A234601AA02A903A8FFF744FEDF
:104AB0009FED2E0AB0EE408A9FED2C0AF0EE408A60
:104AC0006068D0ED580AF1EE600AB0EE600AFBF7BC
:104AD000C5FBB0EE408A6068D0ED580AF1EE600A7E
:104AE000B0EE600AFBF77EFBF0EE408A9DED030A14
:104AF00028EE800ADDED020A08EE600A84ED840AE1
:104B00009DED030A28EE000ADDED020A08EEA00A78
:104B100084ED850A9FED161ADFED160A9DED010A58
:104B200000F042FD84ED880AD4ED8A1AB0EE611AD5
:104B3000D4ED8B1AF0EE610AD4ED841AB0EE610A5E
:104B400000F0B0F984ED840AD4ED8C1AB0EE611A4D
:104B5000D4ED8D1AF0EE610AD4ED851AB0EE610A3B
:104B600000F0A0F984ED850A00BF8BE7000000008B
:104B7000DB0F4940DB0F49C0B0EE002AF0EE421ACD
:104B80002E480068007D00F0100020B1B7EE082A22
:104B9000F0EE421A19E02A48406A02EE100ADFEDF0
:104BA000292AB4EEE22AF1EE10FA0ADD2448406A1E
:104BB00002EE100ADFED232A82EE223AF0EE431ACB
:104BC00003E0B0EE002AF0EE421AB1EE402A32EED7
:104BD000202ADFED1D2A01EE222A184880ED072A3F
:104BE00030EE202ADFED182A01EE222A80ED0B2A72
:104BF000B1EE402A32EE602ADFED132A01EE222ABE
:104C000080ED0F2A30EE602ADFED0F2A01EE222A16
:104C100080ED132A00200EE00849143101EB001149
:104C200091ED022AC2EE212A0449143101EB001150
:104C3000C1ED022A401C0428EEDB7047400800202A
:104C4000A80B002000009C420AD7A33B10B50446E5
:104C50006FF00400FEF7AAFAE11704EB5171C1F3FB
:104C6000C701074A11701046007800EB4001C1EB04
:104C7000C0104FF6FF7101EAC0000249088010BD64
:104C8000140000201600002070B504464FF4077091
:104C900094FBF0F0C6B24FF4077094FBF0F100FB08
:104CA000114085B205E04FF4077000F02FF8701E38
:104CB000C6B2002EF7D115B1284600F027F870BD16
:104CC0000146114A12784A434FF0E0235A6100220C
:104CD0009A611A46126942F001021A6100BF4FF050
:104CE000E022106900F001021AB100F48032002ABB
:104CF000F5D04FF0E022126922F001024FF0E023DC
:104D00001A6100229A617047140000200146114A7E
:104D100012884A434FF0E0235A6100229A611A46F2
:104D2000126942F001021A6100BF4FF0E0221069DF
:104D300000F001021AB100F48032002AF5D04FF0E1
:104D4000E022126922F001024FF0E0231A610022F2
:104D50009A6170471600002070B5044600250026B1
:104D6000182000F055FC05460DB9002070BD204606
:104D700000F04EFC06460EB90020F7E72246314609
:104D8000284600F01DF82846F0E710B5014600203F
:104D900000BF00BF0029FDD000BF0B7D5A1C0A7563
:104DA0000A68D05C0A7DCB68B2FBF3F403FB1422E3
:104DB0000A758A68521C8A600A69521E0A6110BD0F
:104DC000034619608818401E5860DA609A60002017
:104DD000186118755875704710B5024600BF00BFBE
:104DE000002AFDD000BF9068002802D84FF0FF30A5
:104DF00010BD537D581C50751068C154507DD36848
:104E0000B0FBF3F403FB140050759068401E9060F3
:104E10001069401C10610020EAE7014600BF00BF96
:104E20000029FDD000BF0869704710EE101A01601C
:104E3000816800EE901AC16801EE101A70EE811AB6
:104E4000816800EE901A80EEA11A416800EE901A77
:104E500061EE200A816801EE101AC16801EE901A15
:104E600031EE212A01EE101AC1EE021A016801EE9C
:104E7000101A41EE810A10EE901A4160704700004E
:104E800010EE102AC2600A688260DFED050A10EE9B
:104E9000902A0260DFED020A10EE902A426070470D
:104EA00000000000F0EE401AF4EEE01AF1EE10FA05
:104EB00002D2B0EE600A7047F4EEC11AF1EE10FAB9
:104EC00002DDB0EE410AF6E7B0EE610AF3E700005A
:104ED00010B5044621460248FEF7B3FB10BD0000A2
:104EE0000000014010B5044621460248FEF7ADFB24
:104EF00010BD00000000014000B58BB00121084644
:104F0000FDF78EFB01211020FDF78AFB01210846E9
:104F1000FDF7B6FB012208214448FCF7E3FE01221D
:104F20000E214348FCF7DEFE4FF48070099002200A
:104F30008DF8280000208DF829008DF82A008DF8C2
:104F40002B0009A93948FCF785FE4FF480400990F1
:104F500009A93748FCF77EFE01210846FDF7A0FBB2
:104F600000210120FDF79CFB40F2CF700790B32099
:104F7000ADF818000020ADF81A00ADF8200006A921
:104F80002C48FEF765FB6020ADF804000120ADF869
:104F900006000020ADF81000ADF808000820ADF8BC
:104FA00012004001ADF814000020ADF816004FF4D7
:104FB0007A70039001A91F48FEF752FA01A91D4813
:104FC000FEF7F6FA08211B48FEF788FA082119486F
:104FD000FEF72AFB01211748FEF7FAF901211548CF
:104FE000FEF714FA01211348FEF704FA00F026F840
:104FF00001212020FDF714FB4FF480600990002070
:105000008DF828008DF82A0003208DF82900012052
:105010008DF82B0009A90848FCF71CFE4FF48061AD
:105020000548FCF78DFE0BB000BD000000000240FB
:1050300000100240000001400014024010B54FF47F
:105040007A710448FEF7FDFA4FF47A710148FEF7D1
:10505000FCFA10BD0000014010B5026842600A7BF6
:10506000CB7A42EA032202608B7B4A7B43EA02222C
:1050700012B2A0F8402002684368D21AC260C26827
:10508000234B9A4207DA826B521C8263C26802F594
:105090000052C2610EE0C26841F64C539A4207DDED
:1050A000826B521E8263C268A2F50052C26101E0A7
:1050B000C268C2610368826B03EB4232826002689D
:1050C0008369D21A00EE102AB8EEC00ADFED110A89
:1050D00020EE200A9FED101AC0EE010A826B4FF4F9
:1050E000B4735A4300EE102AB8EEC00A30EE800ABC
:1050F00080ED0F0AC469027D531C037500F1200383
:1051000043F82240027D062A01D10022027510BD1B
:10511000B4E2FFFF0000B44300000046014800680D
:1051200070470000000000202DE9F04104460D46C4
:1051300016461F4614B10DB106B10FB9BDE8F08196
:10514000D4ED010A94ED031A60EE810A94ED001A81
:10515000D4ED021A41EE610AB8EE001A60EE810A3F
:10516000B0EE600AFBF72EF986ED000A94ED001A06
:1051700021EE011AD4ED011A94ED012A01EE821AF2
:10518000F7EE001AB0EE002A52EE011AF0EE610AB4
:1051900094ED001AD4ED031A21EE211AD4ED011A70
:1051A00094ED022A01EE821AF0EE001A21EE211A85
:1051B000B0EE410AFBF712F985ED000A94ED001AF2
:1051C00021EE011AD4ED031A94ED032A01EE821A9E
:1051D000F7EE001AB0EE002A52EE011AF0EE610A64
:1051E00094ED001AD4ED011A21EE211AD4ED021A21
:1051F00094ED032A01EE821AF0EE001A21EE211A34
:10520000B0EE410AFBF7EAF887ED000A00BF95E728
:1052100030B5034613B94FF6FF7030BD09E013F8FF
:10522000014B82EA0400C0B2054D35F8100080EA57
:105230002222081EA1F10101F1D11046EDE7000084
:10524000D665000830B5034605E013F8010B80EA87
:1052500002040448025D081EA1F10105A9B2F4D1BF
:10526000104630BDD5640008004870479C060020F9
:1052700000487047D4010020004870471405002002
:1052800010B508B101B102B910BD1368B3F9083007
:105290000A2B05DC1368B3F9083013F10A0F04DA9E
:1052A00013681B892B4C238002E00023294C2380A8
:1052B0001368B3F902300A2B05DC1368B3F9023026
:1052C00013F10A0F04DA13685B88234C238002E091
:1052D0000023214C23801F4BB3F9003000EE103A1D
:1052E000B8EEC00ADFED1D0A20EE200A1368B3F9FC
:1052F0000C3000EE903AF8EEE00A9FED191A00EE3D
:10530000810A184B83ED000A134BB3F9003000EE0D
:10531000103AB8EEC00ADFED140A20EE200A136836
:10532000B3F90E3000EE903AF8EEE00A9FED0F1A56
:1053300000EE810A0E4B83ED000A0A4B93ED000A42
:1053400080ED000A0A4B93ED000A81ED000A00BFD0
:105350009AE70000540000205600002017B751B80B
:105360006F12033A4C00002082A87BB8A69BC43A77
:105370005000002010B5044694ED591AF0EE410A91
:1053800094ED581AB0EE410A04F16400FCF76CFA8F
:1053900084ED5D0A94ED5D1AF0EE410A94ED5C1A1D
:1053A000B0EE410A04F1B400FDF710F884ED370ABD
:1053B00010BD000010B508B101B103B910BD02F075
:1053C000020414B100241C80F8E702F0010404B3C5
:1053D00090ED000AD1ED000A9FED0F1A01EE600A70
:1053E00080ED000A90ED010AD1ED010A9FED0A1A45
:1053F00001EE600A80ED010A90ED020AD1ED020A89
:105400009FED051A01EE600A80ED020A1C88641CFB
:105410001C8000BFD2E7000052499D392DE9F047BA
:10542000044625462068286020792871B5F8016077
:10543000B4F8057004F107084FF0000940F20121AB
:10544000781A8F4244D012DC40F20111A7EB010020
:105450008F4228D006DC012F11D0022F15D0032F48
:1054600067D119E0012825D0022862D129E0072858
:105470005FD2DFE800F05E343B42495057003246CD
:1054800041462F48FAF724FF56E0324641462C4861
:10549000C01CFAF71DFF4FE0324641462848001D68
:1054A000FAF716FF48E0324641462548801DFAF7D4
:1054B0000FFF41E03246414621480A30FAF708FF23
:1054C0003AE0324641461E480E30FAF701FF33E01B
:1054D000324641461A481130FAF7FAFE2CE03246BD
:1054E000414617482030FAF7F3FE25E032464146A0
:1054F00013482E30FAF7ECFE1EE0324641461048C3
:105500003E30FAF7E5FE17E0324641460C483F30A0
:10551000FAF7DEFE10E03246414609484130FAF71C
:10552000D7FE09E03246414605484230FAF7D0FE40
:1055300002E04FF0010900BF00BFBDE8F0870000A6
:10554000A80B00201CB501214020FDF769F84FF49D
:105550000050009001208DF8040000208DF8060016
:1055600003208DF8050001208DF8070069460348E7
:10557000FCF770FB00F00EF81CBD000000180240A4
:1055800010B54FF400510248FCF7D8FB10BD0000E5
:105590000018024010B54FF400510248FCF7D0FB50
:1055A00010BD000000180240B4EEE01AF1EE10FA4F
:1055B00000D27047B4EEC10AF1EE10FA0EDD31EE02
:1055C000602AF0EE421A03E030EE612AB0EE420AA1
:1055D000B4EEC10AF1EE10FAF6DC13E0B4EEE00A24
:1055E000F1EE10FA0ED231EE602AF0EE421A03E02C
:1055F00030EE212AB0EE420AB4EEE00AF1EE10FAE3
:10560000F6D300BF00BFD4E7FBF737F900BFFEE7D2
:10561000F0B50B30154D20F007010024144A0FE0BF
:1056200003688B420BD38B4205D95E1A4318476837
:10563000C3E9006700E04368136002C004E0021D94
:1056400010680028ECD12046002802D1286808B153
:105650000020F0BD064A07481060074A121A22F0DF
:105660000702C0E9002401202860D7E704010020D8
:1056700000010020940C0020900E00200246501AD9
:10568000B0F5805F03DDA0F5F850FF3805E010F5B8
:10569000805F02DA41F6FF73184400EE100AB8EE9C
:1056A000C00ADFED020A20EE200A7047DB0F493AFC
:1056B0001CB501212020FCF7B3FF40200090012001
:1056C0008DF8040000208DF8060001208DF80700F9
:1056D00003208DF8050069460148FCF7BBFA1CBDA4
:1056E0000014024010B540210148FCF729FB10BD11
:1056F0000014024010B540210148FCF71FFB10BD0B
:105700000014024070B50546002405E0601CC4B2D8
:10571000C82C01DD002070BD02210E48FDF79BFA68
:105720000028F3D029460B48FDF7A1FA002405E034
:10573000601CC4B2C82C01DD0020ECE70121054843
:10574000FDF789FA0028F3D00248FDF78DFAC0B2C0
:10575000E1E700000050014010B5FDF739F910BD38
:105760002DE9F0410025962632270024FFF7A0FFFF
:10577000FFF7F2FF752000F001F9304600F058F80D
:10578000752000F0FBF8304600F052F880216B20C5
:1057900000F004F9384600F045F8752000F0EEF806
:1057A000304600F045F8752000F0E8F8304600F08B
:1057B0003FF8752000F0E2F80546304600F038F872
:1057C000702D02D08020BDE8F081002424E004EB9D
:1057D0004402134B1A44517804EB4402985C00F0E5
:1057E000DDF8304600F024F804EB44010C4A505C2C
:1057F00000F0C4F80546304600F01AF804EB440007
:10580000074908444078A84204D004EB4400084407
:105810008078D8E7601CC4B20E2CD8DB0020D2E719
:10582000D667000810B504462046FFF72DFA10BDD4
:1058300010B504462046FFF743FA10BD00B101B988
:105840007047027802F040021AB10A7842F0020270
:105850000A700A7802F0020272B1444A1278521CAD
:10586000424B1A701A4612780A2A05DD00221A7075
:105870000A7822F002020A70027802F00102002A7D
:1058800072D0002200EE102A0A7842F001020A705B
:105890004278120212B283781A4300EE102AF8EE10
:1058A000C00A9FED331A60EE810AC1ED010AC27889
:1058B000120212B203791A4300EE102AF8EEC00A5F
:1058C0009FED2B1A60EE810AC1ED020A42791202A5
:1058D00012B283791A4300EE102AF8EEC00A9FED47
:1058E000241A60EE810AC1ED030AC279120212B2D3
:1058F000037A1A4300EE102AB8EEC01ADFED1D1A23
:10590000F3EE070A41EE210AC1ED040A427A1202BF
:1059100012B2837A1A4300EE102AF8EEC00A9FED05
:10592000161A60EE810AC1ED050AC27A120212B29D
:10593000037B1A4300EE102AF8EEC00A9FED0E1A00
:1059400060EE810AC1ED060A427B120212B2837B2D
:105950001A4300EE102AF8EEC00A9FED071A60EE17
:10596000810AC1ED070A00BF00BF69E7EC00002013
:10597000CDCC1C3A6F12033B58A00B3A70B50446CD
:10598000FFF7B8FE44F08000FFF7BCFEFF20FFF7F2
:10599000B9FE0546FFF7A6FE284670BD70B5054660
:1059A0000C46FFF7A7FE2846FFF7ACFE2046FFF7A0
:1059B000A9FEFFF797FE70BD1CB501218020FCF702
:1059C0002FFE3C20009001208DF8040000208DF86F
:1059D000060003208DF8050001208DF807006946B8
:1059E0000648FCF737F9002404E0204600F008F8E8
:1059F000601CC4B2042CF8DB1CBD0000001C02407B
:105A000010B50446032C00DD10BD0420A04081B277
:105A10000248FCF793F900BFF6E70000001C0240C3
:105A200010B50446032C00DD10BD0420A04081B257
:105A30000248FCF785F900BFF6E70000001C0240B1
:105A400010B52DED028B04469FED1D0AB0EE408A85
:105A5000D4ED000A60EEA00A94ED011AD4ED011A0B
:105A600041EE210A94ED021AD4ED021A41EE210A08
:105A700094ED031AD4ED031A41EE210AB0EE600A48
:105A8000FAF734FEB0EE408A94ED000A20EE080AE0
:105A900084ED000A94ED010A20EE080A84ED010A63
:105AA00094ED020A20EE080A84ED020A94ED030A3E
:105AB00020EE080A84ED030ABDEC028B10BD000045
:105AC0000000000010EE101A0160416800EE901A0C
:105AD000016801EE101A016901EE901A41EE210AE7
