:020000040800F2
:10000000E0100020C10100089D17000849160008F3
:100010009917000801040008E72B00080000000001
:100020000000000000000000000000002F1E00087B
:100030006D110008000000007D1A0008152300085B
:10004000DB010008DB010008DB010008DB01000820
:10005000DB010008DB010008DB010008DB01000810
:10006000DB010008DB010008DB010008DB01000800
:10007000DB010008DB010008DB010008DB010008F0
:10008000DB010008DB010008DB0100084104000877
:1000900005040008DB010008DB010008DB010008A3
:1000A000DB010008DB010008DB010008DB010008C0
:1000B000DB010008DB010008DB010008DB010008B0
:1000C000DB010008DB010008DB010008DB010008A0
:1000D000DB010008D1270008DB010008DB01000874
:1000E000DB010008DB010008DB010008DB01000880
:1000F000DB010008DB010008DB010008DB01000870
:10010000DB010008DB010008DB010008DB0100085F
:10011000DB010008DB010008E9230008DB0100081F
:10012000DB010008DB010008DB010008DB0100083F
:10013000DB010008DB010008DB010008DB0100082F
:10014000DB010008DB010008DB010008DB0100081F
:10015000DB010008DB010008DB010008B52800080E
:10016000DB010008DB010008DB010008DB010008FF
:10017000DB010008DB010008DB010008DB010008EF
:10018000DB010008DB01000841270008DB01000853
:10019000DB010008DB010008DB010008DB010008CF
:1001A0000000000000000000DB010008DFF80CD0B8
:1001B00000F0E4F800480047E13A0008E0100020B1
:1001C0000648804706480047FEE7FEE7FEE7FEE7F1
:1001D000FEE7FEE7FEE7FEE7FEE7FEE7192300087D
:1001E000AD0100089FED1A1AF5EE000A40EE010A73
:1001F000BDEEE00AF5EEC00A10EE100AF1EE10FABC
:1002000038BF401E00EE100A1349F7EE001AB8EE90
:10021000C00A30EEC00ADFED0F0A20EE200AFCEE25
:10022000C00A10EE900AC0F3080000EE900A01EB3D
:100230008000F8EE600A90ED011A70EE600A90ED11
:10024000000A71EEE01A21EE800A00EE810A704782
:1002500083F9223E0000004440480008DFED190AFF
:10026000B5EEC00A60EE200ABDEEE01A11EE100AEB
:10027000F1EE10FA38BF401E00EE100A1349F7EEF7
:10028000001AB8EEC00A30EEC00ADFED0F0A60EEC9
:10029000200ABCEEE00A10EE100AC0F3080000EEDF
:1002A000100A01EB8000B8EE400A90ED011A70EEE2
:1002B000C00A90ED000A71EEE01A21EE800A00EE0D
:1002C000810A704783F9223E00000044404800083C
:1002D00040EA01039B0703D009E008C9121F08C0C8
:1002E000042AFAD203E011F8013B00F8013B521E48
:1002F000F9D2704700F0004230F000400AD0C10D42
:1003000001F56071C0F3160042EA0151C2084007CE
:1003100011437047002001467047000030B5041EAD
:1003200071F1000404DB4FF00044404264EB010132
:10033000141E73F1000405DB1C464FF000435242CB
:1003400063EB04038B4208BF824230BD30B5041E0C
:1003500071F1000404DB4FF00044404264EB010102
:10036000141E73F1000405DB1C464FF0004352429B
:1003700063EB0403994208BF904230BD064C074D21
:1003800006E0E06840F0010394E807009847103465
:10039000AC42F6D3FFF70EFF44500008645000084B
:1003A00010B5B42002F0A8FF4FF4E13003F050FF85
:1003B0004FF4407001F030FA03F030FB01F046F9E1
:1003C00000F0BCF800F0D4FE01F0DAFF03F064FCAA
:1003D00002F0B0FD00F094FC02F04CF903F0D4FB05
:1003E00003F09EF8002408E0204603F001FC40F2F0
:1003F000C52002F09FFF601CC4B2042CF4DB10BDCA
:1004000000BFFEE700B585B002210B4800F0ECF913
:1004100078B10421084800F03DF80849064800F08A
:100420001DF86A460021044800F001FB684600F010
:1004300019FC05B000BD0000006400400800003257
:1004400010B50121044800F0CFF918B1012102488C
:1004500000F020F810BD00000064004000220C4BAA
:10046000994202D10023836111E0C1F3130201F02C
:1004700000730BB1C2600AE001F080630BB102614E
:1004800005E001F000630BB1826000E0426070475C
:100490007000F030B1F5007F3AD00FDC202928D071
:1004A00006DC01291CD004291DD0082940D11DE0FB
:1004B000402921D0B1F5807F3AD126E0B1F5004F37
:1004C00031D006DCB1F5806F25D0B1F5006F2FD1AA
:1004D00024E0B1F5803F12D0B1F5003F28D111E002
:1004E000154A826025E00822C26022E01022C26024
:1004F0001FE0082202611CE01022026119E00822BC
:10050000426016E01022426013E00422426010E0D4
:10051000042242600DE0042242600AE0002282616F
:100520000422426005E0002282610422426000E071
:1005300000BF00BF704700000101010000B587B097
:100540000121082001F09CFA0121480601F0A8FAD7
:1005500009220021404801F047F8092201213E48C4
:1005600001F042F80320029002208DF80C0002A94D
:10057000394800F0F1FF14208DF8040002208DF8B6
:10058000050001208DF806008DF8070001A801F094
:1005900007F913208DF8040001208DF805008DF86F
:1005A00006008DF8070001A801F0FAF82B4800F0CA
:1005B00057F804A800F0B3FA00208DF816008DF863
:1005C00017008DF818008DF819008DF81A00012019
:1005D0008DF81B0000208DF812008DF8130002200A
:1005E0008DF8140004208DF815000520ADF81000DA
:1005F00004A91A4800F091F901220221174800F0DD
:1006000083F901221146154800F07EF940F20121DC
:10061000002000F041F840F20221012000F03CF8F7
:1006200040F20321022000F037F84FF4017103205B
:1006300000F032F840F20521042000F02DF840F2DD
:100640000621052000F028F840F20721062000F0DE
:1006500023F807B000BD0000000C02400064004019
:1006600010B504460B48844209D10121480601F027
:1006700027FA00214FF0007001F022FA08E0012172
:10068000880601F01DFA00214FF0806001F018FA91
:1006900010BD0000006400407FB504460D468DF893
:1006A0000A4000208DF80B0001208DF80C004FF659
:1006B000FF7000EA4510ADF800000020ADF8020020
:1006C0004FF6F070ADF804000020ADF80600ADF86C
:1006D000080001208DF80D00684600F001F87FBD8C
:1006E00010B50021837A012202FA03F13D4A126813
:1006F00042F001023B4B1A603A4A1C3212688A43AC
:10070000384B1C331A60027BCAB9364A0C32126865
:100710008A43344B0C331A604288C38842EA03434D
:10072000304A4032847A42F834300288838842EA80
:1007300003432C4A4032847A02EBC4025360027BAA
:10074000012A19D1274A0C3212680A43254B0C336F
:100750001A604288038842EA0343224A4032847A7C
:1007600042F83430C288838842EA03431D4A40324B
:10077000847A02EBC4025360C27A3AB9194A121D54
:1007800012688A43174B1B1D1A6006E0154A121D9A
:1007900012680A43134B1B1D1A60028932B9114AB1
:1007A000143212688A430F4B14331A600289012AEB
:1007B00006D10C4A143212680A430A4B14331A60E9
:1007C000427B012A06D1074A1C3212680A43054BB4
:1007D0001C331A60034A126822F00102014B1A60AE
:1007E00010BD00000066004070B504460D460026AE
:1007F00060692840002871D0B5F5807F5CD010DC9E
:10080000082D35D006DC012D20D0022D24D0042D5A
:1008100072D127E0102D31D0202D35D0402D6BD155
:1008200038E0B5F5004F60D009DCB5F5007F49D060
:10083000B5F5806F4CD0B5F5006F5DD14FE0B5F5E3
:10084000803F2DD0B5F5003F56D12FE0A0682D494F
:1008500000F04CFA064651E0E068032100F046FA49
:1008600006464BE0E068082100F040FA064645E005
:10087000E068102100F03AFA06463FE020690321C3
:1008800000F034FA064639E02069082100F02EFA1B
:10089000064633E02069102100F028FA06462DE0D4
:1008A0006068082100F022FA064627E060681021FF
:1008B00000F01CFA064621E0A069012100F016FABA
:1008C00006461BE0A069022100F010FA064615E07A
:1008D000A069042100F00AFA06460FE00FE0A069C3
:1008E000702100F003FA064608E06068042100F079
:1008F000FDF9064602E0FFE7002600BF00E0002603
:10090000304670BD010101001AB143690B434361D8
:1009100002E043698B434361704730B502460020D3
:100920000023146824F002041460146844F00104E5
:10093000146000E05B1C546804F001041CB94FF61D
:10094000FF74A342F6D1546804F001040CB90020EE
:100950006CE08C79012C04D1146844F0800414609C
:1009600003E0146824F080041460CC79012C04D1D5
:10097000146844F04004146003E0146824F0400458
:1009800014600C7A012C04D1146844F02004146023
:1009900003E0146824F0200414604C7A012C04D184
:1009A000146844F01004146003E0146824F0100488
:1009B00014608C7A012C04D1146844F0080414608B
:1009C00003E0146824F008041460CC7A012C04D1EC
:1009D000146844F00404146003E0146824F0040470
:1009E00014608C78A407CD7844EA05640D7944EA54
:1009F00005444D7944EA05540D886D1E2C43D4619D
:100A0000146824F001041460002300E05B1C5468A7
:100A100004F001041CB14FF6FF74A342F6D15468F0
:100A200004F001040CB1002000E0012030BD10B53D
:100A300000F5D87303EB01131B6803F00403137272
:100A4000137A53B900F5D87303EB01131B6840F216
:100A5000FF7404EA5353136009E000F5D87303EB05
:100A600001131B686FF0604404EAD303536000F580
:100A7000D87303EB01131B6803F00203537200F5F4
:100A8000D87303EB01135B6803F00F03937200F557
:100A9000D87303EB01135B681B0AD37400F5D8739A
:100AA00003EB01139B68D37200F5D87303EB0113BA
:100AB0009B681C0A147300F5D87303EB01139B6841
:100AC0001C0C547300F5D87303EB01139B681B0EC9
:100AD000937300F5D87303EB0113DB68D37300F550
:100AE000D87303EB0113DB681C0A147400F5D87388
:100AF00003EB0113DB681C0C547400F5D87303EB93
:100B00000113DB681B0E937421B9C36843F0200303
:100B1000C36003E0036943F02003036110BD0021BB
:100B20008171C171017241728172C1728170C17033
:100B3000032101710221417101210180704710B52B
:100B400002460020936803F08063B3F1806F00D108
:100B500010E0936803F00063B3F1006F01D101204E
:100B600008E0936803F08053B3F1805F01D1022065
:100B700000E00420042874D002F5C07303EB0013D6
:100B80001B6803F0010402F5C07303EB00131C6043
:100B90000B7A7BB94B7A0C8843EA445302F5C07454
:100BA00004EB00142468234302F5C07404EB001422
:100BB000236010E00B7A4C6843EAC4034C7A234369
:100BC00002F5C07404EB00142468234302F5C074DA
:100BD00004EB001423608B7A03F00F038B7202F591
:100BE000C07303EB00135B6823F00F0402F5C073BE
:100BF00003EB00135C6002F5C07303EB00135B684A
:100C00008C7A234302F5C07404EB001463608B7B81
:100C10001C064B7B44EA03440B7B44EA0323CC7A57
:100C2000234302F5C07404EB0014A3608B7C1C0604
:100C30004B7C44EA03440B7C44EA0323CC7B2343F0
:100C400002F5C07404EB0014E36002F5C07303EB1B
:100C500000131B6843F0010402F5C07303EB00139B
:100C60001C6010BD10B504462068A0F201200828C1
:100C700030D2DFE800F004090F15201B252A214699
:100C8000154802F0FDFC25E021461348443002F0EF
:100C9000F7FC1FE021461048883002F0F1FC19E013
:100CA00021460D48CC3002F0EBFC13E021460B4806
:100CB00002F0E6FC0EE02146094802F0E1FC09E002
:100CC0002146084802F0DCFC04E02146064802F018
:100CD000D7FC00BF00BF10BD5C020020B0030020A5
:100CE0006C030020F403002038040020024600209A
:100CF00002EA01030BB1012000E000207047000070
:100D000010B52F4800F03CFA02F052FD2C49086063
:100D10002C48C8602C48C1F89401DFED2C0A9FEDE7
:100D20002C0A2C4A00212648C03000F077FEDFED67
:100D30002A0AB3EE020A294A00212148703000F045
:100D40006DFEB1EE0C0A1E4880ED590AB9EE0C0A90
:100D500080ED5A0A4FF48051A0F862119FED1E0AEF
:100D600080ED5C0A90ED5F0A80ED600ADFED170A06
:100D70009FED170A1A4A002100F5127000F04EFE8E
:100D8000DFED150AB2EE0E0A164A0021164800F0F1
:100D900045FE9FED160A0A4880EDBB0A9FED140A36
:100DA00080EDBC0A4FF48051A0F8EA129FED0A0AC8
:100DB00080EDBE0A90EDC10A80EDC20A10BD0000B0
:100DC0007C0400206C030020B003002000409C4500
:100DD0000060EA46EC44000800000000F844000807
:100DE000044500081045000874060020CDCC4C3F97
:100DF000CDCCCCBF10B5184800F0C2F9164800F0B1
:100E00003BFB15480C3002F055FD144802F052FD32
:100E1000114890ED3A0ABDEEC00A10EE100A00B279
:100E20000F4908800C4890ED9C0ABDEEC00A10EEF8
:100E3000100A00B20B49088002F0FEFF0A49088040
:100E40000846B0F900200748B0F900100448B0F98E
:100E5000000001F0AFF810BD7C0400201006002057
:100E600044000020460000204800002010B5044641
:100E7000207D00F04000D8B1254890ED000ADFED5C
:100E8000250AB4EEE00AF1EE10FA07DD90ED000A53
:100E9000F2EE040A30EE600A80ED000A1C4890ED84
:100EA000000ABDEEC00A10EE100A00B2208004E075
:100EB0009FED190A164880ED000A207D00F08000A1
:100EC000D8B1134890ED010ADFED140AB4EEE00A40
:100ED000F1EE10FA07D290ED010AF2EE040A30EEBC
:100EE000200A80ED010A0A4890ED010ABDEEC00A11
:100EF00010EE100A00B2208004E09FED070A0448BB
:100F000080ED010A01F08AFEFFF774FF10BD0000BA
:100F100038000020000025C4000000000000254427
:100F20000246094B9A4201D2084801E006481038AF
:100F300001F000531BB1064B0B40C36002E0044BB1
:100F40000B40836070470000106402400060024064
:100F50007D0F7D0F21B1026842F00102026003E0C3
:100F6000026822F00102026070470000016821F06F
:100F7000010101600021016041608160C160016187
:100F8000212141614A49884204D13D21484A103A11
:100F900091608CE046491831884205D14FF4746164
:100FA000434A103A916082E041493031884205D18C
:100FB0004FF474113E4A103A916078E03C49483150
:100FC000884205D14FF07461394A103A91606EE061
:100FD00037496031884204D13649354A103AD160E8
:100FE00065E033497831884204D13349304A103AB8
:100FF000D1605CE02E499031884204D12F492C4ABF
:10100000103AD16053E02A49A831884205D14FF007
:101010003D51274A103AD16049E02949884204D11C
:101020003D21274A083A116041E02549183188429C
:1010300005D14FF47461224A083A116037E0204923
:101040003031884205D14FF474111D4A083A1160BD
:101050002DE01B494831884205D14FF07461184A90
:10106000083A116023E016496031884204D11149E1
:10107000134A121F11601AE011497831884204D1D5
:101080000D490F4A121F116011E00D49903188423D
:1010900004D10A490A4A121F116008E00849A83120
:1010A000884204D14FF03D51054A121F116070472C
:1010B000106002403D000020400F002000003D2055
:1010C0001064024021B1026842F48022026003E011
:1010D000026822F480220260704722B1036843F460
:1010E0000023036003E0036823F40023036001612D
:1010F00070470146486880B27047014600200A6880
:1011000002F400220AB1012000E000207047000034
:1011100010B500220268134B1A40CC680B682343B9
:101120004C6923438C692343CC6923430C6A2343D2
:101130004C6A23438C6A23434C6B23438C6B2343BD
:101140001A430260426922F00702D1E90B342343BB
:101150001A4342610B6943604B6883608B68C360CC
:1011600010BD00003F801CF04160704770470000D8
:1011700047F6FF70014908607047000024080040EE
:1011800010B5044604B910BDD4F89421126891B288
:10119000164AB2F8EA0202F0DDFC84EDBD0AD4F88A
:1011A0009401B0F9400000EE100AB8EEC00ADFED7D
:1011B000100A20EE200A84EDC10AE268126891B29A
:1011C0000A4AB2F8620102F0C5FC84ED5B0AE068ED
:1011D000B0F9400000EE100AB8EEC00ADFED040AD4
:1011E00020EE200A84ED5F0A00BFCCE77C040020DB
:1011F0005077D63DB0EE401AF0EE601A10B99FED70
:101200009C0A704790ED120A80ED130A90ED110AC6
:1012100080ED120AC0ED081A80ED091A31EEC10AFC
:1012200080ED110AD0ED110AF5EEC00AF1EE10FAC8
:101230000FDD9FED900A30EE600AB4EEE00AF1EEA9
:1012400010FA06D29FED8B0A30EEC00A80ED110A2B
:1012500018E0F5EEC00AF1EE10FA11D29FED850A02
:1012600030EE800AB1EE602AB4EEC20AF1EE10FA56
:1012700006D29FED800A30EE800A80ED110A01E06F
:10128000C0ED110A90ED110AB1EE400A80ED110A8D
:10129000017800297FD190ED010A90ED112A20EE0E
:1012A000020A80ED0B0A90ED0C0A90ED022AD0EDB7
:1012B000112A02EE220A80ED0C0A90ED0F0A80ED51
:1012C000100A90ED0E0A80ED0F0A90ED110A90EDD4
:1012D000122A30EE420A80ED0E0A90ED030A90EDDC
:1012E0000E2A20EE020A80ED0D0A90ED0C0A90ED18
:1012F000052AB4EEC20AF1EE10FA02D290ED0C0A01
:1013000001E090ED050A80ED0C0A90ED0C0A90EDDD
:10131000052AB1EE422AB4EEC20AF1EE10FA02DD5D
:1013200090ED0C0A03E090ED050AB1EE400A80ED65
:101330000C0A90ED0B0A90ED0C2A30EE020A90EDAB
:101340000D2A30EE020A80ED0A0A90ED0A0A90EDAD
:10135000042AB4EEC20AF1EE10FA02D290ED0A0AA3
:1013600001E090ED040A80ED0A0A90ED0A0A90ED82
:10137000042AB1EE422AB4EEC20AF1EE10FA03DDFD
:1013800090ED0A0A04E006E090ED040AB1EE400A8E
:1013900080ED0A0A68E00178012965D190ED110A13
:1013A00090ED122A30EE420A90ED012A20EE020A58
:1013B00080ED0B0A90ED020A90ED112A20EE020A50
:1013C00080ED0C0A90ED0F0A80ED100A90ED0E0AE8
:1013D00080ED0F0A90ED110A90ED122AF0EE002A2E
:1013E00002EEC20A90ED132A30EE020A80ED0E0AD8
:1013F00090ED030A90ED0E2A20EE020A80ED0D0A10
:1014000090ED0B0A90ED0C2A30EE020A90ED0D2AB9
:1014100030EE020A90ED0A2A30EE020A80ED0A0A46
:1014200090ED0A0A90ED042AB4EEC20AF1EE10FA29
:1014300002D290ED0A0A01E090ED040A80ED0A0A5A
:1014400090ED0A0A90ED042AB1EE422AB4EEC20AE7
:10145000F1EE10FA02DD90ED0A0A03E090ED040AC5
:10146000B1EE400A80ED0A0A90ED0A0AC9E60000D2
:1014700000000000DB0FC9401CB5044604B91CBDC8
:101480009FED0D0A8DED010A9FED0B0A8DED000A0F
:101490002246694601A802F093F99DED010A04F184
:1014A0000C0000F00BF89DED000A04F5CA7000F086
:1014B00005F800BFE3E700000000000000B9704736
:1014C000D0ED590A70EE800AC0ED590AD0ED590AE4
:1014D0009FED1E1AF4EEC10AF1EE10FA08DDD0ED10
:1014E000590A9FED1B1A70EEC10AC0ED590A10E0AF
:1014F000D0ED590A9FED171AF4EEC10AF1EE10FA79
:1015000007D2D0ED590A9FED121A70EE810AC0ED94
:10151000590AD0ED590A90ED561AF4EEC10AF1EECF
:1015200010FA04DDD0ED560AC0ED590A0CE0D0EDFA
:10153000590A90ED571AF4EEC10AF1EE10FA03D2EF
:10154000D0ED570AC0ED590A00BFB8E7DB0F49409C
:10155000DB0FC940DB0F49C0F0B50A46002100236C
:10156000002400BF3DE0012505FA01F3156805EAF6
:1015700003049C4234D105684F000326BE40B543A6
:10158000056015794E00B54006683543056015794C
:10159000012D02D01579022D16D185684F00032642
:1015A000BE40B543856055794E00B54086683543E9
:1015B0008560456801268E40B5434560456896794B
:1015C0008E40B6B235434560C5684F000326BE4025
:1015D000B543C560D5794E00B540C6683543C56092
:1015E000491C1029BFD3F0BDF0B5002300244D07DE
:1015F000ED0E02FA05F3CE1000F1200555F8265045
:101600004E07F70E0F26BE40B543CF1000F120065F
:1016100046F82750CE1000F1200555F8265045EA2F
:101620000304CE1000F1200545F82640F0BD024627
:10163000002013690B400BB1012000E0002070472F
:10164000418370470183704700BFFEE710B500F08B
:1016500001F810BD00B597B00121102000F010FA7C
:101660000121880700F01CFA0121480500F008FA62
:10167000082207214248FFF7B7FF082211464048D9
:10168000FFF7B2FF4FF4C070159002208DF858009C
:1016900000208DF85A0002208DF8590001208DF8A5
:1016A0005B0015A93648FFF757FF364801F064F98B
:1016B0004FF4E13011900020ADF84800ADF84A0039
:1016C000ADF84C000C20ADF84E000020ADF85000F5
:1016D00011A92C4801F018FA01212A4801F037F924
:1016E000012240F22441274801F0E8F9012240217B
:1016F000244801F038F952208DF8400002208DF87E
:10170000410003208DF8420001208DF8430010A80D
:1017100000F046F81C48FFF729FC4FF020600190CC
:101720001848001D02901948039000200490A02042
:101730000590002006904FF48060079000200890EC
:1017400009900A904FF440300B9000200C900D90BF
:101750004FF480700E9000200F9001A90A48FFF707
:10176000D7FC01210848FFF7F5FB8C2001F008FEAB
:101770000749086001200749086017B000BD000054
:10178000001002400078004058600240400A0020EB
:10179000680000206C00002000BFFEE770470000DA
:1017A00070B5002100230F22C4781CB3174C2468A5
:1017B00004F4E064C4F5E064C4F30721C1F1040457
:1017C000E3B20A4144789C40E1B28478144021435A
:1017D0000C07210E0E4C05786155047804F01F05A6
:1017E0000124AC4005786D11AD0005F1E025C5F888
:1017F000004109E0047804F01F050124AC40054DC8
:101800000678761145F8264070BD00000CED00E02A
:1018100000E400E080E100E002490143024A116077
:10182000704700000000FA050CED00E0B0EE401A31
:1018300010B99FED790A704790ED120A80ED130AF6
:1018400090ED110A80ED120AC0ED080A80ED091A28
:1018500030EEC10A80ED110A0178002975D190EDB2
:10186000010AD0ED111A20EE210A80ED0B0A90ED4D
:101870000C0AD0ED021A90ED112A01EE820A80EDD9
:101880000C0A90ED0F0A80ED100A90ED0E0A80ED23
:101890000F0A90ED110AD0ED121A30EE610A80EDB8
:1018A0000E0A90ED030AD0ED0E1A20EE210A80ED0B
:1018B0000D0A90ED0C0AD0ED051AB4EEE10AF1EE36
:1018C00010FA04DD90ED050A80ED0C0A10E090EDB1
:1018D0000C0AD0ED051AF1EE611AB4EEE10AF1EE50
:1018E00010FA05D290ED050AB1EE400A80ED0C0A1F
:1018F00090ED0B0AD0ED0C1A30EE210AD0ED0D1A46
:1019000030EE210A80ED0A0A90ED0A0AD0ED041AA1
:10191000B4EEE10AF1EE10FA04DD90ED040A80ED78
:101920000A0A76E090ED0A0AD0ED041AF1EE611A87
:10193000B4EEE10AF1EE10FA6BD290ED040AB1EECA
:10194000400A80ED0A0A64E0FFE70178012960D1CE
:1019500090ED110AD0ED121A30EE610AD0ED011AA5
:1019600020EE210A80ED0B0A90ED020AD0ED111A4B
:1019700020EE210A80ED0C0A90ED0F0A80ED100A8E
:1019800090ED0E0A80ED0F0A90ED110AD0ED121ABB
:10199000B0EE002A02EE610AD0ED131A30EE210AF1
:1019A00080ED0E0A90ED030AD0ED0E1A20EE210A0A
:1019B00080ED0D0A90ED0B0AD0ED0C1A30EE210AE5
:1019C000D0ED0D1A30EE210AD0ED0A1A30EE210AC0
:1019D00080ED0A0A90ED0A0AD0ED041AB4EEE10A8D
:1019E000F1EE10FA04DD90ED040A80ED0A0A10E031
:1019F00090ED0A0AD0ED041AF1EE611AB4EEE10A94
:101A0000F1EE10FA05D290ED040AB1EE400A80ED35
:101A10000A0A90ED0A0A0EE70000000000B102B9C0
:101A20007047017092ED001A80ED011A92ED011AD3
:101A300080ED021A92ED021A80ED031A80ED040A7D
:101A4000C0ED050A9FED0C1A80ED101A80ED0F1AFB
:101A500080ED0E1A9FED081A80ED0A1A80ED0D1A1E
:101A600080ED0C1A80ED0B1A80ED131A80ED121A1E
:101A700080ED111A00BFD3E700000000704700009E
:101A800029B1064A12680243044B1A6004E0034A73
:101A900012688243014B1A607047000030380240E0
:101AA00029B1064A12680243044B1A6004E0034A53
:101AB00012688243014B1A607047000040380240B0
:101AC00029B1064A12680243044B1A6004E0034A33
:101AD00012688243014B1A607047000020380240B0
:101AE00029B1064A12680243044B1A6004E0034A13
:101AF00012688243014B1A6070470000443802406C
:101B000029B1064A12680243044B1A6004E0034AF2
:101B100012688243014B1A6070470000243802406B
:101B2000F0B5002100220024022500260223324FB6
:101B30003F6807F00C0121B1042905D0082937D1ED
:101B400005E02E4F076036E02D4F076033E02A4F47
:101B50003F1F3F68C7F38056274F3F1F3F6807F07E
:101B60003F036EB1264FB7FBF3F7DFF88CC0ACF143
:101B7000040CDCF800C0CCF3881C07FB0CF40CE070
:101B80001E4FB7FBF3F7DFF870C0ACF1040CDCF8C4
:101B900000C0CCF3881C07FB0CF4174F3F1F3F68B5
:101BA000C7F301477F1C7D00B4FBF5F7076002E037
:101BB000124F076000BF00BF0F4F3F6807F0F001F2
:101BC0000909104F7A5C0768D74047600A4F3F68A1
:101BD00007F4E051890A0B4F7A5C4768D740876069
:101BE000054F3F6807F46041490B064F7A5C476830
:101BF000D740C760F0BD0000083802400024F40060
:101C0000001BB7000400002070B590B004460E46DB
:101C1000154601214A48FFF733FF01211020FFF745
:101C20005FFF01211020FFF76BFF00211020FFF75D
:101C300067FF072211464348FFF7D6FC80200E902D
:101C400002208DF83C0000208DF83E0003208DF826
:101C50003D0000208DF83F000EA93A48FFF77CFCBC
:101C6000394800F089FE39480A900020ADF82C0070
:101C7000ADF82E004FF48060ADF830000420ADF8D0
:101C800032000020ADF834000AA92F4800F03CFFD4
:101C9000012240212C4800F066FE10212A4800F065
:101CA0004DFE012240F22441274800F007FF0121A8
:101CB000254800F04CFE25208DF83C0004208DF8CE
:101CC0003D0000208DF83E0001208DF83F000FA858
:101CD000FFF766FD1E48FFF749F94FF000600190DD
:101CE0001948001D02900394002004900595069069
:101CF0004FF4806007900020089009904FF48070A6
:101D00000A904FF440300B9000200C900D900E90F4
:101D10000F9001A90E48FFF7FBF9002231460C484D
:101D2000FFF7DBF901210A48FFF7CCF90021084849
:101D3000FFF710F901210648FFF70CF910B070BD4C
:101D4000020040000004024000100140A086010093
:101D50004064024000B101B970470278437842EA1A
:101D60000322C2F30A020A804278D210837842EA40
:101D70004312C2F30A024A8082789211C37842EA7F
:101D80008302037942EA8322C2F30A028A8002793B
:101D90005210437942EAC312C2F30A02CA8042795E
:101DA000C2F301128A72427912119308CB728279BE
:101DB000C37942EA032212B28A81027A437A42EA62
:101DC000032213B201F10C02CB81827AC37A42EA78
:101DD000032213B201F10C020B82037B8B74437B51
:101DE000CB74827BC37B42EA03228A82027C437CDF
:101DF00042EA032212B20A810A88A2F5806212B274
:101E00000A804A88A2F5806212B24A808A88A2F5C6
:101E1000806212B28A80CA88A2F5806212B2CA8039
:101E20000A89A2F5806212B20A8100BF94E7704766
:101E30000CB50020019000904148006840F48030CB
:101E40003F49086000BF3E48006800F40030009041
:101E50000198401C0190009818B90198B0F5A04F66
:101E6000F1D13748006800F4003010B10120009033
:101E700001E0002000900098012860D130484030F7
:101E8000006840F080502E49403108602D480068BD
:101E900040F440402B490860294808300068284930
:101EA000083108600846006840F4004008600846B1
:101EB000006840F4A05008602348091F0860081F0C
:101EC000006840F08070091F086000BF1C4800686F
:101ED00000F000700028F9D01A48006840F4803003
:101EE0001849086000BF1748406800F48030002897
:101EF000F9D01448006840F400301249086000BF6F
:101F00001048406800F400300028F9D040F2057015
:101F10000E4908600A480830006820F003000849AC
:101F2000083108600846006840F00200086000BF01
:101F300003480830006800F00C000828F8D10CBDF8
:101F400000380240007000400C5A4007003C02403C
:101F5000F0B585B004460D4616461F464FF4007096
:101F6000009000208DF808008DF8090008208DF8F9
:101F70000A00200A8DF80B00E1B28DF80C10290A36
:101F80008DF80D10E9B28DF80E10310A8DF80F1092
:101F9000F1B28DF81010390A8DF81110F9B28DF8E0
:101FA000121069460248FEF7CAFD05B0F0BD0000F8
:101FB0000064004070B586B004460D46164640F2F7
:101FC000FF10019000208DF80C008DF80D00082006
:101FD0008DF80E00200A8DF80F008DF81040290AA8
:101FE0008DF811108DF81250310A8DF813108DF8FC
:101FF000146000218DF815108DF8161001A9024803
:10200000FEF79DFD06B070BD0064004010B560484D
:1020100090ED000A5F4880ED000A5F4890ED000AED
:102020005B4880ED000A5D4890ED000A5848D0ED0D
:10203000000A20EE200A5948D0ED010A554890EDDB
:10204000001A01EE200A5648806AB0F9400000EEFE
:10205000900AF8EEE00A9FED531A60EE810A4F48AD
:1020600090ED021A00EE810A4B4880ED000A4C48C0
:10207000806AB0F9400000EE100AB8EEC00ADFED49
:10208000490A20EE200A464880ED0C0A806A806BDF
:10209000122805D16FF010004149896A886308E071
:1020A0003F48806A806B123018B911203C49896A18
:1020B00088633B48806A806800EE100AB8EEC00A68
:1020C000DFED390A20EE200A354880ED0E0A4FF484
:1020D00080613648FFF7ABFA314981F8580008466D
:1020E00090F8430081F84500084690F8440081F8D4
:1020F00046002F480068807C81F843002C48006827
:10210000C07C81F84400084690F8430058B1084666
:10211000B0F84800C8280ADA0846B0F84800401C61
:10212000A1F8480003E000201D49A1F848001C4820
:1021300090F8440060B11A48B0F84A00C8280BDA99
:102140001748B0F84A00401C1549A1F84A0003E0BE
:1021500000201349A1F84A001648007890B11448AD
:102160000068C07A02280DD10D48B0F84C00B0F5D7
:10217000C87F0BDA0A48B0F84C00401C0849A1F8A7
:102180004C0003E000200649A1F84C0010BD0000FF
:10219000300000202C00002034000020E044000823
:1021A000F8010020F1A23E3BC2B8B2370014024051
:1021B0001C0000202000002048480068C07A012848
:1021C0000AD147480078012806D04648007818B957
:1021D00001204449087014E040480068C07A012892
:1021E00006D13F480078012802D03E48007828B93F
:1021F0003A480068808A00F4807010B100203949A4
:10220000087036480068C07A03280CD1334800684B
:10221000808A00F4007030B13248007818B901208B
:102220003049087011E02D480068C07A03280CD1AD
:102230002A480068808A00F4807030B1294800780C
:10224000012802D10020274908702648007801287B
:102250003CD122480068C07A022803D12048007887
:1022600002280FD1204890F8430018B11E4890F87A
:10227000450038B11C4890F8440060B11A4890F805
:10228000460040B90220174908701748B0F85E00B0
:102290001549A1F860001448B0F84800C8280AD0D1
:1022A0001148B0F84A00C82805D00F48B0F84C00D3
:1022B000B0F5C87F0AD10B480078032806D00A4839
:1022C00090F8580010B902200649087003480068C9
:1022D000C07A40B202490870704700001C0000201C
:1022E0002800002020000020F8010020042808D148
:1022F0004FF0E021096941F004014FF0E022116143
:1023000007E04FF0E021096921F004014FF0E022DD
:10231000116170477047000010B51548006840F41F
:102320007000134908601348006840F0010011492B
:10233000086000200F49083108600E4800680E4907
:1023400008400C4908600D48091D0860081F006816
:1023500020F48020091F0860002006490C31086025
:10236000FFF766FD4FF0006001498039086010BD3D
:1023700088ED00E000380240FFFFF6FE1030002438
:102380001FB501211020FFF78BFB36208DF80000D0
:1023900001208DF8010000208DF8020001208DF849
:1023A00003006846FFF7FCF95920ADF8040000204F
:1023B000ADF80600ADF80C0041F28830029001A99A
:1023C000084800F015F90121064800F045F80122FF
:1023D0001146044800F06CF80121024800F036F87C
:1023E0001FBD00000010004010B501210F4800F093
:1023F0004EF8C8B101210D4800F02BF801210B481F
:1024000000F024F801F0D4F90446FEF72FFD084847
:102410000068401C064908604CF2503190FBF1F214
:1024200001FB12000249086010BD000000100040CE
:102430000000002021B1028842F08002028004E006
:1024400002884FF67F731A4002807047CA430282A7
:102450007047CA430282704721B1028842F00102EC
:10246000028004E002884FF6FE731A400280704733
:1024700031B1B0F8442042F40042A0F8442005E015
:10248000B0F84420C2F30E02A0F84420704730B5E3
:102490000246002000230024158A05EA01039589DD
:1024A00005EA010413B10CB1012000E0002030BDA9
:1024B0001AB183890B43838102E083898B43838133
:1024C0007047000070B5002400220023058C4FF6F1
:1024D000FE7635400584028C8388048B4FF68F7519
:1024E0002C40B51E2C400D882C43751E2A408D892A
:1024F0002A434D882A43104DA84202D00F4DA842CE
:1025000013D14FF6F7752A40CD892A434FF6FB7554
:102510002A408D882A434FF6FF652B404FF6FF5522
:102520002B400D8A2B434D8A2B43838004838D6877
:102530004563028470BD00000000014000040140BA
:102540000A460021018B4FF6F773194011430183AE
:102550007047000070B5002200230024058C4EF661
:10256000FF7635400584038C8488828B48F6FF759E
:102570002A404FF6FF452A400D884FF6FF7606EABF
:1025800005252A434DF6FF752B408D8906EA053552
:102590002B434D8806EA05352B430A4DA84202D04D
:1025A000094DA84208D14BF6FF752C400D8A4FF615
:1025B000FF7606EA85152C43848082838D68056446
:1025C000038470BD00000140000401400A46002160
:1025D000818B4FF2FF7319404FF6FF7303EA02231A
:1025E000194381837047416370470164704700005D
:1025F00000220288184B98420ED0184B98420BD0FC
:10260000B0F1804F08D0164B984205D0154B984238
:1026100002D0154B984204D14FF68F731A404B8865
:102620001A43124B984207D0114B984204D04FF6F0
:10263000FF431A400B891A4302804B68C3620B8820
:102640000385054B984202D0044B984201D18B7A06
:10265000038601238382704700000140000401408B
:102660000004004000080040000C00400010004042
:102670000014004010B501F09BF82549086025487A
:1026800025498862DFED250A9FED250A254A0021AC
:102690002548FFF7C3F9FFF7B9FC9FED241ADFEDDA
:1026A000240A9FED240A1C4801F0E0FA9FED1F1A4E
:1026B000DFED1F0A9FED1F0A1748143001F0D6FA0C
:1026C0000020154981F842000846806A806800EEC3
:1026D000100AB8EEC00ADFED180A20EE200A0846FC
:1026E00080ED0E0A0020A1F8400081F84E00084657
:1026F00090ED0E0A80ED0F0A9FED100A80ED0C0A96
:102700009FED0E0A80ED0D0A0020A1F85E0010BDBD
:102710001C000020F4030020F801002000401C45AC
:1027200000409C45D4440008A801002000007A44E1
:1027300000C0A8440AD7233CC2B8B237000000004A
:1027400030B5B7B040F224411B4800F08DF90028A5
:102750002FD019480088C5B21748001D0088C5B29F
:1027600001201649086000211548FEF7F3FB1448C4
:10277000FEF7BFFCC0F1A000C5B2124805700024EE
:1027800006E01148015D1148006800F039FE641C44
:10279000AC42F6DBA0200A495839C8650121084837
:1027A000FEF7D8FB094800680190A52101A801F0B7
:1027B000A9FD37B030BD0000007800407000002057
:1027C0005860024074000020400A00206800002089
:1027D00010B540F22551314800F046F918B12F48A4
:1027E00000F0FCF959E040F224412C4800F03CF99B
:1027F000002852D0294800F0F1F92948FEF77DFC65
:1028000028BB00212648FEF7A5FB2548FEF771FCF2
:10281000C0F124002349088024212148FEF7A4FCAC
:102820001F48006840F400201D4908601E491C48EC
:10283000FEF776FB01211A48FEF78CFB1948008849
:1028400012282AD119491A48FFF784FA25E00021F5
:102850001348FEF77FFB1248FEF74BFCC0F1240043
:102860001049088024210E48FEF77EFC0C480068C1
:1028700020F400200A4908600B490948FEF750FB84
:1028800001210748FEF766FB06480088122804D19C
:10289000064907482430FFF75DFA10BD00100140DB
:1028A000406402401A00002000003010480100205F
:1028B0005E01002010B540F225511D4800F0D4F80B
:1028C00010B31B4800F08AF9C4B21A48008800F41B
:1028D0000040C8B91748008800F4804060B10A2C55
:1028E00003D000201349088020E01248008840F4FB
:1028F00000401049088019E00D2C06D10D480088D1
:1029000040F480400B49088010E00A480088C0F37A
:102910000D0009490C5407480088401C05490880EF
:1029200008460088C72801DD0020088010BD00008F
:1029300000140140180000208000002001F4007203
:10294000B2F5007F00D100BFCA430280704721B1B9
:10295000828942F40052828104E082894DF6FF733D
:102960001A40828170471AB1838A0B43838202E046
:10297000838A8B438382704710B504463248844271
:1029800008D101211020FFF7BBF800211020FFF72C
:10299000B7F857E02D48844209D101214804FFF7D8
:1029A0008FF800214FF40030FFF78AF84AE02848FA
:1029B000844209D101218804FFF782F800214FF4F5
:1029C0008020FFF77DF83DE02248844209D10121B3
:1029D000C804FFF775F800214FF40020FFF770F8E6
:1029E00030E01D48844209D101210805FFF768F84D
:1029F00000214FF48010FFF763F823E0174884426A
:102A000008D101212020FFF77BF800212020FFF7CB
:102A100077F817E01248844209D101218807FFF7AF
:102A20004FF800214FF08040FFF74AF80AE00D48C8
:102A3000844207D101214005FFF742F800216005DB
:102A4000FFF73EF810BD00000010014000440040B8
:102A500000480040004C004000500040001401407D
:102A600000780040007C004070B50246002400233E
:102A70000025002040F66A16B14200D100BFC1F324
:102A8000421501F01F03012606FA03F3012D02D1BE
:102A90009689334006E0022D02D1168A334001E0C8
:102AA000968A33400C12012606FA04F41688344044
:102AB00013B10CB1012000E0002070BDF0B5034659
:102AC000002400260025002040F66A17B94200D1F4
:102AD00000BF1846C1F3421401F01F06012707FA90
:102AE00006F5012C01D10C3004E0022C01D110308C
:102AF00000E014301AB107682F43076002E007684E
:102B0000AF430760F0BD00002DE9FF4705460E46C4
:102B10000024A14600BFA046B08900B100BF2C8AA6
:102B200024F44054F08804432C82AC8941F20C60B8
:102B30008443B08831890843718908430443AC81D8
:102B4000AC8A24F44074B0890443AC826846FEF732
:102B5000E7FF2048854202D01F48854202D1DDF8B8
:102B60000C9001E0DDF80890A88900F4004040B125
:102B700009EBC90000EB091031684900B0FBF1F71F
:102B800007E009EBC90000EB091031688900B0FBD0
:102B9000F1F76420B7FBF0F004012009642101FB88
:102BA0001078A88900F4004040B1322000EBC80042
:102BB000B0FBF1F000F00700044308E0322000EB26
:102BC00008106421B0FBF1F000F00F0004432C81E9
:102BD000BDE8FF87001001400014014001468888CD
:102BE000C0F30800704700BFFEE72DED020B01980F
:102BF00020F0004001909DED000B02B0704702E014
:102C000008C8121F08C1002AFAD170477047002077
:102C100001E001C1121F002AFBD1704770B50024EA
:102C2000304800F061F82F4800F096FA2D4800680F
:102C3000B0F9000001EE900AF8EEE11AB0EE611A68
:102C40002848D0ED851AF1EE611AF0EE610AD0ED58
:102C5000841AF1EE611AB0EE610A00F0FDFA00BFCD
:102C600019E02049143101EB041191ED021AF0EE44
:102C7000410A1C49143101EB041191ED011AB0EE27
:102C8000410A04EB84021749543101EB0210FEF7AC
:102C9000CDFD601CC4B2042CE3DB002413E004EB84
:102CA00084011048543000EB011090ED0A0ABDEE8B
:102CB000C00A10EE100A01B20A48143000EB0410EA
:102CC0008181601CC4B2042CE9DB064DB5F950309B
:102CD000B5F94020B5F93010B5F92000FFF738F903
:102CE00070BD0000B407002070B50446002500BF89
:102CF00028E005EB0510424901EB8000B0F94000E7
:102D000000EE100AB8EEC00ADFED3E0A20EE200AFF
:102D100004F1140000EB051080ED010A05EB8501BC
:102D200004F1540000EB011090ED0E0ADFED360ABD
:102D300020EE200A04F1140000EB051080ED000ADB
:102D4000681CC5B2042DD4DB94ED060AB1EE400A2E
:102D5000D4ED0A0A30EE200AD4ED0E0A30EE600AF5
:102D6000D4ED120A30EE200AF5EE000A20EE200A19
:102D700084ED810A94ED060AD4ED0A0A30EE200AA9
:102D8000D4ED0E0A30EE600AD4ED120A30EE600A7D
:102D9000F5EE000A20EE200A84ED820A94ED060A80
:102DA000D4ED0A0A30EE200AD4ED0E0A30EE200AE5
:102DB000D4ED120A30EE200AB1EE400ADFED130A1C
:102DC00080EE201A84ED831A6068D0ED580AB0EEC8
:102DD000600A9FED0F1ADFED0F0A00F051FE84ED3F
:102DE0008E0AA068D0ED580AB0EE600A9FED081A6E
:102DF000DFED080A00F044FE84ED8F0A70BD00008C
:102E00005C0200200A01DA3900007A447A14CE3FCD
:102E1000DB0F4940DB0F49C02DE9F04107460E4664
:102E200015461C4617B10EB105B10CB9BDE8F081CD
:102E300022463146384600F0E1F82068007D00F077
:102E4000200058B13248007858B901203049087044
:102E50009FED300A304880ED000A02E000202C4946
:102E600008702068007D00F0010070B92068007DC6
:102E700000F0020048B92068007D00F0040020B98D
:102E80002068007D00F0080028B19FED240A244846
:102E900080ED000A04E09FED230A214880ED000A3E
:102EA0001B480078B0B11C4890ED000AFDF7D6F938
:102EB0001B48D0ED000A20EE200A1B4880ED000AD6
:102EC000154890ED000ADFED190A30EE200A80ED7A
:102ED000000A04E09FED0F0A134880ED000A0E4837
:102EE00090ED000ADFED120AB4EEE00AF1EE10FAFE
:102EF00007DD90ED000ADFED0E0A30EE600A80ED8E
:102F0000000A094890ED000A85ED000A00BF8DE730
:102F10006400002000000000580000207CD9A03E82
:102F2000600000203333333F5C0000202EE34D3C33
:102F3000DB0FC94010B500F03BFC2449086000F0ED
:102F40003BFC2249486000F02FFC204988600024A7
:102F50000EE004EB84021D49543101EB0210DFED59
:102F60001C0A9FED1C0A1C4A0021FEF757FD641C39
:102F7000042CEEDBDFED190AB1EE080A184A002135
:102F80001848FEF74BFD18499FED180A15485030B8
:102F900000F08AFA16499FED150A1248603000F0D9
:102FA00083FAB0EE080A094880ED8A0AB8EE080AEA
:102FB00080ED8B0A9FED0F0A80ED8C0A9FED0E0AC3
:102FC00080ED8D0AFFF790FE10BD0000B4070020D1
:102FD0000000FA440000FA451C450008CDCC4C3EE8
:102FE0002845000848090020344500086F12833A3C
:102FF000384500089A9939409A9939C02DE9F0412D
:103000002DED028B0746884614461CB117B1B8F166
:10301000000F03D1BDEC028BBDE8F0812068B0F950
:1030200006000A2805DC2068B0F9060010F10A0F36
:1030300003DA2068B0F9065000E000252068B0F9F6
:1030400004000A2805DC2068B0F9040010F10A0F1A
:1030500003DA2068B0F9046000E0002600EE105AA0
:10306000B8EEC00ADFED350A20EE208A00EE106AC5
:10307000B8EEC00ADFED320A60EE208A2068007DDB
:1030800000F0010020B194ED8A0AB0EE408A08E019
:103090002068007D00F0020018B194ED8B0AB0EEBC
:1030A000408A2068007D00F0040020B194ED8C0A75
:1030B000F0EE408A08E02068007D00F0080018B1BA
:1030C00094ED8D0AF0EE408AB0EE480A04F5F270F5
:1030D00000F0BFF9B0EE680A04F5FA7000F0B9F933
:1030E0009FED180AB4EEC08AF1EE10FA0AD29FEDF5
:1030F000160AB4EEC08AF1EE10FA03DD9FED130A52
:1031000084ED7A0A9FED120AF4EEC08AF1EE10FA0D
:103110000AD29FED100AF4EEC08AF1EE10FA03DD38
:103120009FED0A0A84ED7E0A94ED7A0A87ED000A83
:1031300094ED7E0A88ED000A00BF6BE7A69BC4BB36
:103140000AD7A33B90C2753D90C275BD0000000038
:10315000CCCC4C3DCCCC4CBD10B52DED028B84B00D
:1031600004461CB904B0BDEC028B10BD9FED370ABC
:103170008DED030A9FED350A8DED020A9FED330AAE
:103180008DED010A234601AA02A903A8FFF744FE18
:103190009FED2E0AB0EE408A9FED2C0AF0EE408A99
:1031A0006068D0ED580AF1EE600AB0EE600AFDF7F3
:1031B00055F8B0EE408A6068D0ED580AF1EE600A2A
:1031C000B0EE600AFDF70EF8F0EE408A9DED030ABE
:1031D00028EE800ADDED020A08EE600A84ED840A1A
:1031E0009DED030A28EE000ADDED020A08EEA00AB2
:1031F00084ED850A9FED161ADFED160A9DED010A92
:1032000000F03EFC84ED880AD4ED8A1AB0EE611A13
:10321000D4ED8B1AF0EE610AD4ED841AB0EE610A97
:1032200000F054F984ED840AD4ED8C1AB0EE611AE2
:10323000D4ED8D1AF0EE610AD4ED851AB0EE610A74
:1032400000F044F984ED850A00BF8BE70000000020
:10325000DB0F4940DB0F49C0B0EE002AF0EE421A06
:1032600023480068007D00F0100020B1B7EE082A66
:10327000F0EE421A03E0B0EE002AF0EE421AB1EE90
:10328000402A32EE202ADFED1B2A01EE222A1848BE
:1032900080ED072A30EE202ADFED162A01EE222AE1
:1032A00080ED0B2AB1EE402A32EE602ADFED112AC2
:1032B00001EE222A80ED0F2A30EE602ADFED0D2A82
:1032C00001EE222A80ED132A00200EE00849143175
:1032D00001EB001191ED022AC2EE212A04491431BA
:1032E00001EB0011C1ED022A401C0428EEDB7047FF
:1032F000B40700200AD7A33B10B504466FF00400C2
:10330000FEF7F4FFE11704EB5171C1F3C701074A5F
:1033100011701046007800EB4001C1EBC0104FF671
:10332000FF7101EAC0000249088010BD14000020AE
:10333000160000200146114A12784A434FF0E0235C
:103340005A6100229A611A46126942F001021A611A
:1033500000BF4FF0E022106900F001021AB100F442
:103360008032002AF5D04FF0E022126922F00102EB
:103370004FF0E0231A6100229A6170471400002088
:1033800070B5044600250026182000F0ADFB054668
:103390000DB9002070BD204600F0A6FB06460EB910
:1033A0000020F7E722463146284600F01DF828465F
:1033B000F0E710B50146002000BF00BF0029FDD096
:1033C00000BF0B7D5A1C0A750A68D05C0A7DCB6869
:1033D000B2FBF3F403FB14220A758A68521C8A605C
:1033E0000A69521E0A6110BD034619608818401E02
:1033F0005860DA609A600020186118755875704737
:1034000010B5024600BF00BF002AFDD000BF906883
:10341000002802D84FF0FF3010BD537D581C507566
:103420001068C154507DD368B0FBF3F403FB140063
:1034300050759068401E90601069401C106100201B
:10344000EAE7014600BF00BF0029FDD000BF0869C0
:10345000704710EE101A0160816800EE901AC16882
:1034600001EE101A70EE811A816800EE901A80EE5B
:10347000A11A416800EE901A61EE200A816801EEFF
:10348000101AC16801EE901A31EE212A01EE101ACD
:10349000C1EE021A016801EE101A41EE810A10EE27
:1034A000901A41607047000010EE102AC2600A684E
:1034B0008260DFED050A10EE902A0260DFED020A5D
:1034C00010EE902A4260704700000000F0EE401AB3
:1034D000F4EEE01AF1EE10FA02D2B0EE600A704794
:1034E000F4EEC11AF1EE10FA02DDB0EE410AF6E791
:1034F000B0EE610AF3E7000010B504462146024829
:10350000FFF771F810BD00000000014010B504463F
:1035100021460248FFF769F810BD00000000014095
:1035200000B58BB001210846FEF7AAFA0121102050
:10353000FEF7A6FA01210846FEF7D2FA0122082179
:103540004448FEF751F801220E214348FEF74CF89B
:103550004FF48070099002208DF8280000208DF82B
:1035600029008DF82A008DF82B0009A93948FDF7AC
:10357000F3FF4FF48040099009A93748FDF7ECFFAD
:1035800001210846FEF7BCFA00210120FEF7B8FA37
:1035900040F2CF700790B320ADF818000020ADF8CE
:1035A0001A00ADF8200006A92C48FFF721F860208A
:1035B000ADF804000120ADF806000020ADF81000C1
:1035C000ADF808000820ADF812004001ADF8140075
:1035D0000020ADF816004FF47A70039001A91F483F
:1035E000FEF770FF01A91D48FEF7B4FF08211B4834
:1035F000FEF7A6FF08211948FEF7E8FF012117484A
:10360000FEF718FF01211548FEF732FF012113488C
:10361000FEF722FF00F026F801212020FEF730FA05
:103620004FF48060099000208DF828008DF82A0062
:1036300003208DF8290001208DF82B0009A90848E6
:10364000FDF78AFF4FF480610548FDF7FBFF0BB0E3
:1036500000BD0000000002400010024000000140D8
:103660000014024010B54FF47A710448FEF7BBFF16
:103670004FF47A710148FEF7B8FF10BD0000014019
:1036800010B5026842600A7BCB7A42EA03220260EC
:103690008B7B4A7B43EA022212B2A0F840200268E8
:1036A0004368D21AC260C268234B9A4207DA826B1F
:1036B000521C8263C26802F50052C2610EE0C26809
:1036C00041F64C539A4207DD826B521E8263C268F8
:1036D000A2F50052C26101E0C268C2610368826B58
:1036E00003EB4232826002688369D21A00EE102A2C
:1036F000B8EEC00ADFED110A20EE200A9FED101A85
:10370000C0EE010A826B4FF4B4735A4300EE102AE4
:10371000B8EEC00A30EE800A80ED0F0AC469027D5F
:10372000531C037500F1200343F82240027D062A52
:1037300001D10022027510BDB4E2FFFF0000B443C6
:1037400000000046014800687047000000000020AB
:1037500030B5034613B94FF6FF7030BD09E013F8DA
:10376000014B82EA0400C0B2054D35F8100080EA32
:103770002222081EA1F10101F1D11046EDE700005F
:103780003E46000830B5034605E013F8010B80EA19
:1037900002040448025D081EA1F10105A9B2F4D19A
:1037A000104630BD3D450008004870471006002017
:1037B00000487047480100200048704788040020F6
:1037C00010B508B101B102B910BD1368B3F90830E2
:1037D0000A2B05DC1368B3F9083013F10A0F04DA79
:1037E00013681B892B4C238002E00023294C238083
:1037F0001368B3F902300A2B05DC1368B3F9023001
:1038000013F10A0F04DA13685B88234C238002E06B
:103810000023214C23801F4BB3F9003000EE103AF7
:10382000B8EEC00ADFED1D0A20EE200A1368B3F9D6
:103830000C3000EE903AF8EEE00A9FED191A00EE17
:10384000810A184B83ED000A134BB3F9003000EEE8
:10385000103AB8EEC00ADFED140A20EE200A136811
:10386000B3F90E3000EE903AF8EEE00A9FED0F1A31
:1038700000EE810A0E4B83ED000A0A4B93ED000A1D
:1038800080ED000A0A4B93ED000A81ED000A00BFAB
:103890009AE70000540000205600002017B751B8E6
:1038A0006F12033A4C00002082A87BB8A69BC43A52
:1038B0005000002010B5044694ED591AF0EE410A6C
:1038C00094ED581AB0EE410A04F16400FDF792FC41
:1038D00084ED5D0A94ED5D1AF0EE410A94ED5C1AF8
:1038E000B0EE410A04F1B400FDF7A0FF84ED370A01
:1038F00010BD00002DE9F0470446254620682860E9
:1039000020792871B5F80160B4F8057004F1070852
:103910004FF0000940F20121781A8F4244D012DCA6
:1039200040F20111A7EB01008F4228D006DC012FE5
:1039300011D0022F15D0032F67D119E0012825D00F
:10394000022862D129E007285FD2DFE800F05E3468
:103950003B4249505700324641462F48FCF7B8FCDD
:1039600056E0324641462C48C01CFCF7B1FC4FE003
:10397000324641462848001DFCF7AAFC48E0324682
:1039800041462548801DFCF7A3FC41E032464146F4
:1039900021480A30FCF79CFC3AE0324641461E487A
:1039A0000E30FCF795FC33E0324641461A481130A0
:1039B000FCF78EFC2CE03246414617482030FCF7DD
:1039C00087FC25E03246414613482E30FCF780FC48
:1039D0001EE03246414610483E30FCF779FC17E0C5
:1039E000324641460C483F30FCF772FC10E032464C
:1039F000414609484130FCF76BFC09E0324641463C
:103A000005484230FCF764FC02E04FF0010900BFBA
:103A100000BFBDE8F0870000F80900201CB50121B7
:103A20004020FEF72DF84FF40050009001208DF853
:103A3000040000208DF8060003208DF80500012009
:103A40008DF8070069460348FDF786FD00F00EF883
:103A50001CBD00000018024010B54FF40051024890
:103A6000FDF7EEFD10BD00000018024010B54FF448
:103A700000510248FDF7E6FD10BD000000180240AD
:103A8000B4EEE01AF1EE10FA00D27047B4EEC10ABB
:103A9000F1EE10FA0EDD31EE602AF0EE421A03E08C
:103AA00030EE612AB0EE420AB4EEC10AF1EE10FA2D
:103AB000F6DC13E0B4EEE00AF1EE10FA0ED231EECD
:103AC000602AF0EE421A03E030EE212AB0EE420AFC
:103AD000B4EEE00AF1EE10FAF6D300BF00BFD4E76F
:103AE000FCF75EFC00BFFEE7F0B50B30154D20F093
:103AF00007010024144A0FE003688B420BD38B426A
:103B000005D95E1A43184768C3E9006700E04368B7
:103B1000136002C004E0021D10680028ECD12046AA
:103B2000002802D1286808B10020F0BD064A0748E5
:103B30001060074A121A22F00702C0E9002401208F
:103B40002860D7E77C00002078000020E40A0020ED
:103B5000E00C00200246501AB0F5805F03DDA0F5AE
:103B6000F850FF3805E010F5805F02DA41F6FF7388
:103B7000184400EE100AB8EEC00ADFED020A20EE8B
:103B8000200A7047DB0F493A1CB501218020FDF760
:103B900077FF3C20009001208DF8040000208DF874
:103BA000060003208DF8050001208DF80700694606
:103BB0000648FDF7D1FC002404E0204600F008F898
:103BC000601CC4B2042CF8DB1CBD0000001C0240C9
:103BD00010B50446032C00DD10BD0420A04081B2C6
:103BE0000248FDF72DFD00BFF6E70000001C024073
:103BF00010B50446032C00DD10BD0420A04081B2A6
:103C00000248FDF71FFD00BFF6E70000001C024060
:103C100010EE101A0160416800EE901A016801EE82
:103C2000101A016901EE901A41EE210A10EE901A65
:103C30004160416800EE901AC16801EE101AF4EE7E
:103C4000C10AF1EE10FA02DDC16841600CE0416882
:103C500000EE901A816801EE101AF4EEC10AF1EE3E
:103C600010FA01D2816841607047000010EE101A0E
:103C7000016110EE901AC16011EE101A8160DFED43
:103C8000051A11EE901A0160DFED021A11EE901A7A
:103C9000416070470000000010B524220249A1F1E4
:103CA0002400FDF7B1FF10BD8201002010B52DEDFD
:103CB000048B594890F8580001280DD1564981F8D5
:103CC0005C00002081F85D000320544908705248D0
:103CD00090ED0E0A80ED0F0A4F4890F84E00C8B9DB
:103CE0004E480078022815D14B48D0ED0F0A9FEDC1
:103CF0004C1A70EE810AB0EE600A9FED4A1ADFEDB1
:103D00004A0AFFF7BDFE444880ED0F0A01204249F0
:103D100081F84E004048D0ED0F0A90ED0E1A70EE7B
:103D2000C10AB0EE600A9FED3F1ADFED3F0AFFF7D0
:103D3000A7FEDFED3E0AB4EEE00AF1EE10FA64DD14
:103D4000B2EE000A344880ED0D0AFFF7FBFC324961
:103D500048650846406D096D401AB0F5FA7F2AD9CA
:103D60002D48406D2C49096D401AB0F52F7F22D2A5
:103D7000294890ED0C0A10EE101A0846FCF7BAFA22
:103D800041EC190BB0EE490AF0EE690AFEF72DFF7F
:103D9000B0EE408AF0EE608A9FED250B53EC102BBD
:103DA00051EC180BFCF7BAFA05D2B9EE040A1A481E
:103DB00080ED0D0A2DE01848406D1749096D401A35
:103DC000B0F52F7F1CD8144890ED0C0A10EE101A95
:103DD0000846FCF78FFA41EC190BB0EE490AF0EEF9
:103DE000690AFEF702FFB0EE408AF0EE608A9FEDAE
:103DF000100B53EC102B51EC180BFCF7A7FA08D260
:103E0000FFF7A0FC0449086503E00020024981F89F
:103E10004E00BDEC048B10BDF801002020000020F6
:103E2000DB0F493FDB0F4940DB0F49C0CDCC4C3D98
:103E30000000000000002A4010B5FEF7BDF9FEF7B3
:103E4000E5F85A48007802280BD19FED590A5948E5
:103E500080ED040A9FED580A80ED050AFFF726FF62
:103E600015E052480078032802D100F0BBF80EE0BC
:103E70004E48007801280AD19FED4F0A4D4880ED49
:103E8000040A9FED4E0A80ED050A00F0DDF8474870
:103E9000007870B99FED4A0A4A4880ED010A9FED0B
:103EA000480A80ED060AFFF7DDFBFFF7D5FD002489
:103EB0007AE0FFF7DBFD9FED440A4248FFF7A8FEDA
:103EC000404890ED010AD0ED030AB4EE600AF1EE2D
:103ED00010FA04D19FED3C0A1430FFF799FE3948DF
:103EE00090ED060AD0ED080AB4EE600AF1EE10FA81
:103EF00003D09FED360A80ED0D0A324890F8440059
:103F000010B15020324908803148008800280EDD69
:103F10009FED300A2B4880ED030A9FED2E0A80EDBD
:103F2000080A2B480088401E2949088008E09FEDB8
:103F30002A0A244880ED030A9FED270A80ED080A2B
:103F4000204890ED010ABCEEC00A10EE100A234989
:103F500008801C4890ED060ABCEEC00A10EE100A5C
:103F60001F4908801D480088FFF7C6FA1C480088D2
:103F7000FFF7CCFA134890ED0D1AF0EE410A90EDE0
:103F80000C1AB0EE410A0B48FDF750FC094890EDC1
:103F90000A0ABDEEC00A10EE100A00B20949A1F8E3
:103FA00040000846B0F94040204610BD20000020E7
:103FB00000606A46A801002000409C4500401C4566
:103FC00000007A44F80100200000C8420000000010
:103FD000260000200000AA4400C0A84422000020BF
:103FE000240000209FED150A154880ED0D0A90F879
:103FF000580001281DD1124890F85D00022807DA08
:104000000F4890F85D00401C0D4981F85D0013E0F9
:104010000B4890F85D0002280ED10948B0F85E0008
:10402000401C00B20649A1F85E0001200549087055
:1040300002E0022003490870704700000000000001
:10404000F80100202000002010B52DED048B7748EA
:1040500090F85C0018B10020744981F85C00734846
:1040600090F85800C8B9714890ED0E0A80ED0F0A1B
:104070009FED6F0A6F4880ED0A0A9FED6D0A80ED93
:104080000C0A9FED6B0A694880ED0D0A0020674914
:1040900081F84E00A1F85A00C5E0644890F8580035
:1040A00001280CD16148B0F85A00142807DA5F489B
:1040B000B0F85A00401C5D49A1F85A00B3E05B48D3
:1040C00090F858000128E7D15848B0F85A00142851
:1040D00079D1564890F84E00C0B95448D0ED0F0A37
:1040E0009FED551A70EE810AB0EE600A9FED531AEB
:1040F000DFED530AFFF7C4FC4C4880ED0F0AFFF7D1
:1041000021FB4A490865012081F84E004748D0ED5F
:104110000F0A90ED0E1A70EEC10AB0EE600A9FED24
:10412000471ADFED470AFFF7ABFCDFED460AB4EEB6
:10413000E00AF1EE10FA72DDB1EE040A3B4880EDC0
:104140000D0AFFF7FFFA394948650846406D096DC9
:10415000884206D23548006DA0F5434050383349B7
:1041600008653248406D3149096D401AB0F5FA7F53
:104170002AD92E48406D2D49096D401AB0F52F7F80
:1041800022D22A4890ED0C0A10EE101A0846FCF7CD
:10419000B1F841EC190BB0EE490AF0EE690AFEF7EE
:1041A00024FDB0EE408AF0EE608A9FED270B53ECC1
:1041B000102B51EC180BFCF7B1F805D2B9EE040A3C
:1041C0001A4880ED0D0A2EE01848406D1749096D18
:1041D000401AB0F52F7F1CD8144890ED0C0A10EE51
:1041E000101A0846FCF786F841EC190BB0EE490AA4
:1041F000F0EE690AFEF7F9FCB0EE408AF0EE608A54
:104200009FED110B53EC102B51EC180BFCF79EF8A3
:1042100009D2FFF797FA0549086504E0FFE7002097
:10422000024981F84E00BDEC048B10BDF80100205E
:1042300000000000A80100209CC4A03EDB0F494004
:10424000DB0F49C0CDCC4C3D0000000000002A40EF
:1042500010B588B0044601214020FDF711FC012172
:104260002020FDF73DFC082209212448FDF7BCF978
:1042700008220E212148FDF7B7F94FF4844006903B
:1042800002208DF81C008DF81D0000208DF81E0006
:1042900001208DF81F0006A91848FDF75DF902946A
:1042A0000020ADF80C00ADF80E00ADF81000ADF830
:1042B00014000C20ADF8120002A91148FEF724FCEE
:1042C00001210F48FEF743FB40210D48FEF736FB66
:1042D000012240F225510A48FEF7F0FB47208DF8F5
:1042E000040003208DF805008DF8060001208DF8EC
:1042F000070001A8FDF754FA08B010BD00180240ED
:104300000014014070B504460E460025A1E0206867
:10431000FFF74FF805465248057094F8D20006287A
:104320007ED2DFE800F00314213A4764B5420AD197
:10433000012004F8D20F6188481C6080D23C04F14F
:104340000A00455402E00020A4F8D40080E0258152
:10435000B4F8D410481CA4F8D40004F10A00455461
:10436000022084F8D20073E0208940EA05202081F1
:10437000B4F8D410481CA4F8D40004F10A00455441
:104380002089C12803D2032084F8D20004E0002051
:1043900084F8D200A4F8D4005AE034F8D41F20885E
:1043A000401C24F8D40904F10A004554042084F880
:1043B000D2004DE034F8D41F2088401C24F8D409E2
:1043C00004F10A004554B4F8D40005280ED10521A3
:1043D00004F10A0000F066F818B1052084F8D20054
:1043E00004E0002084F8D200A4F8D40030E0B4F84F
:1043F000D41020890930814208D234F8D41F208893
:10440000401C24F8D40904F10A004554B4F8D4102F
:1044100020890930814214D3002084F8D20000E0C2
:1044200010E0A4F8D400208900F1090104F10A0089
:1044300000F018F828B1A02E03D004F10A00FFF70D
:1044400059FA05E0002084F8D200A4F8D40000BF97
:1044500000BF2068FEF7F5FF00287FF458AF70BD5D
:104460006500002070B505460C4600260DB1022CF3
:1044700001D8002070BDA11E094802882846FFF718
:1044800067F90646F1B2A01E285C814206D1601E83
:10449000285CB0EB162F01D10120EBE70020E9E703
:1044A0007600002070B505460C4600260DB1022CA2
:1044B00001DC002070BD601E81B2FF222846FFF79C
:1044C00061F90646601E285CB04201D10120F1E787
:1044D0000020EFE7000048440000003F000000001B
:1044E00010E4DC3FCB8541BF7FB5F73C0080094538
:1044F0000000A04100000000000020420000000079
:104500000000F041000061440000A04100000000F4
:1045100000003442000000000000704100606A4664
:1045200000002041000000000000204200000000C8
:1045300000000000ABAA2A3EABAAAA3EFF005EBC68
:10454000E2613FDD83C29C7E20A3FD1F419DC3210C
:104550007FFCA2401E5F01E3BD3E6082DC237D9FA5
:10456000C1421CFEA0E1BF5D0380DE3C62BEE002F2
:104570005CDF81633D7C22C09E1D43A1FF4618FA8B
:10458000A427799BC584DA3866E5BB5907DB8567C4
:1045900039BAE406581947A5FB7826C49A653BD971
:1045A00087045AB8E6A7F91B45C6987A24F8A644AA
:1045B0001A99C7257B3A6486D85B05E7B98CD23057
:1045C0006EEDB3510F4E10F2AC2F7193CD114FAD74
:1045D000F3702ECC92D38D6F31B2EC0E50AFF1133D
:1045E0004DCE90722C6D33D18F0C52B0EE326C8E5A
:1045F000D0530DEFB1F0AE4C1291CF2D73CA94761B
:1046000028ABF517490856B4EA6937D58B5709EB3B
:10461000B536688AD495CB2977F4AA4816E9B755F8
:104620000B88D6346A2B7597C94A14F6A8742AC821
:1046300096154BA9F7B6E80A54D7896B35000000E8
:10464000891112239B322446AD573665BF74488CBE
:10465000C19D5AAFD3BE6CCAE5DB7EE9F7F8811085
:10466000080193331A22A5562C47B7753E64C99C9E
:10467000408DDBBF52AEEDDA64CBFFF976E8022164
:104680008B30100299132667AF763444BD554AAD7E
:10469000C3BC588ED19F6EEBE7FA7CC8F5D9833145
:1046A0000A2091121803A7772E66B5543C45CBBD5E
:1046B00042ACD99E508FEFFB66EAFDD874C9044224
:1046C0008D5316619F702004A9153227BB364CCE3E
:1046D000C5DF5EEDD7FC6888E1997AABF3BA855205
:1046E0000C4397711E60A1142805B3373A26CDDE1E
:1046F00044CFDFFD56ECE9986089FBBB72AA0663E4
:104700008F7214409D512225AB343006B9174EEFFD
:10471000C7FE5CCCD5DD6AA9E3B8788AF19B8773C4
:104720000E6295501C41A3352A24B1163807CFFFDD
:1047300046EEDDDC54CDEBB962A8F99A708B0884A3
:1047400081951AA793B62CC2A5D33EE1B7F04008D5
:10475000C919522BDB3A644EED5F766DFF7C89946C
:1047600000859BB712A6ADD224C3BFF136E0C118B5
:104770004809D33B5A2AE55E6C4FF77D7E6C0AA54B
:1047800083B4188691972EE3A7F23CC0B5D1422995
:10479000CB38500AD91B666FEF7E744CFD5D8BB52C
:1047A00002A499961087AFF326E2BDD034C1C33975
:1047B0004A28D11A580BE77F6E6EF55C7C4D0CC60B
:1047C00085D71EE597F42880A1913AA3B3B2444A55
:1047D000CD5B5669DF78600CE91D722FFB3E8DD6EC
:1047E00004C79FF516E4A9902081BBB332A2C55A35
:1047F0004C4BD7795E68E11C680DF33F7A2E0EE7CB
:1048000087F61CC495D52AA1A3B03882B193466B14
:10481000CF7A5448DD59622DEB3C700EF91F8FF7AB
:1048200006E69DD414C5ABB122A0B9923083C77BF4
:104830004E6AD5585C49E33D6A2CF11E780F0000A2
:1048400000000000920E493CB10AC93C2BC3163D42
:104850002EFB483D752B7B3D04A9963D80B6AF3DB0
:1048600036BDC83D2FBCE13D73B2FA3D87CF093E4E
:104870008340163EB5AB223EA2102F3ECF6E3B3E8C
:10488000C2C5473E0115543E135C603E7F9A6C3EA4
:10489000CCCF783EC07D823E938E883E229A8E3E5B
:1048A00032A0943E86A09A3EE59AA03E128FA63E84
:1048B000D47CAC3EEF63B23E2A44B83E491DBE3EB6
:1048C00015EFC33E53B9C93ECA7BCF3E4136D53EF4
:1048D00080E8DA3E4F92E03E7533E63EBBCBEB3EDE
:1048E000EA5AF13ECBE0F63E275DFC3EE4E7003FAE
:1048F0003D9C033F824B063F9BF5083F6B9A0B3F65
:10490000DA390E3FCDD3103F2A68133FD9F6153F51
:10491000C07F183FC6021B3FD17F1D3FCBF61F3F14
:104920009967223F25D2243F5636273F1594293FC9
:104930004AEB2B3FDE3B2E3FBB85303FC9C8323FA1
:10494000F304353F233A373F4268393F3B8F3B3FC3
:10495000F9AE3D3F67C73F3F70D8413F01E2433F5B
:1049600003E4453F65DE473F12D1493FF8BB4B3F6B
:10497000029F4D3F207A4F3F3D4D513F4918533FD5
:1049800031DB543FE595563F5348583F6AF2593F53
:104990001A945B3F532D5D3F05BE5E3F2146603F4D
:1049A00097C5613F5A3C633F59AA643F880F663FF1
:1049B000D86B673F3CBF683FA7096A3F0C4B6B3F12
:1049C0005E836C3F93B26D3F9ED86E3F73F56F3F31
:1049D0000809713F5213723F4714733FDD0B743F58
:1049E0000BFA743FC6DE753F07BA763FC58B773F3B
:1049F000F853783F9812793F9DC7793F02737A3F09
:104A0000BE147B3FCDAC7B3F283B7C3FC9BF7C3F86
:104A1000AC3A7D3FCCAB7D3F23137E3FB0707E3FF1
:104A20006DC47E3F580E7F3F6D4E7F3FAB847F3F0E
:104A30000FB17F3F97D37F3F43EC7F3F11FB7F3F19
:104A40000000803F11FB7F3F43EC7F3F97D37F3FC8
:104A50000FB17F3FAB847F3F6D4E7F3F580E7F3F4E
:104A60006DC47E3FB0707E3F23137E3FCCAB7D3F55
:104A7000AC3A7D3FC9BF7C3F283B7C3FCDAC7B3F00
:104A8000BE147B3F02737A3F9DC7793F9812793FEE
:104A9000F853783FC58B773F07BA763FC6DE753F40
:104AA0000BFA743FDD0B743F4714733F5213723F90
:104AB0000809713F73F56F3F9ED86E3F93B26D3F0B
:104AC0005E836C3F0C4B6B3FA7096A3F3CBF683F5E
:104AD000D86B673F880F663F59AA643F5A3C633FD3
:104AE00097C5613F2146603F05BE5E3F532D5D3F48
:104AF0001A945B3F6AF2593F5348583FE595563F39
:104B000031DB543F4918533F3D4D513F207A4F3FD1
:104B1000029F4D3FF8BB4B3F12D1493F65DE473FF7
:104B200003E4453F01E2433F70D8413F67C73F3F41
:104B3000F9AE3D3F3B8F3B3F4268393F233A373F19
:104B4000F304353FC9C8323FBB85303FDE3B2E3FC3
:104B50004AEB2B3F1594293F5636273F25D2243F59
:104B60009967223FCBF61F3FD17F1D3FC6021B3FF7
:104B7000C07F183FD9F6153F2A68133FCDD3103FA9
:104B8000DA390E3F6B9A0B3F9BF5083F824B063F8D
:104B90003D9C033FE4E7003F275DFC3ECBE0F63E53
:104BA000EA5AF13EBBCBEB3E7533E63E4F92E03E18
:104BB00080E8DA3E4136D53ECA7BCF3E53B9C93E86
:104BC00015EFC33E491DBE3E2A44B83EEF63B23ED8
:104BD000D47CAC3E128FA63EE59AA03E86A09A3EBB
:104BE00032A0943E229A8E3E938E883EC07D823EB5
:104BF000CCCF783E7F9A6C3E135C603E0115543EEC
:104C0000C2C5473ECF6E3B3EA2102F3EB5AB223E03
:104C10008340163E87CF093E73B2FA3D2FBCE13D7B
:104C200036BDC83D80B6AF3D04A9963D752B7B3D92
:104C30002EFB483D2BC3163DB10AC93C920E493CA0
:104C400000000000920E49BCB10AC9BC2BC316BDBE
:104C50002EFB48BD752B7BBD04A996BD80B6AFBDAC
:104C600036BDC8BD2FBCE1BD73B2FABD87CF09BE4A
:104C7000834016BEB5AB22BEA2102FBECF6E3BBE88
:104C8000C2C547BE011554BE135C60BE7F9A6CBEA0
:104C9000CCCF78BEC07D82BE938E88BE229A8EBE57
:104CA00032A094BE86A09ABEE59AA0BE128FA6BE80
:104CB000D47CACBEEF63B2BE2A44B8BE491DBEBEB2
:104CC00015EFC3BE53B9C9BECA7BCFBE4136D5BEF0
:104CD00080E8DABE4F92E0BE7533E6BEBBCBEBBEDA
:104CE000EA5AF1BECBE0F6BE275DFCBEE4E700BFAA
:104CF0003D9C03BF824B06BF9BF508BF6B9A0BBF61
:104D0000DA390EBFCDD310BF2A6813BFD9F615BF4D
:104D1000C07F18BFC6021BBFD17F1DBFCBF61FBF10
:104D2000996722BF25D224BF563627BF159429BFC5
:104D30004AEB2BBFDE3B2EBFBB8530BFC9C832BF9D
:104D4000F30435BF233A37BF426839BF3B8F3BBFBF
:104D5000F9AE3DBF67C73FBF70D841BF01E243BF57
:104D600003E445BF65DE47BF12D149BFF8BB4BBF67
:104D7000029F4DBF207A4FBF3D4D51BF491853BFD1
:104D800031DB54BFE59556BF534858BF6AF259BF4F
:104D90001A945BBF532D5DBF05BE5EBF214660BF49
:104DA00097C561BF5A3C63BF59AA64BF880F66BFED
:104DB000D86B67BF3CBF68BFA7096ABF0C4B6BBF0E
:104DC0005E836CBF93B26DBF9ED86EBF73F56FBF2D
:104DD000080971BF521372BF471473BFDD0B74BF54
:104DE0000BFA74BFC6DE75BF07BA76BFC58B77BF37
:104DF000F85378BF981279BF9DC779BF02737ABF05
:104E0000BE147BBFCDAC7BBF283B7CBFC9BF7CBF82
:104E1000AC3A7DBFCCAB7DBF23137EBFB0707EBFED
:104E20006DC47EBF580E7FBF6D4E7FBFAB847FBF0A
:104E30000FB17FBF97D37FBF43EC7FBF11FB7FBF15
:104E4000000080BF11FB7FBF43EC7FBF97D37FBFC4
:104E50000FB17FBFAB847FBF6D4E7FBF580E7FBF4A
:104E60006DC47EBFB0707EBF23137EBFCCAB7DBF51
:104E7000AC3A7DBFC9BF7CBF283B7CBFCDAC7BBFFC
:104E8000BE147BBF02737ABF9DC779BF981279BFEA
:104E9000F85378BFC58B77BF07BA76BFC6DE75BF3C
:104EA0000BFA74BFDD0B74BF471473BF521372BF8C
:104EB000080971BF73F56FBF9ED86EBF93B26DBF07
:104EC0005E836CBF0C4B6BBFA7096ABF3CBF68BF5A
:104ED000D86B67BF880F66BF59AA64BF5A3C63BFCF
:104EE00097C561BF214660BF05BE5EBF532D5DBF44
:104EF0001A945BBF6AF259BF534858BFE59556BF35
:104F000031DB54BF491853BF3D4D51BF207A4FBFCD
:104F1000029F4DBFF8BB4BBF12D149BF65DE47BFF3
:104F200003E445BF01E243BF70D841BF67C73FBF3D
:104F3000F9AE3DBF3B8F3BBF426839BF233A37BF15
:104F4000F30435BFC9C832BFBB8530BFDE3B2EBFBF
:104F50004AEB2BBF159429BF563627BF25D224BF55
:104F6000996722BFCBF61FBFD17F1DBFC6021BBFF3
:104F7000C07F18BFD9F615BF2A6813BFCDD310BFA5
:104F8000DA390EBF6B9A0BBF9BF508BF824B06BF89
:104F90003D9C03BFE4E700BF275DFCBECBE0F6BE4F
:104FA000EA5AF1BEBBCBEBBE7533E6BE4F92E0BE14
:104FB00080E8DABE4136D5BECA7BCFBE53B9C9BE82
:104FC00015EFC3BE491DBEBE2A44B8BEEF63B2BED4
:104FD000D47CACBE128FA6BEE59AA0BE86A09ABEB7
:104FE00032A094BE229A8EBE938E88BEC07D82BEB1
:104FF000CCCF78BE7F9A6CBE135C60BE011554BEE8
:10500000C2C547BECF6E3BBEA2102FBEB5AB22BEFF
:10501000834016BE87CF09BE73B2FABD2FBCE1BD77
:1050200036BDC8BD80B6AFBD04A996BD752B7BBD8E
:105030002EFB48BD2BC316BDB10AC9BC920E49BC9C
:105040000000008064500008000000208000000084
:10505000FE2B0008E45000088000002060100000D3
:105060000E2C0008000000000000000001020304F4
:105070000102030406070809000000000000000008
:10508000000000000000E803E80300000100000049
:105090000000000000000000000000000000000010
:1050A0000000000000000000000000000000000000
:1050B00000000000000000000000000000000000F0
:1050C000000000003333333F000000000000000008
:1050D00000000000000000000000FFFF00000000D2
:0450E00000000000CC
:04000005080001AD41
:00000001FF
